{
  "_format": "hh-sol-artifact-1",
  "contractName": "FCatTest4",
  "sourceName": "contracts/FCatTest4.sol",
  "abi": [
    {
      "inputs": [
        {
          "internalType": "string",
          "name": "_tokenName",
          "type": "string"
        },
        {
          "internalType": "string",
          "name": "_tokenSymbol",
          "type": "string"
        },
        {
          "internalType": "uint256",
          "name": "_cost",
          "type": "uint256"
        },
        {
          "internalType": "uint256",
          "name": "_maxSupply",
          "type": "uint256"
        },
        {
          "internalType": "uint256",
          "name": "_maxMintAmountPerTx",
          "type": "uint256"
        },
        {
          "internalType": "string",
          "name": "_hiddenMetadataUri",
          "type": "string"
        }
      ],
      "stateMutability": "nonpayable",
      "type": "constructor"
    },
    {
      "inputs": [],
      "name": "ApprovalCallerNotOwnerNorApproved",
      "type": "error"
    },
    {
      "inputs": [],
      "name": "ApprovalQueryForNonexistentToken",
      "type": "error"
    },
    {
      "inputs": [],
      "name": "ApprovalToCurrentOwner",
      "type": "error"
    },
    {
      "inputs": [],
      "name": "ApproveToCaller",
      "type": "error"
    },
    {
      "inputs": [],
      "name": "BalanceQueryForZeroAddress",
      "type": "error"
    },
    {
      "inputs": [],
      "name": "MintToZeroAddress",
      "type": "error"
    },
    {
      "inputs": [],
      "name": "MintZeroQuantity",
      "type": "error"
    },
    {
      "inputs": [],
      "name": "OwnerQueryForNonexistentToken",
      "type": "error"
    },
    {
      "inputs": [],
      "name": "TransferCallerNotOwnerNorApproved",
      "type": "error"
    },
    {
      "inputs": [],
      "name": "TransferFromIncorrectOwner",
      "type": "error"
    },
    {
      "inputs": [],
      "name": "TransferToNonERC721ReceiverImplementer",
      "type": "error"
    },
    {
      "inputs": [],
      "name": "TransferToZeroAddress",
      "type": "error"
    },
    {
      "anonymous": false,
      "inputs": [
        {
          "indexed": true,
          "internalType": "address",
          "name": "owner",
          "type": "address"
        },
        {
          "indexed": true,
          "internalType": "address",
          "name": "approved",
          "type": "address"
        },
        {
          "indexed": true,
          "internalType": "uint256",
          "name": "tokenId",
          "type": "uint256"
        }
      ],
      "name": "Approval",
      "type": "event"
    },
    {
      "anonymous": false,
      "inputs": [
        {
          "indexed": true,
          "internalType": "address",
          "name": "owner",
          "type": "address"
        },
        {
          "indexed": true,
          "internalType": "address",
          "name": "operator",
          "type": "address"
        },
        {
          "indexed": false,
          "internalType": "bool",
          "name": "approved",
          "type": "bool"
        }
      ],
      "name": "ApprovalForAll",
      "type": "event"
    },
    {
      "anonymous": false,
      "inputs": [
        {
          "indexed": true,
          "internalType": "address",
          "name": "previousOwner",
          "type": "address"
        },
        {
          "indexed": true,
          "internalType": "address",
          "name": "newOwner",
          "type": "address"
        }
      ],
      "name": "OwnershipTransferred",
      "type": "event"
    },
    {
      "anonymous": false,
      "inputs": [
        {
          "indexed": true,
          "internalType": "address",
          "name": "from",
          "type": "address"
        },
        {
          "indexed": true,
          "internalType": "address",
          "name": "to",
          "type": "address"
        },
        {
          "indexed": true,
          "internalType": "uint256",
          "name": "tokenId",
          "type": "uint256"
        }
      ],
      "name": "Transfer",
      "type": "event"
    },
    {
      "inputs": [
        {
          "internalType": "address",
          "name": "to",
          "type": "address"
        },
        {
          "internalType": "uint256",
          "name": "tokenId",
          "type": "uint256"
        }
      ],
      "name": "approve",
      "outputs": [],
      "stateMutability": "nonpayable",
      "type": "function"
    },
    {
      "inputs": [
        {
          "internalType": "address",
          "name": "owner",
          "type": "address"
        }
      ],
      "name": "balanceOf",
      "outputs": [
        {
          "internalType": "uint256",
          "name": "",
          "type": "uint256"
        }
      ],
      "stateMutability": "view",
      "type": "function"
    },
    {
      "inputs": [],
      "name": "cost",
      "outputs": [
        {
          "internalType": "uint256",
          "name": "",
          "type": "uint256"
        }
      ],
      "stateMutability": "view",
      "type": "function"
    },
    {
      "inputs": [
        {
          "internalType": "uint256",
          "name": "tokenId",
          "type": "uint256"
        }
      ],
      "name": "getApproved",
      "outputs": [
        {
          "internalType": "address",
          "name": "",
          "type": "address"
        }
      ],
      "stateMutability": "view",
      "type": "function"
    },
    {
      "inputs": [],
      "name": "hiddenMetadataUri",
      "outputs": [
        {
          "internalType": "string",
          "name": "",
          "type": "string"
        }
      ],
      "stateMutability": "view",
      "type": "function"
    },
    {
      "inputs": [
        {
          "internalType": "address",
          "name": "owner",
          "type": "address"
        },
        {
          "internalType": "address",
          "name": "operator",
          "type": "address"
        }
      ],
      "name": "isApprovedForAll",
      "outputs": [
        {
          "internalType": "bool",
          "name": "",
          "type": "bool"
        }
      ],
      "stateMutability": "view",
      "type": "function"
    },
    {
      "inputs": [],
      "name": "maxMintAmountPerTx",
      "outputs": [
        {
          "internalType": "uint256",
          "name": "",
          "type": "uint256"
        }
      ],
      "stateMutability": "view",
      "type": "function"
    },
    {
      "inputs": [],
      "name": "maxSupply",
      "outputs": [
        {
          "internalType": "uint256",
          "name": "",
          "type": "uint256"
        }
      ],
      "stateMutability": "view",
      "type": "function"
    },
    {
      "inputs": [],
      "name": "merkleRoot",
      "outputs": [
        {
          "internalType": "bytes32",
          "name": "",
          "type": "bytes32"
        }
      ],
      "stateMutability": "view",
      "type": "function"
    },
    {
      "inputs": [
        {
          "internalType": "uint256",
          "name": "_mintAmount",
          "type": "uint256"
        }
      ],
      "name": "mint",
      "outputs": [],
      "stateMutability": "payable",
      "type": "function"
    },
    {
      "inputs": [
        {
          "internalType": "uint256",
          "name": "_mintAmount",
          "type": "uint256"
        },
        {
          "internalType": "address",
          "name": "_receiver",
          "type": "address"
        }
      ],
      "name": "mintForAddress",
      "outputs": [],
      "stateMutability": "nonpayable",
      "type": "function"
    },
    {
      "inputs": [],
      "name": "name",
      "outputs": [
        {
          "internalType": "string",
          "name": "",
          "type": "string"
        }
      ],
      "stateMutability": "view",
      "type": "function"
    },
    {
      "inputs": [],
      "name": "owner",
      "outputs": [
        {
          "internalType": "address",
          "name": "",
          "type": "address"
        }
      ],
      "stateMutability": "view",
      "type": "function"
    },
    {
      "inputs": [
        {
          "internalType": "uint256",
          "name": "tokenId",
          "type": "uint256"
        }
      ],
      "name": "ownerOf",
      "outputs": [
        {
          "internalType": "address",
          "name": "",
          "type": "address"
        }
      ],
      "stateMutability": "view",
      "type": "function"
    },
    {
      "inputs": [],
      "name": "paused",
      "outputs": [
        {
          "internalType": "bool",
          "name": "",
          "type": "bool"
        }
      ],
      "stateMutability": "view",
      "type": "function"
    },
    {
      "inputs": [],
      "name": "renounceOwnership",
      "outputs": [],
      "stateMutability": "nonpayable",
      "type": "function"
    },
    {
      "inputs": [],
      "name": "revealed",
      "outputs": [
        {
          "internalType": "bool",
          "name": "",
          "type": "bool"
        }
      ],
      "stateMutability": "view",
      "type": "function"
    },
    {
      "inputs": [
        {
          "internalType": "address",
          "name": "from",
          "type": "address"
        },
        {
          "internalType": "address",
          "name": "to",
          "type": "address"
        },
        {
          "internalType": "uint256",
          "name": "tokenId",
          "type": "uint256"
        }
      ],
      "name": "safeTransferFrom",
      "outputs": [],
      "stateMutability": "nonpayable",
      "type": "function"
    },
    {
      "inputs": [
        {
          "internalType": "address",
          "name": "from",
          "type": "address"
        },
        {
          "internalType": "address",
          "name": "to",
          "type": "address"
        },
        {
          "internalType": "uint256",
          "name": "tokenId",
          "type": "uint256"
        },
        {
          "internalType": "bytes",
          "name": "_data",
          "type": "bytes"
        }
      ],
      "name": "safeTransferFrom",
      "outputs": [],
      "stateMutability": "nonpayable",
      "type": "function"
    },
    {
      "inputs": [
        {
          "internalType": "address",
          "name": "operator",
          "type": "address"
        },
        {
          "internalType": "bool",
          "name": "approved",
          "type": "bool"
        }
      ],
      "name": "setApprovalForAll",
      "outputs": [],
      "stateMutability": "nonpayable",
      "type": "function"
    },
    {
      "inputs": [
        {
          "internalType": "uint256",
          "name": "_cost",
          "type": "uint256"
        }
      ],
      "name": "setCost",
      "outputs": [],
      "stateMutability": "nonpayable",
      "type": "function"
    },
    {
      "inputs": [
        {
          "internalType": "string",
          "name": "_hiddenMetadataUri",
          "type": "string"
        }
      ],
      "name": "setHiddenMetadataUri",
      "outputs": [],
      "stateMutability": "nonpayable",
      "type": "function"
    },
    {
      "inputs": [
        {
          "internalType": "uint256",
          "name": "_maxMintAmountPerTx",
          "type": "uint256"
        }
      ],
      "name": "setMaxMintAmountPerTx",
      "outputs": [],
      "stateMutability": "nonpayable",
      "type": "function"
    },
    {
      "inputs": [
        {
          "internalType": "bytes32",
          "name": "_merkleRoot",
          "type": "bytes32"
        }
      ],
      "name": "setMerkleRoot",
      "outputs": [],
      "stateMutability": "nonpayable",
      "type": "function"
    },
    {
      "inputs": [
        {
          "internalType": "bool",
          "name": "_state",
          "type": "bool"
        }
      ],
      "name": "setPaused",
      "outputs": [],
      "stateMutability": "nonpayable",
      "type": "function"
    },
    {
      "inputs": [
        {
          "internalType": "bool",
          "name": "_state",
          "type": "bool"
        }
      ],
      "name": "setRevealed",
      "outputs": [],
      "stateMutability": "nonpayable",
      "type": "function"
    },
    {
      "inputs": [
        {
          "internalType": "string",
          "name": "_uriPrefix",
          "type": "string"
        }
      ],
      "name": "setUriPrefix",
      "outputs": [],
      "stateMutability": "nonpayable",
      "type": "function"
    },
    {
      "inputs": [
        {
          "internalType": "string",
          "name": "_uriSuffix",
          "type": "string"
        }
      ],
      "name": "setUriSuffix",
      "outputs": [],
      "stateMutability": "nonpayable",
      "type": "function"
    },
    {
      "inputs": [
        {
          "internalType": "bool",
          "name": "_state",
          "type": "bool"
        }
      ],
      "name": "setWhitelistMintEnabled",
      "outputs": [],
      "stateMutability": "nonpayable",
      "type": "function"
    },
    {
      "inputs": [
        {
          "internalType": "bytes4",
          "name": "interfaceId",
          "type": "bytes4"
        }
      ],
      "name": "supportsInterface",
      "outputs": [
        {
          "internalType": "bool",
          "name": "",
          "type": "bool"
        }
      ],
      "stateMutability": "view",
      "type": "function"
    },
    {
      "inputs": [],
      "name": "symbol",
      "outputs": [
        {
          "internalType": "string",
          "name": "",
          "type": "string"
        }
      ],
      "stateMutability": "view",
      "type": "function"
    },
    {
      "inputs": [
        {
          "internalType": "uint256",
          "name": "_tokenId",
          "type": "uint256"
        }
      ],
      "name": "tokenURI",
      "outputs": [
        {
          "internalType": "string",
          "name": "",
          "type": "string"
        }
      ],
      "stateMutability": "view",
      "type": "function"
    },
    {
      "inputs": [],
      "name": "totalSupply",
      "outputs": [
        {
          "internalType": "uint256",
          "name": "",
          "type": "uint256"
        }
      ],
      "stateMutability": "view",
      "type": "function"
    },
    {
      "inputs": [
        {
          "internalType": "address",
          "name": "from",
          "type": "address"
        },
        {
          "internalType": "address",
          "name": "to",
          "type": "address"
        },
        {
          "internalType": "uint256",
          "name": "tokenId",
          "type": "uint256"
        }
      ],
      "name": "transferFrom",
      "outputs": [],
      "stateMutability": "nonpayable",
      "type": "function"
    },
    {
      "inputs": [
        {
          "internalType": "address",
          "name": "newOwner",
          "type": "address"
        }
      ],
      "name": "transferOwnership",
      "outputs": [],
      "stateMutability": "nonpayable",
      "type": "function"
    },
    {
      "inputs": [],
      "name": "uriPrefix",
      "outputs": [
        {
          "internalType": "string",
          "name": "",
          "type": "string"
        }
      ],
      "stateMutability": "view",
      "type": "function"
    },
    {
      "inputs": [],
      "name": "uriSuffix",
      "outputs": [
        {
          "internalType": "string",
          "name": "",
          "type": "string"
        }
      ],
      "stateMutability": "view",
      "type": "function"
    },
    {
      "inputs": [
        {
          "internalType": "address",
          "name": "_owner",
          "type": "address"
        }
      ],
      "name": "walletOfOwner",
      "outputs": [
        {
          "internalType": "uint256[]",
          "name": "",
          "type": "uint256[]"
        }
      ],
      "stateMutability": "view",
      "type": "function"
    },
    {
      "inputs": [
        {
          "internalType": "address",
          "name": "",
          "type": "address"
        }
      ],
      "name": "whitelistClaimed",
      "outputs": [
        {
          "internalType": "bool",
          "name": "",
          "type": "bool"
        }
      ],
      "stateMutability": "view",
      "type": "function"
    },
    {
      "inputs": [
        {
          "internalType": "uint256",
          "name": "_mintAmount",
          "type": "uint256"
        },
        {
          "internalType": "bytes32[]",
          "name": "_merkleProof",
          "type": "bytes32[]"
        }
      ],
      "name": "whitelistMint",
      "outputs": [],
      "stateMutability": "payable",
      "type": "function"
    },
    {
      "inputs": [],
      "name": "whitelistMintEnabled",
      "outputs": [
        {
          "internalType": "bool",
          "name": "",
          "type": "bool"
        }
      ],
      "stateMutability": "view",
      "type": "function"
    },
    {
      "inputs": [
        {
          "internalType": "address",
          "name": "_receiver_thomas",
          "type": "address"
        },
        {
          "internalType": "address",
          "name": "_receiver_andy",
          "type": "address"
        }
      ],
      "name": "withdraw",
      "outputs": [],
      "stateMutability": "nonpayable",
      "type": "function"
    }
  ],
  "bytecode": "0x60a06040819052600060808190526200001b91600c91620001c1565b5060408051808201909152600580825264173539b7b760d91b60209092019182526200004a91600d91620001c1565b506012805462ffffff191660011790553480156200006757600080fd5b5060405162002b1838038062002b188339810160408190526200008a9162000334565b855186908690620000a3906002906020850190620001c1565b508051620000b9906003906020840190620001c1565b5050600160005550620000cc33620000f7565b6001600955600f84905560108390556011829055620000eb8162000149565b5050505050506200041e565b600880546001600160a01b038381166001600160a01b0319831681179093556040519116919082907f8be0079c531659141344cd1fd0a4f28419497f9722a3daafe3b4186f6b6457e090600090a35050565b6008546001600160a01b03163314620001a85760405162461bcd60e51b815260206004820181905260248201527f4f776e61626c653a2063616c6c6572206973206e6f7420746865206f776e6572604482015260640160405180910390fd5b8051620001bd90600e906020840190620001c1565b5050565b828054620001cf90620003e1565b90600052602060002090601f016020900481019282620001f357600085556200023e565b82601f106200020e57805160ff19168380011785556200023e565b828001600101855582156200023e579182015b828111156200023e57825182559160200191906001019062000221565b506200024c92915062000250565b5090565b5b808211156200024c576000815560010162000251565b634e487b7160e01b600052604160045260246000fd5b600082601f8301126200028f57600080fd5b81516001600160401b0380821115620002ac57620002ac62000267565b604051601f8301601f19908116603f01168101908282118183101715620002d757620002d762000267565b81604052838152602092508683858801011115620002f457600080fd5b600091505b83821015620003185785820183015181830184015290820190620002f9565b838211156200032a5760008385830101525b9695505050505050565b60008060008060008060c087890312156200034e57600080fd5b86516001600160401b03808211156200036657600080fd5b620003748a838b016200027d565b975060208901519150808211156200038b57600080fd5b620003998a838b016200027d565b965060408901519550606089015194506080890151935060a0890151915080821115620003c557600080fd5b50620003d489828a016200027d565b9150509295509295509295565b600181811c90821680620003f657607f821691505b602082108114156200041857634e487b7160e01b600052602260045260246000fd5b50919050565b6126ea806200042e6000396000f3fe6080604052600436106102515760003560e01c8063715018a611610139578063b767a098116100b6578063db4bec441161007a578063db4bec441461069e578063e0a80853146106ce578063e985e9c5146106ee578063efbd73f414610737578063f2fde38b14610757578063f940e3851461077757600080fd5b8063b767a09814610615578063b88d4fde14610635578063c87b56dd14610655578063d2cab05614610675578063d5abeb011461068857600080fd5b806395d89b41116100fd57806395d89b4114610598578063a0712d68146105ad578063a22cb465146105c0578063a45ba8e7146105e0578063b071401b146105f557600080fd5b8063715018a61461050f5780637cb64759146105245780637ec4a659146105445780638da5cb5b1461056457806394354fd01461058257600080fd5b806342842e0e116101d25780635503a0e8116101965780635503a0e81461046c5780635c975abb1461048157806362b99ad41461049b5780636352211e146104b05780636caede3d146104d057806370a08231146104ef57600080fd5b806342842e0e146103bf578063438b6300146103df57806344a0d68a1461040c5780634fdd43cb1461042c578063518302271461044c57600080fd5b806316ba10e01161021957806316ba10e01461032b57806316c38b3c1461034b57806318160ddd1461036b57806323b872dd146103895780632eb4a7ab146103a957600080fd5b806301ffc9a71461025657806306fdde031461028b578063081812fc146102ad578063095ea7b3146102e557806313faede614610307575b600080fd5b34801561026257600080fd5b50610276610271366004611ffe565b610797565b60405190151581526020015b60405180910390f35b34801561029757600080fd5b506102a06107e9565b6040516102829190612073565b3480156102b957600080fd5b506102cd6102c8366004612086565b61087b565b6040516001600160a01b039091168152602001610282565b3480156102f157600080fd5b506103056103003660046120bb565b6108bf565b005b34801561031357600080fd5b5061031d600f5481565b604051908152602001610282565b34801561033757600080fd5b50610305610346366004612170565b61094d565b34801561035757600080fd5b506103056103663660046121c8565b610997565b34801561037757600080fd5b5061031d600154600054036000190190565b34801561039557600080fd5b506103056103a43660046121e3565b6109d4565b3480156103b557600080fd5b5061031d600a5481565b3480156103cb57600080fd5b506103056103da3660046121e3565b6109df565b3480156103eb57600080fd5b506103ff6103fa36600461221f565b6109fa565b604051610282919061223a565b34801561041857600080fd5b50610305610427366004612086565b610b41565b34801561043857600080fd5b50610305610447366004612170565b610b70565b34801561045857600080fd5b506012546102769062010000900460ff1681565b34801561047857600080fd5b506102a0610bad565b34801561048d57600080fd5b506012546102769060ff1681565b3480156104a757600080fd5b506102a0610c3b565b3480156104bc57600080fd5b506102cd6104cb366004612086565b610c48565b3480156104dc57600080fd5b5060125461027690610100900460ff1681565b3480156104fb57600080fd5b5061031d61050a36600461221f565b610c5a565b34801561051b57600080fd5b50610305610ca8565b34801561053057600080fd5b5061030561053f366004612086565b610cde565b34801561055057600080fd5b5061030561055f366004612170565b610d0d565b34801561057057600080fd5b506008546001600160a01b03166102cd565b34801561058e57600080fd5b5061031d60115481565b3480156105a457600080fd5b506102a0610d4a565b6103056105bb366004612086565b610d59565b3480156105cc57600080fd5b506103056105db36600461227e565b610e76565b3480156105ec57600080fd5b506102a0610f0c565b34801561060157600080fd5b50610305610610366004612086565b610f19565b34801561062157600080fd5b506103056106303660046121c8565b610f48565b34801561064157600080fd5b506103056106503660046122b1565b610f8c565b34801561066157600080fd5b506102a0610670366004612086565b610fdd565b61030561068336600461232c565b61114d565b34801561069457600080fd5b5061031d60105481565b3480156106aa57600080fd5b506102766106b936600461221f565b600b6020526000908152604090205460ff1681565b3480156106da57600080fd5b506103056106e93660046121c8565b6113b2565b3480156106fa57600080fd5b506102766107093660046123aa565b6001600160a01b03918216600090815260076020908152604080832093909416825291909152205460ff1690565b34801561074357600080fd5b506103056107523660046123d4565b6113f8565b34801561076357600080fd5b5061030561077236600461221f565b611498565b34801561078357600080fd5b506103056107923660046123aa565b611533565b60006001600160e01b031982166380ac58cd60e01b14806107c857506001600160e01b03198216635b5e139f60e01b145b806107e357506301ffc9a760e01b6001600160e01b03198316145b92915050565b6060600280546107f8906123f7565b80601f0160208091040260200160405190810160405280929190818152602001828054610824906123f7565b80156108715780601f1061084657610100808354040283529160200191610871565b820191906000526020600020905b81548152906001019060200180831161085457829003601f168201915b5050505050905090565b6000610886826116a8565b6108a3576040516333d1c03960e21b815260040160405180910390fd5b506000908152600660205260409020546001600160a01b031690565b60006108ca82610c48565b9050806001600160a01b0316836001600160a01b031614156108ff5760405163250fdee360e21b815260040160405180910390fd5b336001600160a01b0382161480159061091f575061091d8133610709565b155b1561093d576040516367d9dca160e11b815260040160405180910390fd5b6109488383836116e1565b505050565b6008546001600160a01b031633146109805760405162461bcd60e51b815260040161097790612432565b60405180910390fd5b805161099390600d906020840190611f4f565b5050565b6008546001600160a01b031633146109c15760405162461bcd60e51b815260040161097790612432565b6012805460ff1916911515919091179055565b61094883838361173d565b61094883838360405180602001604052806000815250610f8c565b60606000610a0783610c5a565b90506000816001600160401b03811115610a2357610a236120e5565b604051908082528060200260200182016040528015610a4c578160200160208202803683370190505b50905060016000805b8482108015610a6657506010548311155b15610b3657600083815260046020908152604091829020825160608101845290546001600160a01b0381168252600160a01b81046001600160401b031692820192909252600160e01b90910460ff161580159282018390529091610ad3575080516001600160a01b031615155b15610add57805191505b876001600160a01b0316826001600160a01b03161415610b235783858481518110610b0a57610b0a612467565b602090810291909101015282610b1f81612493565b9350505b83610b2d81612493565b94505050610a55565b509195945050505050565b6008546001600160a01b03163314610b6b5760405162461bcd60e51b815260040161097790612432565b600f55565b6008546001600160a01b03163314610b9a5760405162461bcd60e51b815260040161097790612432565b805161099390600e906020840190611f4f565b600d8054610bba906123f7565b80601f0160208091040260200160405190810160405280929190818152602001828054610be6906123f7565b8015610c335780601f10610c0857610100808354040283529160200191610c33565b820191906000526020600020905b815481529060010190602001808311610c1657829003601f168201915b505050505081565b600c8054610bba906123f7565b6000610c5382611951565b5192915050565b60006001600160a01b038216610c83576040516323d3ad8160e21b815260040160405180910390fd5b506001600160a01b03166000908152600560205260409020546001600160401b031690565b6008546001600160a01b03163314610cd25760405162461bcd60e51b815260040161097790612432565b610cdc6000611a78565b565b6008546001600160a01b03163314610d085760405162461bcd60e51b815260040161097790612432565b600a55565b6008546001600160a01b03163314610d375760405162461bcd60e51b815260040161097790612432565b805161099390600c906020840190611f4f565b6060600380546107f8906123f7565b80600081118015610d6c57506011548111155b610d885760405162461bcd60e51b8152600401610977906124ae565b60105481610d9d600154600054036000190190565b610da791906124dc565b1115610dc55760405162461bcd60e51b8152600401610977906124f4565b8180600f54610dd49190612522565b341015610e195760405162461bcd60e51b8152602060048201526013602482015272496e73756666696369656e742066756e64732160681b6044820152606401610977565b60125460ff1615610e6c5760405162461bcd60e51b815260206004820152601760248201527f54686520636f6e747261637420697320706175736564210000000000000000006044820152606401610977565b6109483384611aca565b6001600160a01b038216331415610ea05760405163b06307db60e01b815260040160405180910390fd5b3360008181526007602090815260408083206001600160a01b03871680855290835292819020805460ff191686151590811790915590519081529192917f17307eab39ab6107e8899845ad3d59bd9653f200f220920489ca2b5937696c31910160405180910390a35050565b600e8054610bba906123f7565b6008546001600160a01b03163314610f435760405162461bcd60e51b815260040161097790612432565b601155565b6008546001600160a01b03163314610f725760405162461bcd60e51b815260040161097790612432565b601280549115156101000261ff0019909216919091179055565b610f9784848461173d565b6001600160a01b0383163b15158015610fb95750610fb784848484611ae4565b155b15610fd7576040516368d2bf6b60e11b815260040160405180910390fd5b50505050565b6060610fe8826116a8565b61104c5760405162461bcd60e51b815260206004820152602f60248201527f4552433732314d657461646174613a2055524920717565727920666f72206e6f60448201526e3732bc34b9ba32b73a103a37b5b2b760891b6064820152608401610977565b60125462010000900460ff166110ee57600e8054611069906123f7565b80601f0160208091040260200160405190810160405280929190818152602001828054611095906123f7565b80156110e25780601f106110b7576101008083540402835291602001916110e2565b820191906000526020600020905b8154815290600101906020018083116110c557829003601f168201915b50505050509050919050565b60006110f8611bdc565b905060008151116111185760405180602001604052806000815250611146565b8061112284611beb565b600d60405160200161113693929190612541565b6040516020818303038152906040525b9392505050565b8260008111801561116057506011548111155b61117c5760405162461bcd60e51b8152600401610977906124ae565b60105481611191600154600054036000190190565b61119b91906124dc565b11156111b95760405162461bcd60e51b8152600401610977906124f4565b8380600f546111c89190612522565b34101561120d5760405162461bcd60e51b8152602060048201526013602482015272496e73756666696369656e742066756e64732160681b6044820152606401610977565b601254610100900460ff1661126f5760405162461bcd60e51b815260206004820152602260248201527f5468652077686974656c6973742073616c65206973206e6f7420656e61626c65604482015261642160f01b6064820152608401610977565b336000908152600b602052604090205460ff16156112cf5760405162461bcd60e51b815260206004820152601860248201527f4164647265737320616c726561647920636c61696d65642100000000000000006044820152606401610977565b6040516bffffffffffffffffffffffff193360601b16602082015260009060340160405160208183030381529060405280519060200120905061134985858080602002602001604051908101604052809392919081815260200183836020028082843760009201919091525050600a549150849050611ce8565b6113865760405162461bcd60e51b815260206004820152600e60248201526d496e76616c69642070726f6f662160901b6044820152606401610977565b336000818152600b60205260409020805460ff191660011790556113aa9087611aca565b505050505050565b6008546001600160a01b031633146113dc5760405162461bcd60e51b815260040161097790612432565b60128054911515620100000262ff000019909216919091179055565b8160008111801561140b57506011548111155b6114275760405162461bcd60e51b8152600401610977906124ae565b6010548161143c600154600054036000190190565b61144691906124dc565b11156114645760405162461bcd60e51b8152600401610977906124f4565b6008546001600160a01b0316331461148e5760405162461bcd60e51b815260040161097790612432565b6109488284611aca565b6008546001600160a01b031633146114c25760405162461bcd60e51b815260040161097790612432565b6001600160a01b0381166115275760405162461bcd60e51b815260206004820152602660248201527f4f776e61626c653a206e6577206f776e657220697320746865207a65726f206160448201526564647265737360d01b6064820152608401610977565b61153081611a78565b50565b6008546001600160a01b0316331461155d5760405162461bcd60e51b815260040161097790612432565b600260095414156115b05760405162461bcd60e51b815260206004820152601f60248201527f5265656e7472616e637947756172643a207265656e7472616e742063616c6c006044820152606401610977565b600260098190556000906001600160a01b038416906115d0476001612522565b6115da919061261b565b604051600081818185875af1925050503d8060008114611616576040519150601f19603f3d011682016040523d82523d6000602084013e61161b565b606091505b505090506000826001600160a01b0316600247600161163a9190612522565b611644919061261b565b604051600081818185875af1925050503d8060008114611680576040519150601f19603f3d011682016040523d82523d6000602084013e611685565b606091505b505090508161169357600080fd5b8061169d57600080fd5b505060016009555050565b6000816001111580156116bc575060005482105b80156107e3575050600090815260046020526040902054600160e01b900460ff161590565b60008281526006602052604080822080546001600160a01b0319166001600160a01b0387811691821790925591518593918516917f8c5be1e5ebec7d5bd14f71427d1e84f3dd0314c0f7b2291e5b200ac8c7c3b92591a4505050565b600061174882611951565b80519091506000906001600160a01b0316336001600160a01b03161480611776575081516117769033610709565b806117915750336117868461087b565b6001600160a01b0316145b9050806117b157604051632ce44b5f60e11b815260040160405180910390fd5b846001600160a01b031682600001516001600160a01b0316146117e65760405162a1148160e81b815260040160405180910390fd5b6001600160a01b03841661180d57604051633a954ecd60e21b815260040160405180910390fd5b61181d60008484600001516116e1565b6001600160a01b038581166000908152600560209081526040808320805467ffffffffffffffff198082166001600160401b0392831660001901831617909255898616808652838620805493841693831660019081018416949094179055898652600490945282852080546001600160e01b031916909417600160a01b4290921691909102179092559086018083529120549091166119075760005481101561190757825160008281526004602090815260409091208054918601516001600160401b0316600160a01b026001600160e01b03199092166001600160a01b03909316929092171790555b5082846001600160a01b0316866001600160a01b03167fddf252ad1be2c89b69c2b068fc378daa952ba7f163c4a11628f55a4df523b3ef60405160405180910390a45b5050505050565b60408051606081018252600080825260208201819052918101919091528180600111158015611981575060005481105b15611a5f57600081815260046020908152604091829020825160608101845290546001600160a01b0381168252600160a01b81046001600160401b031692820192909252600160e01b90910460ff16151591810182905290611a5d5780516001600160a01b0316156119f4579392505050565b5060001901600081815260046020908152604091829020825160608101845290546001600160a01b038116808352600160a01b82046001600160401b031693830193909352600160e01b900460ff1615159281019290925215611a58579392505050565b6119f4565b505b604051636f96cda160e11b815260040160405180910390fd5b600880546001600160a01b038381166001600160a01b0319831681179093556040519116919082907f8be0079c531659141344cd1fd0a4f28419497f9722a3daafe3b4186f6b6457e090600090a35050565b610993828260405180602001604052806000815250611cfe565b604051630a85bd0160e11b81526000906001600160a01b0385169063150b7a0290611b1990339089908890889060040161262f565b602060405180830381600087803b158015611b3357600080fd5b505af1925050508015611b63575060408051601f3d908101601f19168201909252611b609181019061266c565b60015b611bbe573d808015611b91576040519150601f19603f3d011682016040523d82523d6000602084013e611b96565b606091505b508051611bb6576040516368d2bf6b60e11b815260040160405180910390fd5b805181602001fd5b6001600160e01b031916630a85bd0160e11b1490505b949350505050565b6060600c80546107f8906123f7565b606081611c0f5750506040805180820190915260018152600360fc1b602082015290565b8160005b8115611c395780611c2381612493565b9150611c329050600a8361261b565b9150611c13565b6000816001600160401b03811115611c5357611c536120e5565b6040519080825280601f01601f191660200182016040528015611c7d576020820181803683370190505b5090505b8415611bd457611c92600183612689565b9150611c9f600a866126a0565b611caa9060306124dc565b60f81b818381518110611cbf57611cbf612467565b60200101906001600160f81b031916908160001a905350611ce1600a8661261b565b9450611c81565b600082611cf58584611d0b565b14949350505050565b6109488383836001611d7f565b600081815b8451811015611d77576000858281518110611d2d57611d2d612467565b60200260200101519050808311611d535760008381526020829052604090209250611d64565b600081815260208490526040902092505b5080611d6f81612493565b915050611d10565b509392505050565b6000546001600160a01b038516611da857604051622e076360e81b815260040160405180910390fd5b83611dc65760405163b562e8dd60e01b815260040160405180910390fd5b6001600160a01b038516600081815260056020908152604080832080546fffffffffffffffffffffffffffffffff1981166001600160401b038083168c0181169182176801000000000000000067ffffffffffffffff1990941690921783900481168c01811690920217909155858452600490925290912080546001600160e01b031916909217600160a01b429092169190910217905580808501838015611e7757506001600160a01b0387163b15155b15611f00575b60405182906001600160a01b038916906000907fddf252ad1be2c89b69c2b068fc378daa952ba7f163c4a11628f55a4df523b3ef908290a4611ec86000888480600101955088611ae4565b611ee5576040516368d2bf6b60e11b815260040160405180910390fd5b80821415611e7d578260005414611efb57600080fd5b611f46565b5b6040516001830192906001600160a01b038916906000907fddf252ad1be2c89b69c2b068fc378daa952ba7f163c4a11628f55a4df523b3ef908290a480821415611f01575b5060005561194a565b828054611f5b906123f7565b90600052602060002090601f016020900481019282611f7d5760008555611fc3565b82601f10611f9657805160ff1916838001178555611fc3565b82800160010185558215611fc3579182015b82811115611fc3578251825591602001919060010190611fa8565b50611fcf929150611fd3565b5090565b5b80821115611fcf5760008155600101611fd4565b6001600160e01b03198116811461153057600080fd5b60006020828403121561201057600080fd5b813561114681611fe8565b60005b8381101561203657818101518382015260200161201e565b83811115610fd75750506000910152565b6000815180845261205f81602086016020860161201b565b601f01601f19169290920160200192915050565b6020815260006111466020830184612047565b60006020828403121561209857600080fd5b5035919050565b80356001600160a01b03811681146120b657600080fd5b919050565b600080604083850312156120ce57600080fd5b6120d78361209f565b946020939093013593505050565b634e487b7160e01b600052604160045260246000fd5b60006001600160401b0380841115612115576121156120e5565b604051601f8501601f19908116603f0116810190828211818310171561213d5761213d6120e5565b8160405280935085815286868601111561215657600080fd5b858560208301376000602087830101525050509392505050565b60006020828403121561218257600080fd5b81356001600160401b0381111561219857600080fd5b8201601f810184136121a957600080fd5b611bd4848235602084016120fb565b803580151581146120b657600080fd5b6000602082840312156121da57600080fd5b611146826121b8565b6000806000606084860312156121f857600080fd5b6122018461209f565b925061220f6020850161209f565b9150604084013590509250925092565b60006020828403121561223157600080fd5b6111468261209f565b6020808252825182820181905260009190848201906040850190845b8181101561227257835183529284019291840191600101612256565b50909695505050505050565b6000806040838503121561229157600080fd5b61229a8361209f565b91506122a8602084016121b8565b90509250929050565b600080600080608085870312156122c757600080fd5b6122d08561209f565b93506122de6020860161209f565b92506040850135915060608501356001600160401b0381111561230057600080fd5b8501601f8101871361231157600080fd5b612320878235602084016120fb565b91505092959194509250565b60008060006040848603121561234157600080fd5b8335925060208401356001600160401b038082111561235f57600080fd5b818601915086601f83011261237357600080fd5b81358181111561238257600080fd5b8760208260051b850101111561239757600080fd5b6020830194508093505050509250925092565b600080604083850312156123bd57600080fd5b6123c68361209f565b91506122a86020840161209f565b600080604083850312156123e757600080fd5b823591506122a86020840161209f565b600181811c9082168061240b57607f821691505b6020821081141561242c57634e487b7160e01b600052602260045260246000fd5b50919050565b6020808252818101527f4f776e61626c653a2063616c6c6572206973206e6f7420746865206f776e6572604082015260600190565b634e487b7160e01b600052603260045260246000fd5b634e487b7160e01b600052601160045260246000fd5b60006000198214156124a7576124a761247d565b5060010190565b602080825260149082015273496e76616c6964206d696e7420616d6f756e742160601b604082015260600190565b600082198211156124ef576124ef61247d565b500190565b6020808252601490820152734d617820737570706c792065786365656465642160601b604082015260600190565b600081600019048311821515161561253c5761253c61247d565b500290565b6000845160206125548285838a0161201b565b8551918401916125678184848a0161201b565b8554920191600090600181811c908083168061258457607f831692505b8583108114156125a257634e487b7160e01b85526022600452602485fd5b8080156125b657600181146125c7576125f4565b60ff198516885283880195506125f4565b60008b81526020902060005b858110156125ec5781548a8201529084019088016125d3565b505083880195505b50939b9a5050505050505050505050565b634e487b7160e01b600052601260045260246000fd5b60008261262a5761262a612605565b500490565b6001600160a01b038581168252841660208201526040810183905260806060820181905260009061266290830184612047565b9695505050505050565b60006020828403121561267e57600080fd5b815161114681611fe8565b60008282101561269b5761269b61247d565b500390565b6000826126af576126af612605565b50069056fea2646970667358221220f492b1a91310c3bad74eab3bfaae8afa43143fe08cb91d1d39c65db5a2aa44ba64736f6c63430008090033",
  "linkReferences": {},
  "deployedLinkReferences": {}
}