{
  "_format": "hh-sol-artifact-1",
  "contractName": "FloatingCats",
  "sourceName": "contracts/MyNFT.sol",
  "abi": [
    {
      "inputs": [
        {
          "internalType": "string",
          "name": "_name",
          "type": "string"
        },
        {
          "internalType": "string",
          "name": "_symbol",
          "type": "string"
        },
        {
          "internalType": "string",
          "name": "_initBaseURI",
          "type": "string"
        }
      ],
      "stateMutability": "nonpayable",
      "type": "constructor"
    },
    {
      "anonymous": false,
      "inputs": [
        {
          "indexed": true,
          "internalType": "address",
          "name": "owner",
          "type": "address"
        },
        {
          "indexed": true,
          "internalType": "address",
          "name": "approved",
          "type": "address"
        },
        {
          "indexed": true,
          "internalType": "uint256",
          "name": "tokenId",
          "type": "uint256"
        }
      ],
      "name": "Approval",
      "type": "event"
    },
    {
      "anonymous": false,
      "inputs": [
        {
          "indexed": true,
          "internalType": "address",
          "name": "owner",
          "type": "address"
        },
        {
          "indexed": true,
          "internalType": "address",
          "name": "operator",
          "type": "address"
        },
        {
          "indexed": false,
          "internalType": "bool",
          "name": "approved",
          "type": "bool"
        }
      ],
      "name": "ApprovalForAll",
      "type": "event"
    },
    {
      "anonymous": false,
      "inputs": [
        {
          "indexed": true,
          "internalType": "address",
          "name": "previousOwner",
          "type": "address"
        },
        {
          "indexed": true,
          "internalType": "address",
          "name": "newOwner",
          "type": "address"
        }
      ],
      "name": "OwnershipTransferred",
      "type": "event"
    },
    {
      "anonymous": false,
      "inputs": [
        {
          "indexed": true,
          "internalType": "address",
          "name": "from",
          "type": "address"
        },
        {
          "indexed": true,
          "internalType": "address",
          "name": "to",
          "type": "address"
        },
        {
          "indexed": true,
          "internalType": "uint256",
          "name": "tokenId",
          "type": "uint256"
        }
      ],
      "name": "Transfer",
      "type": "event"
    },
    {
      "inputs": [
        {
          "internalType": "address",
          "name": "",
          "type": "address"
        }
      ],
      "name": "addressMintedBalance",
      "outputs": [
        {
          "internalType": "uint256",
          "name": "",
          "type": "uint256"
        }
      ],
      "stateMutability": "view",
      "type": "function"
    },
    {
      "inputs": [
        {
          "internalType": "address",
          "name": "to",
          "type": "address"
        },
        {
          "internalType": "uint256",
          "name": "tokenId",
          "type": "uint256"
        }
      ],
      "name": "approve",
      "outputs": [],
      "stateMutability": "nonpayable",
      "type": "function"
    },
    {
      "inputs": [
        {
          "internalType": "address",
          "name": "owner",
          "type": "address"
        }
      ],
      "name": "balanceOf",
      "outputs": [
        {
          "internalType": "uint256",
          "name": "",
          "type": "uint256"
        }
      ],
      "stateMutability": "view",
      "type": "function"
    },
    {
      "inputs": [],
      "name": "baseExtension",
      "outputs": [
        {
          "internalType": "string",
          "name": "",
          "type": "string"
        }
      ],
      "stateMutability": "view",
      "type": "function"
    },
    {
      "inputs": [],
      "name": "baseURI",
      "outputs": [
        {
          "internalType": "string",
          "name": "",
          "type": "string"
        }
      ],
      "stateMutability": "view",
      "type": "function"
    },
    {
      "inputs": [],
      "name": "cost",
      "outputs": [
        {
          "internalType": "uint256",
          "name": "",
          "type": "uint256"
        }
      ],
      "stateMutability": "view",
      "type": "function"
    },
    {
      "inputs": [],
      "name": "count",
      "outputs": [
        {
          "internalType": "uint256",
          "name": "",
          "type": "uint256"
        }
      ],
      "stateMutability": "view",
      "type": "function"
    },
    {
      "inputs": [
        {
          "internalType": "uint256",
          "name": "tokenId",
          "type": "uint256"
        }
      ],
      "name": "getApproved",
      "outputs": [
        {
          "internalType": "address",
          "name": "",
          "type": "address"
        }
      ],
      "stateMutability": "view",
      "type": "function"
    },
    {
      "inputs": [
        {
          "internalType": "address",
          "name": "owner",
          "type": "address"
        },
        {
          "internalType": "address",
          "name": "operator",
          "type": "address"
        }
      ],
      "name": "isApprovedForAll",
      "outputs": [
        {
          "internalType": "bool",
          "name": "",
          "type": "bool"
        }
      ],
      "stateMutability": "view",
      "type": "function"
    },
    {
      "inputs": [
        {
          "internalType": "address",
          "name": "_user",
          "type": "address"
        }
      ],
      "name": "isWhitelisted",
      "outputs": [
        {
          "internalType": "bool",
          "name": "",
          "type": "bool"
        }
      ],
      "stateMutability": "view",
      "type": "function"
    },
    {
      "inputs": [],
      "name": "maxMintAmount",
      "outputs": [
        {
          "internalType": "uint256",
          "name": "",
          "type": "uint256"
        }
      ],
      "stateMutability": "view",
      "type": "function"
    },
    {
      "inputs": [],
      "name": "maxSupply",
      "outputs": [
        {
          "internalType": "uint256",
          "name": "",
          "type": "uint256"
        }
      ],
      "stateMutability": "view",
      "type": "function"
    },
    {
      "inputs": [
        {
          "internalType": "uint256",
          "name": "_mintAmount",
          "type": "uint256"
        }
      ],
      "name": "mint",
      "outputs": [],
      "stateMutability": "payable",
      "type": "function"
    },
    {
      "inputs": [],
      "name": "name",
      "outputs": [
        {
          "internalType": "string",
          "name": "",
          "type": "string"
        }
      ],
      "stateMutability": "view",
      "type": "function"
    },
    {
      "inputs": [],
      "name": "nftPerAddressLimit",
      "outputs": [
        {
          "internalType": "uint256",
          "name": "",
          "type": "uint256"
        }
      ],
      "stateMutability": "view",
      "type": "function"
    },
    {
      "inputs": [],
      "name": "notRevealedUri",
      "outputs": [
        {
          "internalType": "string",
          "name": "",
          "type": "string"
        }
      ],
      "stateMutability": "view",
      "type": "function"
    },
    {
      "inputs": [],
      "name": "onlyWhitelisted",
      "outputs": [
        {
          "internalType": "bool",
          "name": "",
          "type": "bool"
        }
      ],
      "stateMutability": "view",
      "type": "function"
    },
    {
      "inputs": [],
      "name": "owner",
      "outputs": [
        {
          "internalType": "address",
          "name": "",
          "type": "address"
        }
      ],
      "stateMutability": "view",
      "type": "function"
    },
    {
      "inputs": [
        {
          "internalType": "uint256",
          "name": "tokenId",
          "type": "uint256"
        }
      ],
      "name": "ownerOf",
      "outputs": [
        {
          "internalType": "address",
          "name": "",
          "type": "address"
        }
      ],
      "stateMutability": "view",
      "type": "function"
    },
    {
      "inputs": [
        {
          "internalType": "bool",
          "name": "_state",
          "type": "bool"
        }
      ],
      "name": "pause",
      "outputs": [],
      "stateMutability": "nonpayable",
      "type": "function"
    },
    {
      "inputs": [],
      "name": "paused",
      "outputs": [
        {
          "internalType": "bool",
          "name": "",
          "type": "bool"
        }
      ],
      "stateMutability": "view",
      "type": "function"
    },
    {
      "inputs": [],
      "name": "renounceOwnership",
      "outputs": [],
      "stateMutability": "nonpayable",
      "type": "function"
    },
    {
      "inputs": [],
      "name": "reveal",
      "outputs": [],
      "stateMutability": "nonpayable",
      "type": "function"
    },
    {
      "inputs": [],
      "name": "revealed",
      "outputs": [
        {
          "internalType": "bool",
          "name": "",
          "type": "bool"
        }
      ],
      "stateMutability": "view",
      "type": "function"
    },
    {
      "inputs": [
        {
          "internalType": "address",
          "name": "from",
          "type": "address"
        },
        {
          "internalType": "address",
          "name": "to",
          "type": "address"
        },
        {
          "internalType": "uint256",
          "name": "tokenId",
          "type": "uint256"
        }
      ],
      "name": "safeTransferFrom",
      "outputs": [],
      "stateMutability": "nonpayable",
      "type": "function"
    },
    {
      "inputs": [
        {
          "internalType": "address",
          "name": "from",
          "type": "address"
        },
        {
          "internalType": "address",
          "name": "to",
          "type": "address"
        },
        {
          "internalType": "uint256",
          "name": "tokenId",
          "type": "uint256"
        },
        {
          "internalType": "bytes",
          "name": "_data",
          "type": "bytes"
        }
      ],
      "name": "safeTransferFrom",
      "outputs": [],
      "stateMutability": "nonpayable",
      "type": "function"
    },
    {
      "inputs": [
        {
          "internalType": "address",
          "name": "operator",
          "type": "address"
        },
        {
          "internalType": "bool",
          "name": "approved",
          "type": "bool"
        }
      ],
      "name": "setApprovalForAll",
      "outputs": [],
      "stateMutability": "nonpayable",
      "type": "function"
    },
    {
      "inputs": [
        {
          "internalType": "string",
          "name": "_newBaseExtension",
          "type": "string"
        }
      ],
      "name": "setBaseExtension",
      "outputs": [],
      "stateMutability": "nonpayable",
      "type": "function"
    },
    {
      "inputs": [
        {
          "internalType": "string",
          "name": "_newBaseURI",
          "type": "string"
        }
      ],
      "name": "setBaseURI",
      "outputs": [],
      "stateMutability": "nonpayable",
      "type": "function"
    },
    {
      "inputs": [
        {
          "internalType": "uint256",
          "name": "_newCost",
          "type": "uint256"
        }
      ],
      "name": "setCost",
      "outputs": [],
      "stateMutability": "nonpayable",
      "type": "function"
    },
    {
      "inputs": [
        {
          "internalType": "uint256",
          "name": "_limit",
          "type": "uint256"
        }
      ],
      "name": "setNftPerAddressLimit",
      "outputs": [],
      "stateMutability": "nonpayable",
      "type": "function"
    },
    {
      "inputs": [
        {
          "internalType": "bool",
          "name": "_state",
          "type": "bool"
        }
      ],
      "name": "setOnlyWhitelisted",
      "outputs": [],
      "stateMutability": "nonpayable",
      "type": "function"
    },
    {
      "inputs": [
        {
          "internalType": "uint256",
          "name": "_newmaxMintAmount",
          "type": "uint256"
        }
      ],
      "name": "setmaxMintAmount",
      "outputs": [],
      "stateMutability": "nonpayable",
      "type": "function"
    },
    {
      "inputs": [
        {
          "internalType": "bytes4",
          "name": "interfaceId",
          "type": "bytes4"
        }
      ],
      "name": "supportsInterface",
      "outputs": [
        {
          "internalType": "bool",
          "name": "",
          "type": "bool"
        }
      ],
      "stateMutability": "view",
      "type": "function"
    },
    {
      "inputs": [],
      "name": "symbol",
      "outputs": [
        {
          "internalType": "string",
          "name": "",
          "type": "string"
        }
      ],
      "stateMutability": "view",
      "type": "function"
    },
    {
      "inputs": [
        {
          "internalType": "uint256",
          "name": "index",
          "type": "uint256"
        }
      ],
      "name": "tokenByIndex",
      "outputs": [
        {
          "internalType": "uint256",
          "name": "",
          "type": "uint256"
        }
      ],
      "stateMutability": "view",
      "type": "function"
    },
    {
      "inputs": [
        {
          "internalType": "address",
          "name": "owner",
          "type": "address"
        },
        {
          "internalType": "uint256",
          "name": "index",
          "type": "uint256"
        }
      ],
      "name": "tokenOfOwnerByIndex",
      "outputs": [
        {
          "internalType": "uint256",
          "name": "",
          "type": "uint256"
        }
      ],
      "stateMutability": "view",
      "type": "function"
    },
    {
      "inputs": [
        {
          "internalType": "uint256",
          "name": "tokenId",
          "type": "uint256"
        }
      ],
      "name": "tokenURI",
      "outputs": [
        {
          "internalType": "string",
          "name": "",
          "type": "string"
        }
      ],
      "stateMutability": "view",
      "type": "function"
    },
    {
      "inputs": [],
      "name": "totalSupply",
      "outputs": [
        {
          "internalType": "uint256",
          "name": "",
          "type": "uint256"
        }
      ],
      "stateMutability": "view",
      "type": "function"
    },
    {
      "inputs": [
        {
          "internalType": "address",
          "name": "from",
          "type": "address"
        },
        {
          "internalType": "address",
          "name": "to",
          "type": "address"
        },
        {
          "internalType": "uint256",
          "name": "tokenId",
          "type": "uint256"
        }
      ],
      "name": "transferFrom",
      "outputs": [],
      "stateMutability": "nonpayable",
      "type": "function"
    },
    {
      "inputs": [
        {
          "internalType": "address",
          "name": "newOwner",
          "type": "address"
        }
      ],
      "name": "transferOwnership",
      "outputs": [],
      "stateMutability": "nonpayable",
      "type": "function"
    },
    {
      "inputs": [
        {
          "internalType": "address",
          "name": "_owner",
          "type": "address"
        }
      ],
      "name": "walletOfOwner",
      "outputs": [
        {
          "internalType": "uint256[]",
          "name": "",
          "type": "uint256[]"
        }
      ],
      "stateMutability": "view",
      "type": "function"
    },
    {
      "inputs": [
        {
          "internalType": "address[]",
          "name": "_users",
          "type": "address[]"
        }
      ],
      "name": "whitelistUsers",
      "outputs": [],
      "stateMutability": "nonpayable",
      "type": "function"
    },
    {
      "inputs": [
        {
          "internalType": "uint256",
          "name": "",
          "type": "uint256"
        }
      ],
      "name": "whitelistedAddresses",
      "outputs": [
        {
          "internalType": "address",
          "name": "",
          "type": "address"
        }
      ],
      "stateMutability": "view",
      "type": "function"
    },
    {
      "inputs": [],
      "name": "withdraw",
      "outputs": [],
      "stateMutability": "payable",
      "type": "function"
    }
  ],
  "bytecode": "0x60806040526040518060400160405280600581526020017f2e6a736f6e000000000000000000000000000000000000000000000000000000815250600c90805190602001906200005192919062001212565b5060405180608001604052806041815260200162006e8f60419139600d90805190602001906200008392919062001212565b5066470de4df820000600e556014600f55600360105560036011556000601260006101000a81548160ff0219169083151502179055506001601260016101000a81548160ff0219169083151502179055506000601260026101000a81548160ff021916908315150217905550348015620000fc57600080fd5b5060405162006ed038038062006ed0833981810160405281019062000122919062001377565b828281600090805190602001906200013c92919062001212565b5080600190805190602001906200015592919062001212565b505050620001786200016c620001a460201b60201c565b620001ac60201b60201c565b62000189816200027260201b60201c565b6200019b60016200031d60201b60201c565b50505062001e30565b600033905090565b6000600a60009054906101000a900473ffffffffffffffffffffffffffffffffffffffff16905081600a60006101000a81548173ffffffffffffffffffffffffffffffffffffffff021916908373ffffffffffffffffffffffffffffffffffffffff1602179055508173ffffffffffffffffffffffffffffffffffffffff168173ffffffffffffffffffffffffffffffffffffffff167f8be0079c531659141344cd1fd0a4f28419497f9722a3daafe3b4186f6b6457e060405160405180910390a35050565b62000282620001a460201b60201c565b73ffffffffffffffffffffffffffffffffffffffff16620002a8620006ab60201b60201c565b73ffffffffffffffffffffffffffffffffffffffff161462000301576040517f08c379a0000000000000000000000000000000000000000000000000000000008152600401620002f890620017b3565b60405180910390fd5b80600b90805190602001906200031992919062001212565b5050565b601260009054906101000a900460ff161562000370576040517f08c379a00000000000000000000000000000000000000000000000000000000081526004016200036790620016a3565b60405180910390fd5b600062000382620006d560201b60201c565b905060008211620003ca576040517f08c379a0000000000000000000000000000000000000000000000000000000008152600401620003c19062001819565b60405180910390fd5b60105482111562000412576040517f08c379a000000000000000000000000000000000000000000000000000000000815260040162000409906200176f565b60405180910390fd5b600f548282620004239190620018c7565b111562000467576040517f08c379a00000000000000000000000000000000000000000000000000000000081526004016200045e906200174d565b60405180910390fd5b62000477620006ab60201b60201c565b73ffffffffffffffffffffffffffffffffffffffff163373ffffffffffffffffffffffffffffffffffffffff16146200060b5760011515601260029054906101000a900460ff1615151415620005b557620004d833620006e260201b60201c565b6200051a576040517f08c379a00000000000000000000000000000000000000000000000000000000081526004016200051190620017f7565b60405180910390fd5b6000601460003373ffffffffffffffffffffffffffffffffffffffff1673ffffffffffffffffffffffffffffffffffffffff16815260200190815260200160002054905060115483826200056f9190620018c7565b1115620005b3576040517f08c379a0000000000000000000000000000000000000000000000000000000008152600401620005aa9062001709565b60405180910390fd5b505b81600e54620005c5919062001924565b3410156200060a576040517f08c379a00000000000000000000000000000000000000000000000000000000081526004016200060190620017d5565b60405180910390fd5b5b6000600190505b828111620006a657601460003373ffffffffffffffffffffffffffffffffffffffff1673ffffffffffffffffffffffffffffffffffffffff16815260200190815260200160002060008154809291906200066c9062001acc565b919050555062000690338284620006849190620018c7565b620007be60201b60201c565b80806200069d9062001acc565b91505062000612565b505050565b6000600a60009054906101000a900473ffffffffffffffffffffffffffffffffffffffff16905090565b6000600880549050905090565b600080600090505b601380549050811015620007b3578273ffffffffffffffffffffffffffffffffffffffff16601382815481106200074a577f4e487b7100000000000000000000000000000000000000000000000000000000600052603260045260246000fd5b9060005260206000200160009054906101000a900473ffffffffffffffffffffffffffffffffffffffff1673ffffffffffffffffffffffffffffffffffffffff1614156200079d576001915050620007b9565b8080620007aa9062001acc565b915050620006ea565b50600090505b919050565b620007e0828260405180602001604052806000815250620007e460201b60201c565b5050565b620007f683836200085260201b60201c565b6200080b600084848462000a3860201b60201c565b6200084d576040517f08c379a00000000000000000000000000000000000000000000000000000000081526004016200084490620016c5565b60405180910390fd5b505050565b600073ffffffffffffffffffffffffffffffffffffffff168273ffffffffffffffffffffffffffffffffffffffff161415620008c5576040517f08c379a0000000000000000000000000000000000000000000000000000000008152600401620008bc9062001791565b60405180910390fd5b620008d68162000bf260201b60201c565b1562000919576040517f08c379a00000000000000000000000000000000000000000000000000000000081526004016200091090620016e7565b60405180910390fd5b6200092d6000838362000c5e60201b60201c565b6001600360008473ffffffffffffffffffffffffffffffffffffffff1673ffffffffffffffffffffffffffffffffffffffff16815260200190815260200160002060008282546200097f9190620018c7565b92505081905550816002600083815260200190815260200160002060006101000a81548173ffffffffffffffffffffffffffffffffffffffff021916908373ffffffffffffffffffffffffffffffffffffffff160217905550808273ffffffffffffffffffffffffffffffffffffffff16600073ffffffffffffffffffffffffffffffffffffffff167fddf252ad1be2c89b69c2b068fc378daa952ba7f163c4a11628f55a4df523b3ef60405160405180910390a45050565b600062000a668473ffffffffffffffffffffffffffffffffffffffff1662000da560201b620023f01760201c565b1562000be5578373ffffffffffffffffffffffffffffffffffffffff1663150b7a0262000a98620001a460201b60201c565b8786866040518563ffffffff1660e01b815260040162000abc94939291906200164f565b602060405180830381600087803b15801562000ad757600080fd5b505af192505050801562000b0b57506040513d601f19601f8201168201806040525081019062000b0891906200134b565b60015b62000b94573d806000811462000b3e576040519150601f19603f3d011682016040523d82523d6000602084013e62000b43565b606091505b5060008151141562000b8c576040517f08c379a000000000000000000000000000000000000000000000000000000000815260040162000b8390620016c5565b60405180910390fd5b805181602001fd5b63150b7a0260e01b7bffffffffffffffffffffffffffffffffffffffffffffffffffffffff1916817bffffffffffffffffffffffffffffffffffffffffffffffffffffffff19161491505062000bea565b600190505b949350505050565b60008073ffffffffffffffffffffffffffffffffffffffff166002600084815260200190815260200160002060009054906101000a900473ffffffffffffffffffffffffffffffffffffffff1673ffffffffffffffffffffffffffffffffffffffff1614159050919050565b62000c7683838362000db860201b620024031760201c565b600073ffffffffffffffffffffffffffffffffffffffff168373ffffffffffffffffffffffffffffffffffffffff16141562000cc35762000cbd8162000dbd60201b60201c565b62000d0b565b8173ffffffffffffffffffffffffffffffffffffffff168373ffffffffffffffffffffffffffffffffffffffff161462000d0a5762000d09838262000e0660201b60201c565b5b5b600073ffffffffffffffffffffffffffffffffffffffff168273ffffffffffffffffffffffffffffffffffffffff16141562000d585762000d528162000f8360201b60201c565b62000da0565b8273ffffffffffffffffffffffffffffffffffffffff168273ffffffffffffffffffffffffffffffffffffffff161462000d9f5762000d9e8282620010cb60201b60201c565b5b5b505050565b600080823b905060008111915050919050565b505050565b6008805490506009600083815260200190815260200160002081905550600881908060018154018082558091505060019003906000526020600020016000909190919091505550565b6000600162000e20846200115760201b6200161c1760201c565b62000e2c919062001985565b905060006007600084815260200190815260200160002054905081811462000f12576000600660008673ffffffffffffffffffffffffffffffffffffffff1673ffffffffffffffffffffffffffffffffffffffff168152602001908152602001600020600084815260200190815260200160002054905080600660008773ffffffffffffffffffffffffffffffffffffffff1673ffffffffffffffffffffffffffffffffffffffff168152602001908152602001600020600084815260200190815260200160002081905550816007600083815260200190815260200160002081905550505b6007600084815260200190815260200160002060009055600660008573ffffffffffffffffffffffffffffffffffffffff1673ffffffffffffffffffffffffffffffffffffffff16815260200190815260200160002060008381526020019081526020016000206000905550505050565b6000600160088054905062000f99919062001985565b905060006009600084815260200190815260200160002054905060006008838154811062000ff0577f4e487b7100000000000000000000000000000000000000000000000000000000600052603260045260246000fd5b90600052602060002001549050806008838154811062001039577f4e487b7100000000000000000000000000000000000000000000000000000000600052603260045260246000fd5b906000526020600020018190555081600960008381526020019081526020016000208190555060096000858152602001908152602001600020600090556008805480620010af577f4e487b7100000000000000000000000000000000000000000000000000000000600052603160045260246000fd5b6001900381819060005260206000200160009055905550505050565b6000620010e3836200115760201b6200161c1760201c565b905081600660008573ffffffffffffffffffffffffffffffffffffffff1673ffffffffffffffffffffffffffffffffffffffff168152602001908152602001600020600083815260200190815260200160002081905550806007600084815260200190815260200160002081905550505050565b60008073ffffffffffffffffffffffffffffffffffffffff168273ffffffffffffffffffffffffffffffffffffffff161415620011cb576040517f08c379a0000000000000000000000000000000000000000000000000000000008152600401620011c2906200172b565b60405180910390fd5b600360008373ffffffffffffffffffffffffffffffffffffffff1673ffffffffffffffffffffffffffffffffffffffff168152602001908152602001600020549050919050565b828054620012209062001a60565b90600052602060002090601f01602090048101928262001244576000855562001290565b82601f106200125f57805160ff191683800117855562001290565b8280016001018555821562001290579182015b828111156200128f57825182559160200191906001019062001272565b5b5090506200129f9190620012a3565b5090565b5b80821115620012be576000816000905550600101620012a4565b5090565b6000620012d9620012d38462001864565b6200183b565b905082815260208101848484011115620012f257600080fd5b620012ff84828562001a2a565b509392505050565b600081519050620013188162001e16565b92915050565b600082601f8301126200133057600080fd5b815162001342848260208601620012c2565b91505092915050565b6000602082840312156200135e57600080fd5b60006200136e8482850162001307565b91505092915050565b6000806000606084860312156200138d57600080fd5b600084015167ffffffffffffffff811115620013a857600080fd5b620013b6868287016200131e565b935050602084015167ffffffffffffffff811115620013d457600080fd5b620013e2868287016200131e565b925050604084015167ffffffffffffffff8111156200140057600080fd5b6200140e868287016200131e565b9150509250925092565b6200142381620019c0565b82525050565b600062001436826200189a565b620014428185620018a5565b93506200145481856020860162001a2a565b6200145f8162001ba7565b840191505092915050565b600062001479601683620018b6565b9150620014868262001bb8565b602082019050919050565b6000620014a0603283620018b6565b9150620014ad8262001be1565b604082019050919050565b6000620014c7601c83620018b6565b9150620014d48262001c30565b602082019050919050565b6000620014ee601c83620018b6565b9150620014fb8262001c59565b602082019050919050565b600062001515602a83620018b6565b9150620015228262001c82565b604082019050919050565b60006200153c601683620018b6565b9150620015498262001cd1565b602082019050919050565b600062001563602483620018b6565b9150620015708262001cfa565b604082019050919050565b60006200158a602083620018b6565b9150620015978262001d49565b602082019050919050565b6000620015b1602083620018b6565b9150620015be8262001d72565b602082019050919050565b6000620015d8601283620018b6565b9150620015e58262001d9b565b602082019050919050565b6000620015ff601783620018b6565b91506200160c8262001dc4565b602082019050919050565b600062001626601b83620018b6565b9150620016338262001ded565b602082019050919050565b620016498162001a20565b82525050565b600060808201905062001666600083018762001418565b62001675602083018662001418565b6200168460408301856200163e565b818103606083015262001698818462001429565b905095945050505050565b60006020820190508181036000830152620016be816200146a565b9050919050565b60006020820190508181036000830152620016e08162001491565b9050919050565b600060208201905081810360008301526200170281620014b8565b9050919050565b600060208201905081810360008301526200172481620014df565b9050919050565b60006020820190508181036000830152620017468162001506565b9050919050565b6000602082019050818103600083015262001768816200152d565b9050919050565b600060208201905081810360008301526200178a8162001554565b9050919050565b60006020820190508181036000830152620017ac816200157b565b9050919050565b60006020820190508181036000830152620017ce81620015a2565b9050919050565b60006020820190508181036000830152620017f081620015c9565b9050919050565b600060208201905081810360008301526200181281620015f0565b9050919050565b60006020820190508181036000830152620018348162001617565b9050919050565b6000620018476200185a565b905062001855828262001a96565b919050565b6000604051905090565b600067ffffffffffffffff82111562001882576200188162001b78565b5b6200188d8262001ba7565b9050602081019050919050565b600081519050919050565b600082825260208201905092915050565b600082825260208201905092915050565b6000620018d48262001a20565b9150620018e18362001a20565b9250827fffffffffffffffffffffffffffffffffffffffffffffffffffffffffffffffff0382111562001919576200191862001b1a565b5b828201905092915050565b6000620019318262001a20565b91506200193e8362001a20565b9250817fffffffffffffffffffffffffffffffffffffffffffffffffffffffffffffffff04831182151516156200197a576200197962001b1a565b5b828202905092915050565b6000620019928262001a20565b91506200199f8362001a20565b925082821015620019b557620019b462001b1a565b5b828203905092915050565b6000620019cd8262001a00565b9050919050565b60007fffffffff0000000000000000000000000000000000000000000000000000000082169050919050565b600073ffffffffffffffffffffffffffffffffffffffff82169050919050565b6000819050919050565b60005b8381101562001a4a57808201518184015260208101905062001a2d565b8381111562001a5a576000848401525b50505050565b6000600282049050600182168062001a7957607f821691505b6020821081141562001a905762001a8f62001b49565b5b50919050565b62001aa18262001ba7565b810181811067ffffffffffffffff8211171562001ac35762001ac262001b78565b5b80604052505050565b600062001ad98262001a20565b91507fffffffffffffffffffffffffffffffffffffffffffffffffffffffffffffffff82141562001b0f5762001b0e62001b1a565b5b600182019050919050565b7f4e487b7100000000000000000000000000000000000000000000000000000000600052601160045260246000fd5b7f4e487b7100000000000000000000000000000000000000000000000000000000600052602260045260246000fd5b7f4e487b7100000000000000000000000000000000000000000000000000000000600052604160045260246000fd5b6000601f19601f8301169050919050565b7f4f757220636f6e74726163742069732070617573656400000000000000000000600082015250565b7f4552433732313a207472616e7366657220746f206e6f6e20455243373231526560008201527f63656976657220696d706c656d656e7465720000000000000000000000000000602082015250565b7f4552433732313a20746f6b656e20616c7265616479206d696e74656400000000600082015250565b7f6d6178204e465420706572206164647265737320657863656564656400000000600082015250565b7f4552433732313a2062616c616e636520717565727920666f7220746865207a6560008201527f726f206164647265737300000000000000000000000000000000000000000000602082015250565b7f6d6178204e4654206c696d697420657863656564656400000000000000000000600082015250565b7f6d6178206d696e7420616d6f756e74207065722073657373696f6e206578636560008201527f6564656400000000000000000000000000000000000000000000000000000000602082015250565b7f4552433732313a206d696e7420746f20746865207a65726f2061646472657373600082015250565b7f4f776e61626c653a2063616c6c6572206973206e6f7420746865206f776e6572600082015250565b7f696e73756666696369656e742066756e64730000000000000000000000000000600082015250565b7f75736572206973206e6f742077686974656c6973746564000000000000000000600082015250565b7f6e65656420746f206d696e74206174206c656173742031204e46540000000000600082015250565b62001e2181620019d4565b811462001e2d57600080fd5b50565b61504f8062001e406000396000f3fe6080604052600436106102725760003560e01c80635c975abb1161014f578063a475b5dd116100c1578063d0eb26b01161007a578063d0eb26b01461095e578063d5abeb0114610987578063da3ef23f146109b2578063e985e9c5146109db578063edec5f2714610a18578063f2fde38b14610a4157610272565b8063a475b5dd1461084e578063b88d4fde14610865578063ba4e5c491461088e578063ba7d2c76146108cb578063c6682862146108f6578063c87b56dd1461092157610272565b80637f00c7a6116101135780637f00c7a61461075f5780638da5cb5b1461078857806395d89b41146107b35780639c70b512146107de578063a0712d6814610809578063a22cb4651461082557610272565b80635c975abb146106785780636352211e146106a35780636c0360eb146106e057806370a082311461070b578063715018a61461074857610272565b806323b872dd116101e857806342842e0e116101ac57806342842e0e14610558578063438b63001461058157806344a0d68a146105be5780634f6ccce7146105e7578063518302271461062457806355f804b31461064f57610272565b806323b872dd146104825780632f745c59146104ab5780633af32abf146104e85780633c952764146105255780633ccfd60b1461054e57610272565b8063081c8c441161023a578063081c8c4414610370578063095ea7b31461039b57806313faede6146103c457806318160ddd146103ef57806318cae2691461041a578063239c70ae1461045757610272565b806301ffc9a71461027757806302329a29146102b457806306661abd146102dd57806306fdde0314610308578063081812fc14610333575b600080fd5b34801561028357600080fd5b5061029e60048036038101906102999190613a82565b610a6a565b6040516102ab919061416f565b60405180910390f35b3480156102c057600080fd5b506102db60048036038101906102d69190613a59565b610ae4565b005b3480156102e957600080fd5b506102f2610b7d565b6040516102ff91906144cc565b60405180910390f35b34801561031457600080fd5b5061031d610b8c565b60405161032a919061418a565b60405180910390f35b34801561033f57600080fd5b5061035a60048036038101906103559190613b15565b610c1e565b60405161036791906140e6565b60405180910390f35b34801561037c57600080fd5b50610385610ca3565b604051610392919061418a565b60405180910390f35b3480156103a757600080fd5b506103c260048036038101906103bd91906139d8565b610d31565b005b3480156103d057600080fd5b506103d9610e49565b6040516103e691906144cc565b60405180910390f35b3480156103fb57600080fd5b50610404610e4f565b60405161041191906144cc565b60405180910390f35b34801561042657600080fd5b50610441600480360381019061043c919061386d565b610e5c565b60405161044e91906144cc565b60405180910390f35b34801561046357600080fd5b5061046c610e74565b60405161047991906144cc565b60405180910390f35b34801561048e57600080fd5b506104a960048036038101906104a491906138d2565b610e7a565b005b3480156104b757600080fd5b506104d260048036038101906104cd91906139d8565b610eda565b6040516104df91906144cc565b60405180910390f35b3480156104f457600080fd5b5061050f600480360381019061050a919061386d565b610f7f565b60405161051c919061416f565b60405180910390f35b34801561053157600080fd5b5061054c60048036038101906105479190613a59565b611054565b005b6105566110ed565b005b34801561056457600080fd5b5061057f600480360381019061057a91906138d2565b6111e9565b005b34801561058d57600080fd5b506105a860048036038101906105a3919061386d565b611209565b6040516105b5919061414d565b60405180910390f35b3480156105ca57600080fd5b506105e560048036038101906105e09190613b15565b611303565b005b3480156105f357600080fd5b5061060e60048036038101906106099190613b15565b611389565b60405161061b91906144cc565b60405180910390f35b34801561063057600080fd5b50610639611420565b604051610646919061416f565b60405180910390f35b34801561065b57600080fd5b5061067660048036038101906106719190613ad4565b611433565b005b34801561068457600080fd5b5061068d6114c9565b60405161069a919061416f565b60405180910390f35b3480156106af57600080fd5b506106ca60048036038101906106c59190613b15565b6114dc565b6040516106d791906140e6565b60405180910390f35b3480156106ec57600080fd5b506106f561158e565b604051610702919061418a565b60405180910390f35b34801561071757600080fd5b50610732600480360381019061072d919061386d565b61161c565b60405161073f91906144cc565b60405180910390f35b34801561075457600080fd5b5061075d6116d4565b005b34801561076b57600080fd5b5061078660048036038101906107819190613b15565b61175c565b005b34801561079457600080fd5b5061079d6117e2565b6040516107aa91906140e6565b60405180910390f35b3480156107bf57600080fd5b506107c861180c565b6040516107d5919061418a565b60405180910390f35b3480156107ea57600080fd5b506107f361189e565b604051610800919061416f565b60405180910390f35b610823600480360381019061081e9190613b15565b6118b1565b005b34801561083157600080fd5b5061084c6004803603810190610847919061399c565b611bfa565b005b34801561085a57600080fd5b50610863611d7b565b005b34801561087157600080fd5b5061088c60048036038101906108879190613921565b611e14565b005b34801561089a57600080fd5b506108b560048036038101906108b09190613b15565b611e76565b6040516108c291906140e6565b60405180910390f35b3480156108d757600080fd5b506108e0611eb5565b6040516108ed91906144cc565b60405180910390f35b34801561090257600080fd5b5061090b611ebb565b604051610918919061418a565b60405180910390f35b34801561092d57600080fd5b5061094860048036038101906109439190613b15565b611f49565b604051610955919061418a565b60405180910390f35b34801561096a57600080fd5b5061098560048036038101906109809190613b15565b6120a2565b005b34801561099357600080fd5b5061099c612128565b6040516109a991906144cc565b60405180910390f35b3480156109be57600080fd5b506109d960048036038101906109d49190613ad4565b61212e565b005b3480156109e757600080fd5b50610a0260048036038101906109fd9190613896565b6121c4565b604051610a0f919061416f565b60405180910390f35b348015610a2457600080fd5b50610a3f6004803603810190610a3a9190613a14565b612258565b005b348015610a4d57600080fd5b50610a686004803603810190610a63919061386d565b6122f8565b005b60007f780e9d63000000000000000000000000000000000000000000000000000000007bffffffffffffffffffffffffffffffffffffffffffffffffffffffff1916827bffffffffffffffffffffffffffffffffffffffffffffffffffffffff19161480610add5750610adc82612408565b5b9050919050565b610aec6124ea565b73ffffffffffffffffffffffffffffffffffffffff16610b0a6117e2565b73ffffffffffffffffffffffffffffffffffffffff1614610b60576040517f08c379a0000000000000000000000000000000000000000000000000000000008152600401610b57906143ac565b60405180910390fd5b80601260006101000a81548160ff02191690831515021790555050565b6000610b87610e4f565b905090565b606060008054610b9b906147d5565b80601f0160208091040260200160405190810160405280929190818152602001828054610bc7906147d5565b8015610c145780601f10610be957610100808354040283529160200191610c14565b820191906000526020600020905b815481529060010190602001808311610bf757829003601f168201915b5050505050905090565b6000610c29826124f2565b610c68576040517f08c379a0000000000000000000000000000000000000000000000000000000008152600401610c5f9061438c565b60405180910390fd5b6004600083815260200190815260200160002060009054906101000a900473ffffffffffffffffffffffffffffffffffffffff169050919050565b600d8054610cb0906147d5565b80601f0160208091040260200160405190810160405280929190818152602001828054610cdc906147d5565b8015610d295780601f10610cfe57610100808354040283529160200191610d29565b820191906000526020600020905b815481529060010190602001808311610d0c57829003601f168201915b505050505081565b6000610d3c826114dc565b90508073ffffffffffffffffffffffffffffffffffffffff168373ffffffffffffffffffffffffffffffffffffffff161415610dad576040517f08c379a0000000000000000000000000000000000000000000000000000000008152600401610da49061440c565b60405180910390fd5b8073ffffffffffffffffffffffffffffffffffffffff16610dcc6124ea565b73ffffffffffffffffffffffffffffffffffffffff161480610dfb5750610dfa81610df56124ea565b6121c4565b5b610e3a576040517f08c379a0000000000000000000000000000000000000000000000000000000008152600401610e31906142cc565b60405180910390fd5b610e44838361255e565b505050565b600e5481565b6000600880549050905090565b60146020528060005260406000206000915090505481565b60105481565b610e8b610e856124ea565b82612617565b610eca576040517f08c379a0000000000000000000000000000000000000000000000000000000008152600401610ec19061444c565b60405180910390fd5b610ed58383836126f5565b505050565b6000610ee58361161c565b8210610f26576040517f08c379a0000000000000000000000000000000000000000000000000000000008152600401610f1d906141cc565b60405180910390fd5b600660008473ffffffffffffffffffffffffffffffffffffffff1673ffffffffffffffffffffffffffffffffffffffff168152602001908152602001600020600083815260200190815260200160002054905092915050565b600080600090505b601380549050811015611049578273ffffffffffffffffffffffffffffffffffffffff1660138281548110610fe5577f4e487b7100000000000000000000000000000000000000000000000000000000600052603260045260246000fd5b9060005260206000200160009054906101000a900473ffffffffffffffffffffffffffffffffffffffff1673ffffffffffffffffffffffffffffffffffffffff16141561103657600191505061104f565b808061104190614838565b915050610f87565b50600090505b919050565b61105c6124ea565b73ffffffffffffffffffffffffffffffffffffffff1661107a6117e2565b73ffffffffffffffffffffffffffffffffffffffff16146110d0576040517f08c379a00000000000000000000000000000000000000000000000000000000081526004016110c7906143ac565b60405180910390fd5b80601260026101000a81548160ff02191690831515021790555050565b6110f56124ea565b73ffffffffffffffffffffffffffffffffffffffff166111136117e2565b73ffffffffffffffffffffffffffffffffffffffff1614611169576040517f08c379a0000000000000000000000000000000000000000000000000000000008152600401611160906143ac565b60405180910390fd5b60006111736117e2565b73ffffffffffffffffffffffffffffffffffffffff1647604051611196906140d1565b60006040518083038185875af1925050503d80600081146111d3576040519150601f19603f3d011682016040523d82523d6000602084013e6111d8565b606091505b50509050806111e657600080fd5b50565b61120483838360405180602001604052806000815250611e14565b505050565b606060006112168361161c565b905060008167ffffffffffffffff81111561125a577f4e487b7100000000000000000000000000000000000000000000000000000000600052604160045260246000fd5b6040519080825280602002602001820160405280156112885781602001602082028036833780820191505090505b50905060005b828110156112f8576112a08582610eda565b8282815181106112d9577f4e487b7100000000000000000000000000000000000000000000000000000000600052603260045260246000fd5b60200260200101818152505080806112f090614838565b91505061128e565b508092505050919050565b61130b6124ea565b73ffffffffffffffffffffffffffffffffffffffff166113296117e2565b73ffffffffffffffffffffffffffffffffffffffff161461137f576040517f08c379a0000000000000000000000000000000000000000000000000000000008152600401611376906143ac565b60405180910390fd5b80600e8190555050565b6000611393610e4f565b82106113d4576040517f08c379a00000000000000000000000000000000000000000000000000000000081526004016113cb9061446c565b60405180910390fd5b6008828154811061140e577f4e487b7100000000000000000000000000000000000000000000000000000000600052603260045260246000fd5b90600052602060002001549050919050565b601260019054906101000a900460ff1681565b61143b6124ea565b73ffffffffffffffffffffffffffffffffffffffff166114596117e2565b73ffffffffffffffffffffffffffffffffffffffff16146114af576040517f08c379a00000000000000000000000000000000000000000000000000000000081526004016114a6906143ac565b60405180910390fd5b80600b90805190602001906114c5929190613586565b5050565b601260009054906101000a900460ff1681565b6000806002600084815260200190815260200160002060009054906101000a900473ffffffffffffffffffffffffffffffffffffffff169050600073ffffffffffffffffffffffffffffffffffffffff168173ffffffffffffffffffffffffffffffffffffffff161415611585576040517f08c379a000000000000000000000000000000000000000000000000000000000815260040161157c9061430c565b60405180910390fd5b80915050919050565b600b805461159b906147d5565b80601f01602080910402602001604051908101604052809291908181526020018280546115c7906147d5565b80156116145780601f106115e957610100808354040283529160200191611614565b820191906000526020600020905b8154815290600101906020018083116115f757829003601f168201915b505050505081565b60008073ffffffffffffffffffffffffffffffffffffffff168273ffffffffffffffffffffffffffffffffffffffff16141561168d576040517f08c379a0000000000000000000000000000000000000000000000000000000008152600401611684906142ec565b60405180910390fd5b600360008373ffffffffffffffffffffffffffffffffffffffff1673ffffffffffffffffffffffffffffffffffffffff168152602001908152602001600020549050919050565b6116dc6124ea565b73ffffffffffffffffffffffffffffffffffffffff166116fa6117e2565b73ffffffffffffffffffffffffffffffffffffffff1614611750576040517f08c379a0000000000000000000000000000000000000000000000000000000008152600401611747906143ac565b60405180910390fd5b61175a6000612951565b565b6117646124ea565b73ffffffffffffffffffffffffffffffffffffffff166117826117e2565b73ffffffffffffffffffffffffffffffffffffffff16146117d8576040517f08c379a00000000000000000000000000000000000000000000000000000000081526004016117cf906143ac565b60405180910390fd5b8060108190555050565b6000600a60009054906101000a900473ffffffffffffffffffffffffffffffffffffffff16905090565b60606001805461181b906147d5565b80601f0160208091040260200160405190810160405280929190818152602001828054611847906147d5565b80156118945780601f1061186957610100808354040283529160200191611894565b820191906000526020600020905b81548152906001019060200180831161187757829003601f168201915b5050505050905090565b601260029054906101000a900460ff1681565b601260009054906101000a900460ff1615611901576040517f08c379a00000000000000000000000000000000000000000000000000000000081526004016118f8906141ac565b60405180910390fd5b600061190b610e4f565b905060008211611950576040517f08c379a0000000000000000000000000000000000000000000000000000000008152600401611947906144ac565b60405180910390fd5b601054821115611995576040517f08c379a000000000000000000000000000000000000000000000000000000000815260040161198c9061434c565b60405180910390fd5b600f5482826119a4919061460a565b11156119e5576040517f08c379a00000000000000000000000000000000000000000000000000000000081526004016119dc9061432c565b60405180910390fd5b6119ed6117e2565b73ffffffffffffffffffffffffffffffffffffffff163373ffffffffffffffffffffffffffffffffffffffff1614611b6a5760011515601260029054906101000a900460ff1615151415611b1957611a4433610f7f565b611a83576040517f08c379a0000000000000000000000000000000000000000000000000000000008152600401611a7a9061448c565b60405180910390fd5b6000601460003373ffffffffffffffffffffffffffffffffffffffff1673ffffffffffffffffffffffffffffffffffffffff1681526020019081526020016000205490506011548382611ad6919061460a565b1115611b17576040517f08c379a0000000000000000000000000000000000000000000000000000000008152600401611b0e9061424c565b60405180910390fd5b505b81600e54611b279190614691565b341015611b69576040517f08c379a0000000000000000000000000000000000000000000000000000000008152600401611b609061442c565b60405180910390fd5b5b6000600190505b828111611bf557601460003373ffffffffffffffffffffffffffffffffffffffff1673ffffffffffffffffffffffffffffffffffffffff1681526020019081526020016000206000815480929190611bc890614838565b9190505550611be2338284611bdd919061460a565b612a17565b8080611bed90614838565b915050611b71565b505050565b611c026124ea565b73ffffffffffffffffffffffffffffffffffffffff168273ffffffffffffffffffffffffffffffffffffffff161415611c70576040517f08c379a0000000000000000000000000000000000000000000000000000000008152600401611c679061428c565b60405180910390fd5b8060056000611c7d6124ea565b73ffffffffffffffffffffffffffffffffffffffff1673ffffffffffffffffffffffffffffffffffffffff16815260200190815260200160002060008473ffffffffffffffffffffffffffffffffffffffff1673ffffffffffffffffffffffffffffffffffffffff16815260200190815260200160002060006101000a81548160ff0219169083151502179055508173ffffffffffffffffffffffffffffffffffffffff16611d2a6124ea565b73ffffffffffffffffffffffffffffffffffffffff167f17307eab39ab6107e8899845ad3d59bd9653f200f220920489ca2b5937696c3183604051611d6f919061416f565b60405180910390a35050565b611d836124ea565b73ffffffffffffffffffffffffffffffffffffffff16611da16117e2565b73ffffffffffffffffffffffffffffffffffffffff1614611df7576040517f08c379a0000000000000000000000000000000000000000000000000000000008152600401611dee906143ac565b60405180910390fd5b6001601260016101000a81548160ff021916908315150217905550565b611e25611e1f6124ea565b83612617565b611e64576040517f08c379a0000000000000000000000000000000000000000000000000000000008152600401611e5b9061444c565b60405180910390fd5b611e7084848484612a35565b50505050565b60138181548110611e8657600080fd5b906000526020600020016000915054906101000a900473ffffffffffffffffffffffffffffffffffffffff1681565b60115481565b600c8054611ec8906147d5565b80601f0160208091040260200160405190810160405280929190818152602001828054611ef4906147d5565b8015611f415780601f10611f1657610100808354040283529160200191611f41565b820191906000526020600020905b815481529060010190602001808311611f2457829003601f168201915b505050505081565b6060611f54826124f2565b611f93576040517f08c379a0000000000000000000000000000000000000000000000000000000008152600401611f8a906143ec565b60405180910390fd5b60001515601260019054906101000a900460ff161515141561204157600d8054611fbc906147d5565b80601f0160208091040260200160405190810160405280929190818152602001828054611fe8906147d5565b80156120355780601f1061200a57610100808354040283529160200191612035565b820191906000526020600020905b81548152906001019060200180831161201857829003601f168201915b5050505050905061209d565b600061204b612a91565b9050600081511161206b5760405180602001604052806000815250612099565b8061207584612b23565b600c604051602001612089939291906140a0565b6040516020818303038152906040525b9150505b919050565b6120aa6124ea565b73ffffffffffffffffffffffffffffffffffffffff166120c86117e2565b73ffffffffffffffffffffffffffffffffffffffff161461211e576040517f08c379a0000000000000000000000000000000000000000000000000000000008152600401612115906143ac565b60405180910390fd5b8060118190555050565b600f5481565b6121366124ea565b73ffffffffffffffffffffffffffffffffffffffff166121546117e2565b73ffffffffffffffffffffffffffffffffffffffff16146121aa576040517f08c379a00000000000000000000000000000000000000000000000000000000081526004016121a1906143ac565b60405180910390fd5b80600c90805190602001906121c0929190613586565b5050565b6000600560008473ffffffffffffffffffffffffffffffffffffffff1673ffffffffffffffffffffffffffffffffffffffff16815260200190815260200160002060008373ffffffffffffffffffffffffffffffffffffffff1673ffffffffffffffffffffffffffffffffffffffff16815260200190815260200160002060009054906101000a900460ff16905092915050565b6122606124ea565b73ffffffffffffffffffffffffffffffffffffffff1661227e6117e2565b73ffffffffffffffffffffffffffffffffffffffff16146122d4576040517f08c379a00000000000000000000000000000000000000000000000000000000081526004016122cb906143ac565b60405180910390fd5b601360006122e2919061360c565b8181601391906122f392919061362d565b505050565b6123006124ea565b73ffffffffffffffffffffffffffffffffffffffff1661231e6117e2565b73ffffffffffffffffffffffffffffffffffffffff1614612374576040517f08c379a000000000000000000000000000000000000000000000000000000000815260040161236b906143ac565b60405180910390fd5b600073ffffffffffffffffffffffffffffffffffffffff168173ffffffffffffffffffffffffffffffffffffffff1614156123e4576040517f08c379a00000000000000000000000000000000000000000000000000000000081526004016123db9061420c565b60405180910390fd5b6123ed81612951565b50565b600080823b905060008111915050919050565b505050565b60007f80ac58cd000000000000000000000000000000000000000000000000000000007bffffffffffffffffffffffffffffffffffffffffffffffffffffffff1916827bffffffffffffffffffffffffffffffffffffffffffffffffffffffff191614806124d357507f5b5e139f000000000000000000000000000000000000000000000000000000007bffffffffffffffffffffffffffffffffffffffffffffffffffffffff1916827bffffffffffffffffffffffffffffffffffffffffffffffffffffffff1916145b806124e357506124e282612cd0565b5b9050919050565b600033905090565b60008073ffffffffffffffffffffffffffffffffffffffff166002600084815260200190815260200160002060009054906101000a900473ffffffffffffffffffffffffffffffffffffffff1673ffffffffffffffffffffffffffffffffffffffff1614159050919050565b816004600083815260200190815260200160002060006101000a81548173ffffffffffffffffffffffffffffffffffffffff021916908373ffffffffffffffffffffffffffffffffffffffff160217905550808273ffffffffffffffffffffffffffffffffffffffff166125d1836114dc565b73ffffffffffffffffffffffffffffffffffffffff167f8c5be1e5ebec7d5bd14f71427d1e84f3dd0314c0f7b2291e5b200ac8c7c3b92560405160405180910390a45050565b6000612622826124f2565b612661576040517f08c379a0000000000000000000000000000000000000000000000000000000008152600401612658906142ac565b60405180910390fd5b600061266c836114dc565b90508073ffffffffffffffffffffffffffffffffffffffff168473ffffffffffffffffffffffffffffffffffffffff1614806126db57508373ffffffffffffffffffffffffffffffffffffffff166126c384610c1e565b73ffffffffffffffffffffffffffffffffffffffff16145b806126ec57506126eb81856121c4565b5b91505092915050565b8273ffffffffffffffffffffffffffffffffffffffff16612715826114dc565b73ffffffffffffffffffffffffffffffffffffffff161461276b576040517f08c379a0000000000000000000000000000000000000000000000000000000008152600401612762906143cc565b60405180910390fd5b600073ffffffffffffffffffffffffffffffffffffffff168273ffffffffffffffffffffffffffffffffffffffff1614156127db576040517f08c379a00000000000000000000000000000000000000000000000000000000081526004016127d29061426c565b60405180910390fd5b6127e6838383612d3a565b6127f160008261255e565b6001600360008573ffffffffffffffffffffffffffffffffffffffff1673ffffffffffffffffffffffffffffffffffffffff168152602001908152602001600020600082825461284191906146eb565b925050819055506001600360008473ffffffffffffffffffffffffffffffffffffffff1673ffffffffffffffffffffffffffffffffffffffff1681526020019081526020016000206000828254612898919061460a565b92505081905550816002600083815260200190815260200160002060006101000a81548173ffffffffffffffffffffffffffffffffffffffff021916908373ffffffffffffffffffffffffffffffffffffffff160217905550808273ffffffffffffffffffffffffffffffffffffffff168473ffffffffffffffffffffffffffffffffffffffff167fddf252ad1be2c89b69c2b068fc378daa952ba7f163c4a11628f55a4df523b3ef60405160405180910390a4505050565b6000600a60009054906101000a900473ffffffffffffffffffffffffffffffffffffffff16905081600a60006101000a81548173ffffffffffffffffffffffffffffffffffffffff021916908373ffffffffffffffffffffffffffffffffffffffff1602179055508173ffffffffffffffffffffffffffffffffffffffff168173ffffffffffffffffffffffffffffffffffffffff167f8be0079c531659141344cd1fd0a4f28419497f9722a3daafe3b4186f6b6457e060405160405180910390a35050565b612a31828260405180602001604052806000815250612e4e565b5050565b612a408484846126f5565b612a4c84848484612ea9565b612a8b576040517f08c379a0000000000000000000000000000000000000000000000000000000008152600401612a82906141ec565b60405180910390fd5b50505050565b6060600b8054612aa0906147d5565b80601f0160208091040260200160405190810160405280929190818152602001828054612acc906147d5565b8015612b195780601f10612aee57610100808354040283529160200191612b19565b820191906000526020600020905b815481529060010190602001808311612afc57829003601f168201915b5050505050905090565b60606000821415612b6b576040518060400160405280600181526020017f30000000000000000000000000000000000000000000000000000000000000008152509050612ccb565b600082905060005b60008214612b9d578080612b8690614838565b915050600a82612b969190614660565b9150612b73565b60008167ffffffffffffffff811115612bdf577f4e487b7100000000000000000000000000000000000000000000000000000000600052604160045260246000fd5b6040519080825280601f01601f191660200182016040528015612c115781602001600182028036833780820191505090505b5090505b60008514612cc457600182612c2a91906146eb565b9150600a85612c399190614881565b6030612c45919061460a565b60f81b818381518110612c81577f4e487b7100000000000000000000000000000000000000000000000000000000600052603260045260246000fd5b60200101907effffffffffffffffffffffffffffffffffffffffffffffffffffffffffffff1916908160001a905350600a85612cbd9190614660565b9450612c15565b8093505050505b919050565b60007f01ffc9a7000000000000000000000000000000000000000000000000000000007bffffffffffffffffffffffffffffffffffffffffffffffffffffffff1916827bffffffffffffffffffffffffffffffffffffffffffffffffffffffff1916149050919050565b612d45838383612403565b600073ffffffffffffffffffffffffffffffffffffffff168373ffffffffffffffffffffffffffffffffffffffff161415612d8857612d8381613040565b612dc7565b8173ffffffffffffffffffffffffffffffffffffffff168373ffffffffffffffffffffffffffffffffffffffff1614612dc657612dc58382613089565b5b5b600073ffffffffffffffffffffffffffffffffffffffff168273ffffffffffffffffffffffffffffffffffffffff161415612e0a57612e05816131f6565b612e49565b8273ffffffffffffffffffffffffffffffffffffffff168273ffffffffffffffffffffffffffffffffffffffff1614612e4857612e478282613339565b5b5b505050565b612e5883836133b8565b612e656000848484612ea9565b612ea4576040517f08c379a0000000000000000000000000000000000000000000000000000000008152600401612e9b906141ec565b60405180910390fd5b505050565b6000612eca8473ffffffffffffffffffffffffffffffffffffffff166123f0565b15613033578373ffffffffffffffffffffffffffffffffffffffff1663150b7a02612ef36124ea565b8786866040518563ffffffff1660e01b8152600401612f159493929190614101565b602060405180830381600087803b158015612f2f57600080fd5b505af1925050508015612f6057506040513d601f19601f82011682018060405250810190612f5d9190613aab565b60015b612fe3573d8060008114612f90576040519150601f19603f3d011682016040523d82523d6000602084013e612f95565b606091505b50600081511415612fdb576040517f08c379a0000000000000000000000000000000000000000000000000000000008152600401612fd2906141ec565b60405180910390fd5b805181602001fd5b63150b7a0260e01b7bffffffffffffffffffffffffffffffffffffffffffffffffffffffff1916817bffffffffffffffffffffffffffffffffffffffffffffffffffffffff191614915050613038565b600190505b949350505050565b6008805490506009600083815260200190815260200160002081905550600881908060018154018082558091505060019003906000526020600020016000909190919091505550565b600060016130968461161c565b6130a091906146eb565b9050600060076000848152602001908152602001600020549050818114613185576000600660008673ffffffffffffffffffffffffffffffffffffffff1673ffffffffffffffffffffffffffffffffffffffff168152602001908152602001600020600084815260200190815260200160002054905080600660008773ffffffffffffffffffffffffffffffffffffffff1673ffffffffffffffffffffffffffffffffffffffff168152602001908152602001600020600084815260200190815260200160002081905550816007600083815260200190815260200160002081905550505b6007600084815260200190815260200160002060009055600660008573ffffffffffffffffffffffffffffffffffffffff1673ffffffffffffffffffffffffffffffffffffffff16815260200190815260200160002060008381526020019081526020016000206000905550505050565b6000600160088054905061320a91906146eb565b9050600060096000848152602001908152602001600020549050600060088381548110613260577f4e487b7100000000000000000000000000000000000000000000000000000000600052603260045260246000fd5b9060005260206000200154905080600883815481106132a8577f4e487b7100000000000000000000000000000000000000000000000000000000600052603260045260246000fd5b90600052602060002001819055508160096000838152602001908152602001600020819055506009600085815260200190815260200160002060009055600880548061331d577f4e487b7100000000000000000000000000000000000000000000000000000000600052603160045260246000fd5b6001900381819060005260206000200160009055905550505050565b60006133448361161c565b905081600660008573ffffffffffffffffffffffffffffffffffffffff1673ffffffffffffffffffffffffffffffffffffffff168152602001908152602001600020600083815260200190815260200160002081905550806007600084815260200190815260200160002081905550505050565b600073ffffffffffffffffffffffffffffffffffffffff168273ffffffffffffffffffffffffffffffffffffffff161415613428576040517f08c379a000000000000000000000000000000000000000000000000000000000815260040161341f9061436c565b60405180910390fd5b613431816124f2565b15613471576040517f08c379a00000000000000000000000000000000000000000000000000000000081526004016134689061422c565b60405180910390fd5b61347d60008383612d3a565b6001600360008473ffffffffffffffffffffffffffffffffffffffff1673ffffffffffffffffffffffffffffffffffffffff16815260200190815260200160002060008282546134cd919061460a565b92505081905550816002600083815260200190815260200160002060006101000a81548173ffffffffffffffffffffffffffffffffffffffff021916908373ffffffffffffffffffffffffffffffffffffffff160217905550808273ffffffffffffffffffffffffffffffffffffffff16600073ffffffffffffffffffffffffffffffffffffffff167fddf252ad1be2c89b69c2b068fc378daa952ba7f163c4a11628f55a4df523b3ef60405160405180910390a45050565b828054613592906147d5565b90600052602060002090601f0160209004810192826135b457600085556135fb565b82601f106135cd57805160ff19168380011785556135fb565b828001600101855582156135fb579182015b828111156135fa5782518255916020019190600101906135df565b5b50905061360891906136cd565b5090565b508054600082559060005260206000209081019061362a91906136cd565b50565b8280548282559060005260206000209081019282156136bc579160200282015b828111156136bb57823573ffffffffffffffffffffffffffffffffffffffff168260006101000a81548173ffffffffffffffffffffffffffffffffffffffff021916908373ffffffffffffffffffffffffffffffffffffffff1602179055509160200191906001019061364d565b5b5090506136c991906136cd565b5090565b5b808211156136e65760008160009055506001016136ce565b5090565b60006136fd6136f88461450c565b6144e7565b90508281526020810184848401111561371557600080fd5b613720848285614793565b509392505050565b600061373b6137368461453d565b6144e7565b90508281526020810184848401111561375357600080fd5b61375e848285614793565b509392505050565b60008135905061377581614fbd565b92915050565b60008083601f84011261378d57600080fd5b8235905067ffffffffffffffff8111156137a657600080fd5b6020830191508360208202830111156137be57600080fd5b9250929050565b6000813590506137d481614fd4565b92915050565b6000813590506137e981614feb565b92915050565b6000815190506137fe81614feb565b92915050565b600082601f83011261381557600080fd5b81356138258482602086016136ea565b91505092915050565b600082601f83011261383f57600080fd5b813561384f848260208601613728565b91505092915050565b60008135905061386781615002565b92915050565b60006020828403121561387f57600080fd5b600061388d84828501613766565b91505092915050565b600080604083850312156138a957600080fd5b60006138b785828601613766565b92505060206138c885828601613766565b9150509250929050565b6000806000606084860312156138e757600080fd5b60006138f586828701613766565b935050602061390686828701613766565b925050604061391786828701613858565b9150509250925092565b6000806000806080858703121561393757600080fd5b600061394587828801613766565b945050602061395687828801613766565b935050604061396787828801613858565b925050606085013567ffffffffffffffff81111561398457600080fd5b61399087828801613804565b91505092959194509250565b600080604083850312156139af57600080fd5b60006139bd85828601613766565b92505060206139ce858286016137c5565b9150509250929050565b600080604083850312156139eb57600080fd5b60006139f985828601613766565b9250506020613a0a85828601613858565b9150509250929050565b60008060208385031215613a2757600080fd5b600083013567ffffffffffffffff811115613a4157600080fd5b613a4d8582860161377b565b92509250509250929050565b600060208284031215613a6b57600080fd5b6000613a79848285016137c5565b91505092915050565b600060208284031215613a9457600080fd5b6000613aa2848285016137da565b91505092915050565b600060208284031215613abd57600080fd5b6000613acb848285016137ef565b91505092915050565b600060208284031215613ae657600080fd5b600082013567ffffffffffffffff811115613b0057600080fd5b613b0c8482850161382e565b91505092915050565b600060208284031215613b2757600080fd5b6000613b3584828501613858565b91505092915050565b6000613b4a8383614082565b60208301905092915050565b613b5f8161471f565b82525050565b6000613b7082614593565b613b7a81856145c1565b9350613b858361456e565b8060005b83811015613bb6578151613b9d8882613b3e565b9750613ba8836145b4565b925050600181019050613b89565b5085935050505092915050565b613bcc81614731565b82525050565b6000613bdd8261459e565b613be781856145d2565b9350613bf78185602086016147a2565b613c008161496e565b840191505092915050565b6000613c16826145a9565b613c2081856145ee565b9350613c308185602086016147a2565b613c398161496e565b840191505092915050565b6000613c4f826145a9565b613c5981856145ff565b9350613c698185602086016147a2565b80840191505092915050565b60008154613c82816147d5565b613c8c81866145ff565b94506001821660008114613ca75760018114613cb857613ceb565b60ff19831686528186019350613ceb565b613cc18561457e565b60005b83811015613ce357815481890152600182019150602081019050613cc4565b838801955050505b50505092915050565b6000613d016016836145ee565b9150613d0c8261497f565b602082019050919050565b6000613d24602b836145ee565b9150613d2f826149a8565b604082019050919050565b6000613d476032836145ee565b9150613d52826149f7565b604082019050919050565b6000613d6a6026836145ee565b9150613d7582614a46565b604082019050919050565b6000613d8d601c836145ee565b9150613d9882614a95565b602082019050919050565b6000613db0601c836145ee565b9150613dbb82614abe565b602082019050919050565b6000613dd36024836145ee565b9150613dde82614ae7565b604082019050919050565b6000613df66019836145ee565b9150613e0182614b36565b602082019050919050565b6000613e19602c836145ee565b9150613e2482614b5f565b604082019050919050565b6000613e3c6038836145ee565b9150613e4782614bae565b604082019050919050565b6000613e5f602a836145ee565b9150613e6a82614bfd565b604082019050919050565b6000613e826029836145ee565b9150613e8d82614c4c565b604082019050919050565b6000613ea56016836145ee565b9150613eb082614c9b565b602082019050919050565b6000613ec86024836145ee565b9150613ed382614cc4565b604082019050919050565b6000613eeb6020836145ee565b9150613ef682614d13565b602082019050919050565b6000613f0e602c836145ee565b9150613f1982614d3c565b604082019050919050565b6000613f316020836145ee565b9150613f3c82614d8b565b602082019050919050565b6000613f546029836145ee565b9150613f5f82614db4565b604082019050919050565b6000613f77602f836145ee565b9150613f8282614e03565b604082019050919050565b6000613f9a6021836145ee565b9150613fa582614e52565b604082019050919050565b6000613fbd6000836145e3565b9150613fc882614ea1565b600082019050919050565b6000613fe06012836145ee565b9150613feb82614ea4565b602082019050919050565b60006140036031836145ee565b915061400e82614ecd565b604082019050919050565b6000614026602c836145ee565b915061403182614f1c565b604082019050919050565b60006140496017836145ee565b915061405482614f6b565b602082019050919050565b600061406c601b836145ee565b915061407782614f94565b602082019050919050565b61408b81614789565b82525050565b61409a81614789565b82525050565b60006140ac8286613c44565b91506140b88285613c44565b91506140c48284613c75565b9150819050949350505050565b60006140dc82613fb0565b9150819050919050565b60006020820190506140fb6000830184613b56565b92915050565b60006080820190506141166000830187613b56565b6141236020830186613b56565b6141306040830185614091565b81810360608301526141428184613bd2565b905095945050505050565b600060208201905081810360008301526141678184613b65565b905092915050565b60006020820190506141846000830184613bc3565b92915050565b600060208201905081810360008301526141a48184613c0b565b905092915050565b600060208201905081810360008301526141c581613cf4565b9050919050565b600060208201905081810360008301526141e581613d17565b9050919050565b6000602082019050818103600083015261420581613d3a565b9050919050565b6000602082019050818103600083015261422581613d5d565b9050919050565b6000602082019050818103600083015261424581613d80565b9050919050565b6000602082019050818103600083015261426581613da3565b9050919050565b6000602082019050818103600083015261428581613dc6565b9050919050565b600060208201905081810360008301526142a581613de9565b9050919050565b600060208201905081810360008301526142c581613e0c565b9050919050565b600060208201905081810360008301526142e581613e2f565b9050919050565b6000602082019050818103600083015261430581613e52565b9050919050565b6000602082019050818103600083015261432581613e75565b9050919050565b6000602082019050818103600083015261434581613e98565b9050919050565b6000602082019050818103600083015261436581613ebb565b9050919050565b6000602082019050818103600083015261438581613ede565b9050919050565b600060208201905081810360008301526143a581613f01565b9050919050565b600060208201905081810360008301526143c581613f24565b9050919050565b600060208201905081810360008301526143e581613f47565b9050919050565b6000602082019050818103600083015261440581613f6a565b9050919050565b6000602082019050818103600083015261442581613f8d565b9050919050565b6000602082019050818103600083015261444581613fd3565b9050919050565b6000602082019050818103600083015261446581613ff6565b9050919050565b6000602082019050818103600083015261448581614019565b9050919050565b600060208201905081810360008301526144a58161403c565b9050919050565b600060208201905081810360008301526144c58161405f565b9050919050565b60006020820190506144e16000830184614091565b92915050565b60006144f1614502565b90506144fd8282614807565b919050565b6000604051905090565b600067ffffffffffffffff8211156145275761452661493f565b5b6145308261496e565b9050602081019050919050565b600067ffffffffffffffff8211156145585761455761493f565b5b6145618261496e565b9050602081019050919050565b6000819050602082019050919050565b60008190508160005260206000209050919050565b600081519050919050565b600081519050919050565b600081519050919050565b6000602082019050919050565b600082825260208201905092915050565b600082825260208201905092915050565b600081905092915050565b600082825260208201905092915050565b600081905092915050565b600061461582614789565b915061462083614789565b9250827fffffffffffffffffffffffffffffffffffffffffffffffffffffffffffffffff03821115614655576146546148b2565b5b828201905092915050565b600061466b82614789565b915061467683614789565b925082614686576146856148e1565b5b828204905092915050565b600061469c82614789565b91506146a783614789565b9250817fffffffffffffffffffffffffffffffffffffffffffffffffffffffffffffffff04831182151516156146e0576146df6148b2565b5b828202905092915050565b60006146f682614789565b915061470183614789565b925082821015614714576147136148b2565b5b828203905092915050565b600061472a82614769565b9050919050565b60008115159050919050565b60007fffffffff0000000000000000000000000000000000000000000000000000000082169050919050565b600073ffffffffffffffffffffffffffffffffffffffff82169050919050565b6000819050919050565b82818337600083830152505050565b60005b838110156147c05780820151818401526020810190506147a5565b838111156147cf576000848401525b50505050565b600060028204905060018216806147ed57607f821691505b6020821081141561480157614800614910565b5b50919050565b6148108261496e565b810181811067ffffffffffffffff8211171561482f5761482e61493f565b5b80604052505050565b600061484382614789565b91507fffffffffffffffffffffffffffffffffffffffffffffffffffffffffffffffff821415614876576148756148b2565b5b600182019050919050565b600061488c82614789565b915061489783614789565b9250826148a7576148a66148e1565b5b828206905092915050565b7f4e487b7100000000000000000000000000000000000000000000000000000000600052601160045260246000fd5b7f4e487b7100000000000000000000000000000000000000000000000000000000600052601260045260246000fd5b7f4e487b7100000000000000000000000000000000000000000000000000000000600052602260045260246000fd5b7f4e487b7100000000000000000000000000000000000000000000000000000000600052604160045260246000fd5b6000601f19601f8301169050919050565b7f4f757220636f6e74726163742069732070617573656400000000000000000000600082015250565b7f455243373231456e756d657261626c653a206f776e657220696e646578206f7560008201527f74206f6620626f756e6473000000000000000000000000000000000000000000602082015250565b7f4552433732313a207472616e7366657220746f206e6f6e20455243373231526560008201527f63656976657220696d706c656d656e7465720000000000000000000000000000602082015250565b7f4f776e61626c653a206e6577206f776e657220697320746865207a65726f206160008201527f6464726573730000000000000000000000000000000000000000000000000000602082015250565b7f4552433732313a20746f6b656e20616c7265616479206d696e74656400000000600082015250565b7f6d6178204e465420706572206164647265737320657863656564656400000000600082015250565b7f4552433732313a207472616e7366657220746f20746865207a65726f2061646460008201527f7265737300000000000000000000000000000000000000000000000000000000602082015250565b7f4552433732313a20617070726f766520746f2063616c6c657200000000000000600082015250565b7f4552433732313a206f70657261746f7220717565727920666f72206e6f6e657860008201527f697374656e7420746f6b656e0000000000000000000000000000000000000000602082015250565b7f4552433732313a20617070726f76652063616c6c6572206973206e6f74206f7760008201527f6e6572206e6f7220617070726f76656420666f7220616c6c0000000000000000602082015250565b7f4552433732313a2062616c616e636520717565727920666f7220746865207a6560008201527f726f206164647265737300000000000000000000000000000000000000000000602082015250565b7f4552433732313a206f776e657220717565727920666f72206e6f6e657869737460008201527f656e7420746f6b656e0000000000000000000000000000000000000000000000602082015250565b7f6d6178204e4654206c696d697420657863656564656400000000000000000000600082015250565b7f6d6178206d696e7420616d6f756e74207065722073657373696f6e206578636560008201527f6564656400000000000000000000000000000000000000000000000000000000602082015250565b7f4552433732313a206d696e7420746f20746865207a65726f2061646472657373600082015250565b7f4552433732313a20617070726f76656420717565727920666f72206e6f6e657860008201527f697374656e7420746f6b656e0000000000000000000000000000000000000000602082015250565b7f4f776e61626c653a2063616c6c6572206973206e6f7420746865206f776e6572600082015250565b7f4552433732313a207472616e73666572206f6620746f6b656e2074686174206960008201527f73206e6f74206f776e0000000000000000000000000000000000000000000000602082015250565b7f4552433732314d657461646174613a2055524920717565727920666f72206e6f60008201527f6e6578697374656e7420746f6b656e0000000000000000000000000000000000602082015250565b7f4552433732313a20617070726f76616c20746f2063757272656e74206f776e6560008201527f7200000000000000000000000000000000000000000000000000000000000000602082015250565b50565b7f696e73756666696369656e742066756e64730000000000000000000000000000600082015250565b7f4552433732313a207472616e736665722063616c6c6572206973206e6f74206f60008201527f776e6572206e6f7220617070726f766564000000000000000000000000000000602082015250565b7f455243373231456e756d657261626c653a20676c6f62616c20696e646578206f60008201527f7574206f6620626f756e64730000000000000000000000000000000000000000602082015250565b7f75736572206973206e6f742077686974656c6973746564000000000000000000600082015250565b7f6e65656420746f206d696e74206174206c656173742031204e46540000000000600082015250565b614fc68161471f565b8114614fd157600080fd5b50565b614fdd81614731565b8114614fe857600080fd5b50565b614ff48161473d565b8114614fff57600080fd5b50565b61500b81614789565b811461501657600080fd5b5056fea26469706673582212200884e8f2f53ad48aac560d631b1c76182af41f6750694484dcd3a7a99ba1f19564736f6c63430008040033697066733a2f2f516d54464b74797834435246433558587231474d593543395054466a684d5652574b6f52653474546e53623732392f68696464656e2e6a736f6e",
  "linkReferences": {},
  "deployedLinkReferences": {}
}