{
  "contracts/MyNFT.sol": {
    "FloatingCats": {
      "abi": [
        {
          "inputs": [],
          "stateMutability": "nonpayable",
          "type": "constructor"
        },
        {
          "anonymous": false,
          "inputs": [
            {
              "indexed": true,
              "internalType": "address",
              "name": "owner",
              "type": "address"
            },
            {
              "indexed": true,
              "internalType": "address",
              "name": "approved",
              "type": "address"
            },
            {
              "indexed": true,
              "internalType": "uint256",
              "name": "tokenId",
              "type": "uint256"
            }
          ],
          "name": "Approval",
          "type": "event"
        },
        {
          "anonymous": false,
          "inputs": [
            {
              "indexed": true,
              "internalType": "address",
              "name": "owner",
              "type": "address"
            },
            {
              "indexed": true,
              "internalType": "address",
              "name": "operator",
              "type": "address"
            },
            {
              "indexed": false,
              "internalType": "bool",
              "name": "approved",
              "type": "bool"
            }
          ],
          "name": "ApprovalForAll",
          "type": "event"
        },
        {
          "anonymous": false,
          "inputs": [
            {
              "indexed": true,
              "internalType": "address",
              "name": "previousOwner",
              "type": "address"
            },
            {
              "indexed": true,
              "internalType": "address",
              "name": "newOwner",
              "type": "address"
            }
          ],
          "name": "OwnershipTransferred",
          "type": "event"
        },
        {
          "anonymous": false,
          "inputs": [
            {
              "indexed": true,
              "internalType": "address",
              "name": "from",
              "type": "address"
            },
            {
              "indexed": true,
              "internalType": "address",
              "name": "to",
              "type": "address"
            },
            {
              "indexed": true,
              "internalType": "uint256",
              "name": "tokenId",
              "type": "uint256"
            }
          ],
          "name": "Transfer",
          "type": "event"
        },
        {
          "inputs": [
            {
              "internalType": "address",
              "name": "to",
              "type": "address"
            },
            {
              "internalType": "uint256",
              "name": "tokenId",
              "type": "uint256"
            }
          ],
          "name": "approve",
          "outputs": [],
          "stateMutability": "nonpayable",
          "type": "function"
        },
        {
          "inputs": [
            {
              "internalType": "address",
              "name": "owner",
              "type": "address"
            }
          ],
          "name": "balanceOf",
          "outputs": [
            {
              "internalType": "uint256",
              "name": "",
              "type": "uint256"
            }
          ],
          "stateMutability": "view",
          "type": "function"
        },
        {
          "inputs": [],
          "name": "count",
          "outputs": [
            {
              "internalType": "uint256",
              "name": "",
              "type": "uint256"
            }
          ],
          "stateMutability": "view",
          "type": "function"
        },
        {
          "inputs": [
            {
              "internalType": "uint256",
              "name": "tokenId",
              "type": "uint256"
            }
          ],
          "name": "getApproved",
          "outputs": [
            {
              "internalType": "address",
              "name": "",
              "type": "address"
            }
          ],
          "stateMutability": "view",
          "type": "function"
        },
        {
          "inputs": [
            {
              "internalType": "address",
              "name": "owner",
              "type": "address"
            },
            {
              "internalType": "address",
              "name": "operator",
              "type": "address"
            }
          ],
          "name": "isApprovedForAll",
          "outputs": [
            {
              "internalType": "bool",
              "name": "",
              "type": "bool"
            }
          ],
          "stateMutability": "view",
          "type": "function"
        },
        {
          "inputs": [
            {
              "internalType": "string",
              "name": "uri",
              "type": "string"
            }
          ],
          "name": "isContentOwned",
          "outputs": [
            {
              "internalType": "bool",
              "name": "",
              "type": "bool"
            }
          ],
          "stateMutability": "view",
          "type": "function"
        },
        {
          "inputs": [],
          "name": "name",
          "outputs": [
            {
              "internalType": "string",
              "name": "",
              "type": "string"
            }
          ],
          "stateMutability": "view",
          "type": "function"
        },
        {
          "inputs": [],
          "name": "owner",
          "outputs": [
            {
              "internalType": "address",
              "name": "",
              "type": "address"
            }
          ],
          "stateMutability": "view",
          "type": "function"
        },
        {
          "inputs": [
            {
              "internalType": "uint256",
              "name": "tokenId",
              "type": "uint256"
            }
          ],
          "name": "ownerOf",
          "outputs": [
            {
              "internalType": "address",
              "name": "",
              "type": "address"
            }
          ],
          "stateMutability": "view",
          "type": "function"
        },
        {
          "inputs": [
            {
              "internalType": "address",
              "name": "recipient",
              "type": "address"
            },
            {
              "internalType": "string",
              "name": "metadataURI",
              "type": "string"
            }
          ],
          "name": "payToMint",
          "outputs": [
            {
              "internalType": "uint256",
              "name": "",
              "type": "uint256"
            }
          ],
          "stateMutability": "payable",
          "type": "function"
        },
        {
          "inputs": [],
          "name": "renounceOwnership",
          "outputs": [],
          "stateMutability": "nonpayable",
          "type": "function"
        },
        {
          "inputs": [
            {
              "internalType": "address",
              "name": "to",
              "type": "address"
            },
            {
              "internalType": "string",
              "name": "uri",
              "type": "string"
            }
          ],
          "name": "safeMint",
          "outputs": [],
          "stateMutability": "nonpayable",
          "type": "function"
        },
        {
          "inputs": [
            {
              "internalType": "address",
              "name": "from",
              "type": "address"
            },
            {
              "internalType": "address",
              "name": "to",
              "type": "address"
            },
            {
              "internalType": "uint256",
              "name": "tokenId",
              "type": "uint256"
            }
          ],
          "name": "safeTransferFrom",
          "outputs": [],
          "stateMutability": "nonpayable",
          "type": "function"
        },
        {
          "inputs": [
            {
              "internalType": "address",
              "name": "from",
              "type": "address"
            },
            {
              "internalType": "address",
              "name": "to",
              "type": "address"
            },
            {
              "internalType": "uint256",
              "name": "tokenId",
              "type": "uint256"
            },
            {
              "internalType": "bytes",
              "name": "_data",
              "type": "bytes"
            }
          ],
          "name": "safeTransferFrom",
          "outputs": [],
          "stateMutability": "nonpayable",
          "type": "function"
        },
        {
          "inputs": [
            {
              "internalType": "address",
              "name": "operator",
              "type": "address"
            },
            {
              "internalType": "bool",
              "name": "approved",
              "type": "bool"
            }
          ],
          "name": "setApprovalForAll",
          "outputs": [],
          "stateMutability": "nonpayable",
          "type": "function"
        },
        {
          "inputs": [
            {
              "internalType": "bytes4",
              "name": "interfaceId",
              "type": "bytes4"
            }
          ],
          "name": "supportsInterface",
          "outputs": [
            {
              "internalType": "bool",
              "name": "",
              "type": "bool"
            }
          ],
          "stateMutability": "view",
          "type": "function"
        },
        {
          "inputs": [],
          "name": "symbol",
          "outputs": [
            {
              "internalType": "string",
              "name": "",
              "type": "string"
            }
          ],
          "stateMutability": "view",
          "type": "function"
        },
        {
          "inputs": [
            {
              "internalType": "uint256",
              "name": "tokenId",
              "type": "uint256"
            }
          ],
          "name": "tokenURI",
          "outputs": [
            {
              "internalType": "string",
              "name": "",
              "type": "string"
            }
          ],
          "stateMutability": "view",
          "type": "function"
        },
        {
          "inputs": [
            {
              "internalType": "address",
              "name": "from",
              "type": "address"
            },
            {
              "internalType": "address",
              "name": "to",
              "type": "address"
            },
            {
              "internalType": "uint256",
              "name": "tokenId",
              "type": "uint256"
            }
          ],
          "name": "transferFrom",
          "outputs": [],
          "stateMutability": "nonpayable",
          "type": "function"
        },
        {
          "inputs": [
            {
              "internalType": "address",
              "name": "newOwner",
              "type": "address"
            }
          ],
          "name": "transferOwnership",
          "outputs": [],
          "stateMutability": "nonpayable",
          "type": "function"
        }
      ],
      "evm": {
        "bytecode": {
          "linkReferences": {},
          "object": "60806040523480156200001157600080fd5b506040518060400160405280600d81526020017f466c6f6174696e672d43617473000000000000000000000000000000000000008152506040518060400160405280600481526020017f4643415400000000000000000000000000000000000000000000000000000000815250816000908051906020019062000096929190620001a6565b508060019080519060200190620000af929190620001a6565b505050620000d2620000c6620000d860201b60201c565b620000e060201b60201c565b620002bb565b600033905090565b6000600760009054906101000a900473ffffffffffffffffffffffffffffffffffffffff16905081600760006101000a81548173ffffffffffffffffffffffffffffffffffffffff021916908373ffffffffffffffffffffffffffffffffffffffff1602179055508173ffffffffffffffffffffffffffffffffffffffff168173ffffffffffffffffffffffffffffffffffffffff167f8be0079c531659141344cd1fd0a4f28419497f9722a3daafe3b4186f6b6457e060405160405180910390a35050565b828054620001b49062000256565b90600052602060002090601f016020900481019282620001d8576000855562000224565b82601f10620001f357805160ff191683800117855562000224565b8280016001018555821562000224579182015b828111156200022357825182559160200191906001019062000206565b5b50905062000233919062000237565b5090565b5b808211156200025257600081600090555060010162000238565b5090565b600060028204905060018216806200026f57607f821691505b602082108114156200028657620002856200028c565b5b50919050565b7f4e487b7100000000000000000000000000000000000000000000000000000000600052602260045260246000fd5b61349680620002cb6000396000f3fe60806040526004361061011f5760003560e01c8063715018a6116100a0578063b88d4fde11610064578063b88d4fde146103ec578063c87b56dd14610415578063d204c45e14610452578063e985e9c51461047b578063f2fde38b146104b85761011f565b8063715018a6146103195780638da5cb5b1461033057806395d89b411461035b5780639f1cabc614610386578063a22cb465146103c35761011f565b806323b872dd116100e757806323b872dd1461021d57806342842e0e14610246578063615fd9e21461026f5780636352211e1461029f57806370a08231146102dc5761011f565b806301ffc9a71461012457806306661abd1461016157806306fdde031461018c578063081812fc146101b7578063095ea7b3146101f4575b600080fd5b34801561013057600080fd5b5061014b60048036038101906101469190612315565b6104e1565b60405161015891906127ff565b60405180910390f35b34801561016d57600080fd5b506101766105c3565b6040516101839190612abc565b60405180910390f35b34801561019857600080fd5b506101a16105d4565b6040516101ae919061281a565b60405180910390f35b3480156101c357600080fd5b506101de60048036038101906101d991906123a8565b610666565b6040516101eb9190612798565b60405180910390f35b34801561020057600080fd5b5061021b600480360381019061021691906122d9565b6106eb565b005b34801561022957600080fd5b50610244600480360381019061023f919061217f565b610803565b005b34801561025257600080fd5b5061026d6004803603810190610268919061217f565b610863565b005b61028960048036038101906102849190612285565b610883565b6040516102969190612abc565b60405180910390f35b3480156102ab57600080fd5b506102c660048036038101906102c191906123a8565b6109af565b6040516102d39190612798565b60405180910390f35b3480156102e857600080fd5b5061030360048036038101906102fe919061211a565b610a61565b6040516103109190612abc565b60405180910390f35b34801561032557600080fd5b5061032e610b19565b005b34801561033c57600080fd5b50610345610ba1565b6040516103529190612798565b60405180910390f35b34801561036757600080fd5b50610370610bcb565b60405161037d919061281a565b60405180910390f35b34801561039257600080fd5b506103ad60048036038101906103a89190612367565b610c5d565b6040516103ba91906127ff565b60405180910390f35b3480156103cf57600080fd5b506103ea60048036038101906103e59190612249565b610c98565b005b3480156103f857600080fd5b50610413600480360381019061040e91906121ce565b610cae565b005b34801561042157600080fd5b5061043c600480360381019061043791906123a8565b610d10565b604051610449919061281a565b60405180910390f35b34801561045e57600080fd5b5061047960048036038101906104749190612285565b610d22565b005b34801561048757600080fd5b506104a2600480360381019061049d9190612143565b610e07565b6040516104af91906127ff565b60405180910390f35b3480156104c457600080fd5b506104df60048036038101906104da919061211a565b610e9b565b005b60007f80ac58cd000000000000000000000000000000000000000000000000000000007bffffffffffffffffffffffffffffffffffffffffffffffffffffffff1916827bffffffffffffffffffffffffffffffffffffffffffffffffffffffff191614806105ac57507f5b5e139f000000000000000000000000000000000000000000000000000000007bffffffffffffffffffffffffffffffffffffffffffffffffffffffff1916827bffffffffffffffffffffffffffffffffffffffffffffffffffffffff1916145b806105bc57506105bb82610f93565b5b9050919050565b60006105cf6008610ffd565b905090565b6060600080546105e390612d12565b80601f016020809104026020016040519081016040528092919081815260200182805461060f90612d12565b801561065c5780601f106106315761010080835404028352916020019161065c565b820191906000526020600020905b81548152906001019060200180831161063f57829003601f168201915b5050505050905090565b60006106718261100b565b6106b0576040517f08c379a00000000000000000000000000000000000000000000000000000000081526004016106a7906129bc565b60405180910390fd5b6004600083815260200190815260200160002060009054906101000a900473ffffffffffffffffffffffffffffffffffffffff169050919050565b60006106f6826109af565b90508073ffffffffffffffffffffffffffffffffffffffff168373ffffffffffffffffffffffffffffffffffffffff161415610767576040517f08c379a000000000000000000000000000000000000000000000000000000000815260040161075e90612a3c565b60405180910390fd5b8073ffffffffffffffffffffffffffffffffffffffff16610786611077565b73ffffffffffffffffffffffffffffffffffffffff1614806107b557506107b4816107af611077565b610e07565b5b6107f4576040517f08c379a00000000000000000000000000000000000000000000000000000000081526004016107eb906128fc565b60405180910390fd5b6107fe838361107f565b505050565b61081461080e611077565b82611138565b610853576040517f08c379a000000000000000000000000000000000000000000000000000000000815260040161084a90612a5c565b60405180910390fd5b61085e838383611216565b505050565b61087e83838360405180602001604052806000815250610cae565b505050565b60006001600983604051610897919061275d565b908152602001604051809103902060009054906101000a900460ff1660ff1614156108f7576040517f08c379a00000000000000000000000000000000000000000000000000000000081526004016108ee90612a7c565b60405180910390fd5b66b1a2bc2ec50000341015610941576040517f08c379a000000000000000000000000000000000000000000000000000000000815260040161093890612a9c565b60405180910390fd5b600061094d6008610ffd565b90506109596008611472565b600160098460405161096b919061275d565b908152602001604051809103902060006101000a81548160ff021916908360ff16021790555061099b8482611488565b6109a58184611656565b8091505092915050565b6000806002600084815260200190815260200160002060009054906101000a900473ffffffffffffffffffffffffffffffffffffffff169050600073ffffffffffffffffffffffffffffffffffffffff168173ffffffffffffffffffffffffffffffffffffffff161415610a58576040517f08c379a0000000000000000000000000000000000000000000000000000000008152600401610a4f9061293c565b60405180910390fd5b80915050919050565b60008073ffffffffffffffffffffffffffffffffffffffff168273ffffffffffffffffffffffffffffffffffffffff161415610ad2576040517f08c379a0000000000000000000000000000000000000000000000000000000008152600401610ac99061291c565b60405180910390fd5b600360008373ffffffffffffffffffffffffffffffffffffffff1673ffffffffffffffffffffffffffffffffffffffff168152602001908152602001600020549050919050565b610b21611077565b73ffffffffffffffffffffffffffffffffffffffff16610b3f610ba1565b73ffffffffffffffffffffffffffffffffffffffff1614610b95576040517f08c379a0000000000000000000000000000000000000000000000000000000008152600401610b8c906129dc565b60405180910390fd5b610b9f60006116ca565b565b6000600760009054906101000a900473ffffffffffffffffffffffffffffffffffffffff16905090565b606060018054610bda90612d12565b80601f0160208091040260200160405190810160405280929190818152602001828054610c0690612d12565b8015610c535780601f10610c2857610100808354040283529160200191610c53565b820191906000526020600020905b815481529060010190602001808311610c3657829003601f168201915b5050505050905090565b60006001600983604051610c71919061275d565b908152602001604051809103902060009054906101000a900460ff1660ff16149050919050565b610caa610ca3611077565b8383611790565b5050565b610cbf610cb9611077565b83611138565b610cfe576040517f08c379a0000000000000000000000000000000000000000000000000000000008152600401610cf590612a5c565b60405180910390fd5b610d0a848484846118fd565b50505050565b6060610d1b82611959565b9050919050565b610d2a611077565b73ffffffffffffffffffffffffffffffffffffffff16610d48610ba1565b73ffffffffffffffffffffffffffffffffffffffff1614610d9e576040517f08c379a0000000000000000000000000000000000000000000000000000000008152600401610d95906129dc565b60405180910390fd5b6000610daa6008610ffd565b9050610db66008611472565b610dc08382611aab565b610dca8183611656565b6001600983604051610ddc919061275d565b908152602001604051809103902060006101000a81548160ff021916908360ff160217905550505050565b6000600560008473ffffffffffffffffffffffffffffffffffffffff1673ffffffffffffffffffffffffffffffffffffffff16815260200190815260200160002060008373ffffffffffffffffffffffffffffffffffffffff1673ffffffffffffffffffffffffffffffffffffffff16815260200190815260200160002060009054906101000a900460ff16905092915050565b610ea3611077565b73ffffffffffffffffffffffffffffffffffffffff16610ec1610ba1565b73ffffffffffffffffffffffffffffffffffffffff1614610f17576040517f08c379a0000000000000000000000000000000000000000000000000000000008152600401610f0e906129dc565b60405180910390fd5b600073ffffffffffffffffffffffffffffffffffffffff168173ffffffffffffffffffffffffffffffffffffffff161415610f87576040517f08c379a0000000000000000000000000000000000000000000000000000000008152600401610f7e9061285c565b60405180910390fd5b610f90816116ca565b50565b60007f01ffc9a7000000000000000000000000000000000000000000000000000000007bffffffffffffffffffffffffffffffffffffffffffffffffffffffff1916827bffffffffffffffffffffffffffffffffffffffffffffffffffffffff1916149050919050565b600081600001549050919050565b60008073ffffffffffffffffffffffffffffffffffffffff166002600084815260200190815260200160002060009054906101000a900473ffffffffffffffffffffffffffffffffffffffff1673ffffffffffffffffffffffffffffffffffffffff1614159050919050565b600033905090565b816004600083815260200190815260200160002060006101000a81548173ffffffffffffffffffffffffffffffffffffffff021916908373ffffffffffffffffffffffffffffffffffffffff160217905550808273ffffffffffffffffffffffffffffffffffffffff166110f2836109af565b73ffffffffffffffffffffffffffffffffffffffff167f8c5be1e5ebec7d5bd14f71427d1e84f3dd0314c0f7b2291e5b200ac8c7c3b92560405160405180910390a45050565b60006111438261100b565b611182576040517f08c379a0000000000000000000000000000000000000000000000000000000008152600401611179906128dc565b60405180910390fd5b600061118d836109af565b90508073ffffffffffffffffffffffffffffffffffffffff168473ffffffffffffffffffffffffffffffffffffffff1614806111fc57508373ffffffffffffffffffffffffffffffffffffffff166111e484610666565b73ffffffffffffffffffffffffffffffffffffffff16145b8061120d575061120c8185610e07565b5b91505092915050565b8273ffffffffffffffffffffffffffffffffffffffff16611236826109af565b73ffffffffffffffffffffffffffffffffffffffff161461128c576040517f08c379a0000000000000000000000000000000000000000000000000000000008152600401611283906129fc565b60405180910390fd5b600073ffffffffffffffffffffffffffffffffffffffff168273ffffffffffffffffffffffffffffffffffffffff1614156112fc576040517f08c379a00000000000000000000000000000000000000000000000000000000081526004016112f39061289c565b60405180910390fd5b611307838383611ac9565b61131260008261107f565b6001600360008573ffffffffffffffffffffffffffffffffffffffff1673ffffffffffffffffffffffffffffffffffffffff16815260200190815260200160002060008282546113629190612c28565b925050819055506001600360008473ffffffffffffffffffffffffffffffffffffffff1673ffffffffffffffffffffffffffffffffffffffff16815260200190815260200160002060008282546113b99190612ba1565b92505081905550816002600083815260200190815260200160002060006101000a81548173ffffffffffffffffffffffffffffffffffffffff021916908373ffffffffffffffffffffffffffffffffffffffff160217905550808273ffffffffffffffffffffffffffffffffffffffff168473ffffffffffffffffffffffffffffffffffffffff167fddf252ad1be2c89b69c2b068fc378daa952ba7f163c4a11628f55a4df523b3ef60405160405180910390a4505050565b6001816000016000828254019250508190555050565b600073ffffffffffffffffffffffffffffffffffffffff168273ffffffffffffffffffffffffffffffffffffffff1614156114f8576040517f08c379a00000000000000000000000000000000000000000000000000000000081526004016114ef9061297c565b60405180910390fd5b6115018161100b565b15611541576040517f08c379a00000000000000000000000000000000000000000000000000000000081526004016115389061287c565b60405180910390fd5b61154d60008383611ac9565b6001600360008473ffffffffffffffffffffffffffffffffffffffff1673ffffffffffffffffffffffffffffffffffffffff168152602001908152602001600020600082825461159d9190612ba1565b92505081905550816002600083815260200190815260200160002060006101000a81548173ffffffffffffffffffffffffffffffffffffffff021916908373ffffffffffffffffffffffffffffffffffffffff160217905550808273ffffffffffffffffffffffffffffffffffffffff16600073ffffffffffffffffffffffffffffffffffffffff167fddf252ad1be2c89b69c2b068fc378daa952ba7f163c4a11628f55a4df523b3ef60405160405180910390a45050565b61165f8261100b565b61169e576040517f08c379a00000000000000000000000000000000000000000000000000000000081526004016116959061295c565b60405180910390fd5b806006600084815260200190815260200160002090805190602001906116c5929190611f3e565b505050565b6000600760009054906101000a900473ffffffffffffffffffffffffffffffffffffffff16905081600760006101000a81548173ffffffffffffffffffffffffffffffffffffffff021916908373ffffffffffffffffffffffffffffffffffffffff1602179055508173ffffffffffffffffffffffffffffffffffffffff168173ffffffffffffffffffffffffffffffffffffffff167f8be0079c531659141344cd1fd0a4f28419497f9722a3daafe3b4186f6b6457e060405160405180910390a35050565b8173ffffffffffffffffffffffffffffffffffffffff168373ffffffffffffffffffffffffffffffffffffffff1614156117ff576040517f08c379a00000000000000000000000000000000000000000000000000000000081526004016117f6906128bc565b60405180910390fd5b80600560008573ffffffffffffffffffffffffffffffffffffffff1673ffffffffffffffffffffffffffffffffffffffff16815260200190815260200160002060008473ffffffffffffffffffffffffffffffffffffffff1673ffffffffffffffffffffffffffffffffffffffff16815260200190815260200160002060006101000a81548160ff0219169083151502179055508173ffffffffffffffffffffffffffffffffffffffff168373ffffffffffffffffffffffffffffffffffffffff167f17307eab39ab6107e8899845ad3d59bd9653f200f220920489ca2b5937696c31836040516118f091906127ff565b60405180910390a3505050565b611908848484611216565b61191484848484611ace565b611953576040517f08c379a000000000000000000000000000000000000000000000000000000000815260040161194a9061283c565b60405180910390fd5b50505050565b60606119648261100b565b6119a3576040517f08c379a000000000000000000000000000000000000000000000000000000000815260040161199a9061299c565b60405180910390fd5b60006006600084815260200190815260200160002080546119c390612d12565b80601f01602080910402602001604051908101604052809291908181526020018280546119ef90612d12565b8015611a3c5780601f10611a1157610100808354040283529160200191611a3c565b820191906000526020600020905b815481529060010190602001808311611a1f57829003601f168201915b505050505090506000611a4d611c65565b9050600081511415611a63578192505050611aa6565b600082511115611a98578082604051602001611a80929190612774565b60405160208183030381529060405292505050611aa6565b611aa184611c7c565b925050505b919050565b611ac5828260405180602001604052806000815250611d23565b5050565b505050565b6000611aef8473ffffffffffffffffffffffffffffffffffffffff16611d7e565b15611c58578373ffffffffffffffffffffffffffffffffffffffff1663150b7a02611b18611077565b8786866040518563ffffffff1660e01b8152600401611b3a94939291906127b3565b602060405180830381600087803b158015611b5457600080fd5b505af1925050508015611b8557506040513d601f19601f82011682018060405250810190611b82919061233e565b60015b611c08573d8060008114611bb5576040519150601f19603f3d011682016040523d82523d6000602084013e611bba565b606091505b50600081511415611c00576040517f08c379a0000000000000000000000000000000000000000000000000000000008152600401611bf79061283c565b60405180910390fd5b805181602001fd5b63150b7a0260e01b7bffffffffffffffffffffffffffffffffffffffffffffffffffffffff1916817bffffffffffffffffffffffffffffffffffffffffffffffffffffffff191614915050611c5d565b600190505b949350505050565b606060405180602001604052806000815250905090565b6060611c878261100b565b611cc6576040517f08c379a0000000000000000000000000000000000000000000000000000000008152600401611cbd90612a1c565b60405180910390fd5b6000611cd0611c65565b90506000815111611cf05760405180602001604052806000815250611d1b565b80611cfa84611d91565b604051602001611d0b929190612774565b6040516020818303038152906040525b915050919050565b611d2d8383611488565b611d3a6000848484611ace565b611d79576040517f08c379a0000000000000000000000000000000000000000000000000000000008152600401611d709061283c565b60405180910390fd5b505050565b600080823b905060008111915050919050565b60606000821415611dd9576040518060400160405280600181526020017f30000000000000000000000000000000000000000000000000000000000000008152509050611f39565b600082905060005b60008214611e0b578080611df490612d75565b915050600a82611e049190612bf7565b9150611de1565b60008167ffffffffffffffff811115611e4d577f4e487b7100000000000000000000000000000000000000000000000000000000600052604160045260246000fd5b6040519080825280601f01601f191660200182016040528015611e7f5781602001600182028036833780820191505090505b5090505b60008514611f3257600182611e989190612c28565b9150600a85611ea79190612dbe565b6030611eb39190612ba1565b60f81b818381518110611eef577f4e487b7100000000000000000000000000000000000000000000000000000000600052603260045260246000fd5b60200101907effffffffffffffffffffffffffffffffffffffffffffffffffffffffffffff1916908160001a905350600a85611f2b9190612bf7565b9450611e83565b8093505050505b919050565b828054611f4a90612d12565b90600052602060002090601f016020900481019282611f6c5760008555611fb3565b82601f10611f8557805160ff1916838001178555611fb3565b82800160010185558215611fb3579182015b82811115611fb2578251825591602001919060010190611f97565b5b509050611fc09190611fc4565b5090565b5b80821115611fdd576000816000905550600101611fc5565b5090565b6000611ff4611fef84612afc565b612ad7565b90508281526020810184848401111561200c57600080fd5b612017848285612cd0565b509392505050565b600061203261202d84612b2d565b612ad7565b90508281526020810184848401111561204a57600080fd5b612055848285612cd0565b509392505050565b60008135905061206c81613404565b92915050565b6000813590506120818161341b565b92915050565b60008135905061209681613432565b92915050565b6000815190506120ab81613432565b92915050565b600082601f8301126120c257600080fd5b81356120d2848260208601611fe1565b91505092915050565b600082601f8301126120ec57600080fd5b81356120fc84826020860161201f565b91505092915050565b60008135905061211481613449565b92915050565b60006020828403121561212c57600080fd5b600061213a8482850161205d565b91505092915050565b6000806040838503121561215657600080fd5b60006121648582860161205d565b92505060206121758582860161205d565b9150509250929050565b60008060006060848603121561219457600080fd5b60006121a28682870161205d565b93505060206121b38682870161205d565b92505060406121c486828701612105565b9150509250925092565b600080600080608085870312156121e457600080fd5b60006121f28782880161205d565b94505060206122038782880161205d565b935050604061221487828801612105565b925050606085013567ffffffffffffffff81111561223157600080fd5b61223d878288016120b1565b91505092959194509250565b6000806040838503121561225c57600080fd5b600061226a8582860161205d565b925050602061227b85828601612072565b9150509250929050565b6000806040838503121561229857600080fd5b60006122a68582860161205d565b925050602083013567ffffffffffffffff8111156122c357600080fd5b6122cf858286016120db565b9150509250929050565b600080604083850312156122ec57600080fd5b60006122fa8582860161205d565b925050602061230b85828601612105565b9150509250929050565b60006020828403121561232757600080fd5b600061233584828501612087565b91505092915050565b60006020828403121561235057600080fd5b600061235e8482850161209c565b91505092915050565b60006020828403121561237957600080fd5b600082013567ffffffffffffffff81111561239357600080fd5b61239f848285016120db565b91505092915050565b6000602082840312156123ba57600080fd5b60006123c884828501612105565b91505092915050565b6123da81612c5c565b82525050565b6123e981612c6e565b82525050565b60006123fa82612b5e565b6124048185612b74565b9350612414818560208601612cdf565b61241d81612eab565b840191505092915050565b600061243382612b69565b61243d8185612b85565b935061244d818560208601612cdf565b61245681612eab565b840191505092915050565b600061246c82612b69565b6124768185612b96565b9350612486818560208601612cdf565b80840191505092915050565b600061249f603283612b85565b91506124aa82612ebc565b604082019050919050565b60006124c2602683612b85565b91506124cd82612f0b565b604082019050919050565b60006124e5601c83612b85565b91506124f082612f5a565b602082019050919050565b6000612508602483612b85565b915061251382612f83565b604082019050919050565b600061252b601983612b85565b915061253682612fd2565b602082019050919050565b600061254e602c83612b85565b915061255982612ffb565b604082019050919050565b6000612571603883612b85565b915061257c8261304a565b604082019050919050565b6000612594602a83612b85565b915061259f82613099565b604082019050919050565b60006125b7602983612b85565b91506125c2826130e8565b604082019050919050565b60006125da602e83612b85565b91506125e582613137565b604082019050919050565b60006125fd602083612b85565b915061260882613186565b602082019050919050565b6000612620603183612b85565b915061262b826131af565b604082019050919050565b6000612643602c83612b85565b915061264e826131fe565b604082019050919050565b6000612666602083612b85565b91506126718261324d565b602082019050919050565b6000612689602983612b85565b915061269482613276565b604082019050919050565b60006126ac602f83612b85565b91506126b7826132c5565b604082019050919050565b60006126cf602183612b85565b91506126da82613314565b604082019050919050565b60006126f2603183612b85565b91506126fd82613363565b604082019050919050565b6000612715601383612b85565b9150612720826133b2565b602082019050919050565b6000612738600f83612b85565b9150612743826133db565b602082019050919050565b61275781612cc6565b82525050565b60006127698284612461565b915081905092915050565b60006127808285612461565b915061278c8284612461565b91508190509392505050565b60006020820190506127ad60008301846123d1565b92915050565b60006080820190506127c860008301876123d1565b6127d560208301866123d1565b6127e2604083018561274e565b81810360608301526127f481846123ef565b905095945050505050565b600060208201905061281460008301846123e0565b92915050565b600060208201905081810360008301526128348184612428565b905092915050565b6000602082019050818103600083015261285581612492565b9050919050565b60006020820190508181036000830152612875816124b5565b9050919050565b60006020820190508181036000830152612895816124d8565b9050919050565b600060208201905081810360008301526128b5816124fb565b9050919050565b600060208201905081810360008301526128d58161251e565b9050919050565b600060208201905081810360008301526128f581612541565b9050919050565b6000602082019050818103600083015261291581612564565b9050919050565b6000602082019050818103600083015261293581612587565b9050919050565b60006020820190508181036000830152612955816125aa565b9050919050565b60006020820190508181036000830152612975816125cd565b9050919050565b60006020820190508181036000830152612995816125f0565b9050919050565b600060208201905081810360008301526129b581612613565b9050919050565b600060208201905081810360008301526129d581612636565b9050919050565b600060208201905081810360008301526129f581612659565b9050919050565b60006020820190508181036000830152612a158161267c565b9050919050565b60006020820190508181036000830152612a358161269f565b9050919050565b60006020820190508181036000830152612a55816126c2565b9050919050565b60006020820190508181036000830152612a75816126e5565b9050919050565b60006020820190508181036000830152612a9581612708565b9050919050565b60006020820190508181036000830152612ab58161272b565b9050919050565b6000602082019050612ad1600083018461274e565b92915050565b6000612ae1612af2565b9050612aed8282612d44565b919050565b6000604051905090565b600067ffffffffffffffff821115612b1757612b16612e7c565b5b612b2082612eab565b9050602081019050919050565b600067ffffffffffffffff821115612b4857612b47612e7c565b5b612b5182612eab565b9050602081019050919050565b600081519050919050565b600081519050919050565b600082825260208201905092915050565b600082825260208201905092915050565b600081905092915050565b6000612bac82612cc6565b9150612bb783612cc6565b9250827fffffffffffffffffffffffffffffffffffffffffffffffffffffffffffffffff03821115612bec57612beb612def565b5b828201905092915050565b6000612c0282612cc6565b9150612c0d83612cc6565b925082612c1d57612c1c612e1e565b5b828204905092915050565b6000612c3382612cc6565b9150612c3e83612cc6565b925082821015612c5157612c50612def565b5b828203905092915050565b6000612c6782612ca6565b9050919050565b60008115159050919050565b60007fffffffff0000000000000000000000000000000000000000000000000000000082169050919050565b600073ffffffffffffffffffffffffffffffffffffffff82169050919050565b6000819050919050565b82818337600083830152505050565b60005b83811015612cfd578082015181840152602081019050612ce2565b83811115612d0c576000848401525b50505050565b60006002820490506001821680612d2a57607f821691505b60208210811415612d3e57612d3d612e4d565b5b50919050565b612d4d82612eab565b810181811067ffffffffffffffff82111715612d6c57612d6b612e7c565b5b80604052505050565b6000612d8082612cc6565b91507fffffffffffffffffffffffffffffffffffffffffffffffffffffffffffffffff821415612db357612db2612def565b5b600182019050919050565b6000612dc982612cc6565b9150612dd483612cc6565b925082612de457612de3612e1e565b5b828206905092915050565b7f4e487b7100000000000000000000000000000000000000000000000000000000600052601160045260246000fd5b7f4e487b7100000000000000000000000000000000000000000000000000000000600052601260045260246000fd5b7f4e487b7100000000000000000000000000000000000000000000000000000000600052602260045260246000fd5b7f4e487b7100000000000000000000000000000000000000000000000000000000600052604160045260246000fd5b6000601f19601f8301169050919050565b7f4552433732313a207472616e7366657220746f206e6f6e20455243373231526560008201527f63656976657220696d706c656d656e7465720000000000000000000000000000602082015250565b7f4f776e61626c653a206e6577206f776e657220697320746865207a65726f206160008201527f6464726573730000000000000000000000000000000000000000000000000000602082015250565b7f4552433732313a20746f6b656e20616c7265616479206d696e74656400000000600082015250565b7f4552433732313a207472616e7366657220746f20746865207a65726f2061646460008201527f7265737300000000000000000000000000000000000000000000000000000000602082015250565b7f4552433732313a20617070726f766520746f2063616c6c657200000000000000600082015250565b7f4552433732313a206f70657261746f7220717565727920666f72206e6f6e657860008201527f697374656e7420746f6b656e0000000000000000000000000000000000000000602082015250565b7f4552433732313a20617070726f76652063616c6c6572206973206e6f74206f7760008201527f6e6572206e6f7220617070726f76656420666f7220616c6c0000000000000000602082015250565b7f4552433732313a2062616c616e636520717565727920666f7220746865207a6560008201527f726f206164647265737300000000000000000000000000000000000000000000602082015250565b7f4552433732313a206f776e657220717565727920666f72206e6f6e657869737460008201527f656e7420746f6b656e0000000000000000000000000000000000000000000000602082015250565b7f45524337323155524953746f726167653a2055524920736574206f66206e6f6e60008201527f6578697374656e7420746f6b656e000000000000000000000000000000000000602082015250565b7f4552433732313a206d696e7420746f20746865207a65726f2061646472657373600082015250565b7f45524337323155524953746f726167653a2055524920717565727920666f722060008201527f6e6f6e6578697374656e7420746f6b656e000000000000000000000000000000602082015250565b7f4552433732313a20617070726f76656420717565727920666f72206e6f6e657860008201527f697374656e7420746f6b656e0000000000000000000000000000000000000000602082015250565b7f4f776e61626c653a2063616c6c6572206973206e6f7420746865206f776e6572600082015250565b7f4552433732313a207472616e73666572206f6620746f6b656e2074686174206960008201527f73206e6f74206f776e0000000000000000000000000000000000000000000000602082015250565b7f4552433732314d657461646174613a2055524920717565727920666f72206e6f60008201527f6e6578697374656e7420746f6b656e0000000000000000000000000000000000602082015250565b7f4552433732313a20617070726f76616c20746f2063757272656e74206f776e6560008201527f7200000000000000000000000000000000000000000000000000000000000000602082015250565b7f4552433732313a207472616e736665722063616c6c6572206973206e6f74206f60008201527f776e6572206e6f7220617070726f766564000000000000000000000000000000602082015250565b7f4e465420616c7265616479206d696e7465642100000000000000000000000000600082015250565b7f4e65656420746f20706179207570210000000000000000000000000000000000600082015250565b61340d81612c5c565b811461341857600080fd5b50565b61342481612c6e565b811461342f57600080fd5b50565b61343b81612c7a565b811461344657600080fd5b50565b61345281612cc6565b811461345d57600080fd5b5056fea26469706673582212205930a2c3ed56cdfa54d66ee82f93e74c17e2bd3345dddf1602270c76e09d9f7664736f6c63430008040033",
          "opcodes": "PUSH1 0x80 PUSH1 0x40 MSTORE CALLVALUE DUP1 ISZERO PUSH3 0x11 JUMPI PUSH1 0x0 DUP1 REVERT JUMPDEST POP PUSH1 0x40 MLOAD DUP1 PUSH1 0x40 ADD PUSH1 0x40 MSTORE DUP1 PUSH1 0xD DUP2 MSTORE PUSH1 0x20 ADD PUSH32 0x466C6F6174696E672D4361747300000000000000000000000000000000000000 DUP2 MSTORE POP PUSH1 0x40 MLOAD DUP1 PUSH1 0x40 ADD PUSH1 0x40 MSTORE DUP1 PUSH1 0x4 DUP2 MSTORE PUSH1 0x20 ADD PUSH32 0x4643415400000000000000000000000000000000000000000000000000000000 DUP2 MSTORE POP DUP2 PUSH1 0x0 SWAP1 DUP1 MLOAD SWAP1 PUSH1 0x20 ADD SWAP1 PUSH3 0x96 SWAP3 SWAP2 SWAP1 PUSH3 0x1A6 JUMP JUMPDEST POP DUP1 PUSH1 0x1 SWAP1 DUP1 MLOAD SWAP1 PUSH1 0x20 ADD SWAP1 PUSH3 0xAF SWAP3 SWAP2 SWAP1 PUSH3 0x1A6 JUMP JUMPDEST POP POP POP PUSH3 0xD2 PUSH3 0xC6 PUSH3 0xD8 PUSH1 0x20 SHL PUSH1 0x20 SHR JUMP JUMPDEST PUSH3 0xE0 PUSH1 0x20 SHL PUSH1 0x20 SHR JUMP JUMPDEST PUSH3 0x2BB JUMP JUMPDEST PUSH1 0x0 CALLER SWAP1 POP SWAP1 JUMP JUMPDEST PUSH1 0x0 PUSH1 0x7 PUSH1 0x0 SWAP1 SLOAD SWAP1 PUSH2 0x100 EXP SWAP1 DIV PUSH20 0xFFFFFFFFFFFFFFFFFFFFFFFFFFFFFFFFFFFFFFFF AND SWAP1 POP DUP2 PUSH1 0x7 PUSH1 0x0 PUSH2 0x100 EXP DUP2 SLOAD DUP2 PUSH20 0xFFFFFFFFFFFFFFFFFFFFFFFFFFFFFFFFFFFFFFFF MUL NOT AND SWAP1 DUP4 PUSH20 0xFFFFFFFFFFFFFFFFFFFFFFFFFFFFFFFFFFFFFFFF AND MUL OR SWAP1 SSTORE POP DUP2 PUSH20 0xFFFFFFFFFFFFFFFFFFFFFFFFFFFFFFFFFFFFFFFF AND DUP2 PUSH20 0xFFFFFFFFFFFFFFFFFFFFFFFFFFFFFFFFFFFFFFFF AND PUSH32 0x8BE0079C531659141344CD1FD0A4F28419497F9722A3DAAFE3B4186F6B6457E0 PUSH1 0x40 MLOAD PUSH1 0x40 MLOAD DUP1 SWAP2 SUB SWAP1 LOG3 POP POP JUMP JUMPDEST DUP3 DUP1 SLOAD PUSH3 0x1B4 SWAP1 PUSH3 0x256 JUMP JUMPDEST SWAP1 PUSH1 0x0 MSTORE PUSH1 0x20 PUSH1 0x0 KECCAK256 SWAP1 PUSH1 0x1F ADD PUSH1 0x20 SWAP1 DIV DUP2 ADD SWAP3 DUP3 PUSH3 0x1D8 JUMPI PUSH1 0x0 DUP6 SSTORE PUSH3 0x224 JUMP JUMPDEST DUP3 PUSH1 0x1F LT PUSH3 0x1F3 JUMPI DUP1 MLOAD PUSH1 0xFF NOT AND DUP4 DUP1 ADD OR DUP6 SSTORE PUSH3 0x224 JUMP JUMPDEST DUP3 DUP1 ADD PUSH1 0x1 ADD DUP6 SSTORE DUP3 ISZERO PUSH3 0x224 JUMPI SWAP2 DUP3 ADD JUMPDEST DUP3 DUP2 GT ISZERO PUSH3 0x223 JUMPI DUP3 MLOAD DUP3 SSTORE SWAP2 PUSH1 0x20 ADD SWAP2 SWAP1 PUSH1 0x1 ADD SWAP1 PUSH3 0x206 JUMP JUMPDEST JUMPDEST POP SWAP1 POP PUSH3 0x233 SWAP2 SWAP1 PUSH3 0x237 JUMP JUMPDEST POP SWAP1 JUMP JUMPDEST JUMPDEST DUP1 DUP3 GT ISZERO PUSH3 0x252 JUMPI PUSH1 0x0 DUP2 PUSH1 0x0 SWAP1 SSTORE POP PUSH1 0x1 ADD PUSH3 0x238 JUMP JUMPDEST POP SWAP1 JUMP JUMPDEST PUSH1 0x0 PUSH1 0x2 DUP3 DIV SWAP1 POP PUSH1 0x1 DUP3 AND DUP1 PUSH3 0x26F JUMPI PUSH1 0x7F DUP3 AND SWAP2 POP JUMPDEST PUSH1 0x20 DUP3 LT DUP2 EQ ISZERO PUSH3 0x286 JUMPI PUSH3 0x285 PUSH3 0x28C JUMP JUMPDEST JUMPDEST POP SWAP2 SWAP1 POP JUMP JUMPDEST PUSH32 0x4E487B7100000000000000000000000000000000000000000000000000000000 PUSH1 0x0 MSTORE PUSH1 0x22 PUSH1 0x4 MSTORE PUSH1 0x24 PUSH1 0x0 REVERT JUMPDEST PUSH2 0x3496 DUP1 PUSH3 0x2CB PUSH1 0x0 CODECOPY PUSH1 0x0 RETURN INVALID PUSH1 0x80 PUSH1 0x40 MSTORE PUSH1 0x4 CALLDATASIZE LT PUSH2 0x11F JUMPI PUSH1 0x0 CALLDATALOAD PUSH1 0xE0 SHR DUP1 PUSH4 0x715018A6 GT PUSH2 0xA0 JUMPI DUP1 PUSH4 0xB88D4FDE GT PUSH2 0x64 JUMPI DUP1 PUSH4 0xB88D4FDE EQ PUSH2 0x3EC JUMPI DUP1 PUSH4 0xC87B56DD EQ PUSH2 0x415 JUMPI DUP1 PUSH4 0xD204C45E EQ PUSH2 0x452 JUMPI DUP1 PUSH4 0xE985E9C5 EQ PUSH2 0x47B JUMPI DUP1 PUSH4 0xF2FDE38B EQ PUSH2 0x4B8 JUMPI PUSH2 0x11F JUMP JUMPDEST DUP1 PUSH4 0x715018A6 EQ PUSH2 0x319 JUMPI DUP1 PUSH4 0x8DA5CB5B EQ PUSH2 0x330 JUMPI DUP1 PUSH4 0x95D89B41 EQ PUSH2 0x35B JUMPI DUP1 PUSH4 0x9F1CABC6 EQ PUSH2 0x386 JUMPI DUP1 PUSH4 0xA22CB465 EQ PUSH2 0x3C3 JUMPI PUSH2 0x11F JUMP JUMPDEST DUP1 PUSH4 0x23B872DD GT PUSH2 0xE7 JUMPI DUP1 PUSH4 0x23B872DD EQ PUSH2 0x21D JUMPI DUP1 PUSH4 0x42842E0E EQ PUSH2 0x246 JUMPI DUP1 PUSH4 0x615FD9E2 EQ PUSH2 0x26F JUMPI DUP1 PUSH4 0x6352211E EQ PUSH2 0x29F JUMPI DUP1 PUSH4 0x70A08231 EQ PUSH2 0x2DC JUMPI PUSH2 0x11F JUMP JUMPDEST DUP1 PUSH4 0x1FFC9A7 EQ PUSH2 0x124 JUMPI DUP1 PUSH4 0x6661ABD EQ PUSH2 0x161 JUMPI DUP1 PUSH4 0x6FDDE03 EQ PUSH2 0x18C JUMPI DUP1 PUSH4 0x81812FC EQ PUSH2 0x1B7 JUMPI DUP1 PUSH4 0x95EA7B3 EQ PUSH2 0x1F4 JUMPI JUMPDEST PUSH1 0x0 DUP1 REVERT JUMPDEST CALLVALUE DUP1 ISZERO PUSH2 0x130 JUMPI PUSH1 0x0 DUP1 REVERT JUMPDEST POP PUSH2 0x14B PUSH1 0x4 DUP1 CALLDATASIZE SUB DUP2 ADD SWAP1 PUSH2 0x146 SWAP2 SWAP1 PUSH2 0x2315 JUMP JUMPDEST PUSH2 0x4E1 JUMP JUMPDEST PUSH1 0x40 MLOAD PUSH2 0x158 SWAP2 SWAP1 PUSH2 0x27FF JUMP JUMPDEST PUSH1 0x40 MLOAD DUP1 SWAP2 SUB SWAP1 RETURN JUMPDEST CALLVALUE DUP1 ISZERO PUSH2 0x16D JUMPI PUSH1 0x0 DUP1 REVERT JUMPDEST POP PUSH2 0x176 PUSH2 0x5C3 JUMP JUMPDEST PUSH1 0x40 MLOAD PUSH2 0x183 SWAP2 SWAP1 PUSH2 0x2ABC JUMP JUMPDEST PUSH1 0x40 MLOAD DUP1 SWAP2 SUB SWAP1 RETURN JUMPDEST CALLVALUE DUP1 ISZERO PUSH2 0x198 JUMPI PUSH1 0x0 DUP1 REVERT JUMPDEST POP PUSH2 0x1A1 PUSH2 0x5D4 JUMP JUMPDEST PUSH1 0x40 MLOAD PUSH2 0x1AE SWAP2 SWAP1 PUSH2 0x281A JUMP JUMPDEST PUSH1 0x40 MLOAD DUP1 SWAP2 SUB SWAP1 RETURN JUMPDEST CALLVALUE DUP1 ISZERO PUSH2 0x1C3 JUMPI PUSH1 0x0 DUP1 REVERT JUMPDEST POP PUSH2 0x1DE PUSH1 0x4 DUP1 CALLDATASIZE SUB DUP2 ADD SWAP1 PUSH2 0x1D9 SWAP2 SWAP1 PUSH2 0x23A8 JUMP JUMPDEST PUSH2 0x666 JUMP JUMPDEST PUSH1 0x40 MLOAD PUSH2 0x1EB SWAP2 SWAP1 PUSH2 0x2798 JUMP JUMPDEST PUSH1 0x40 MLOAD DUP1 SWAP2 SUB SWAP1 RETURN JUMPDEST CALLVALUE DUP1 ISZERO PUSH2 0x200 JUMPI PUSH1 0x0 DUP1 REVERT JUMPDEST POP PUSH2 0x21B PUSH1 0x4 DUP1 CALLDATASIZE SUB DUP2 ADD SWAP1 PUSH2 0x216 SWAP2 SWAP1 PUSH2 0x22D9 JUMP JUMPDEST PUSH2 0x6EB JUMP JUMPDEST STOP JUMPDEST CALLVALUE DUP1 ISZERO PUSH2 0x229 JUMPI PUSH1 0x0 DUP1 REVERT JUMPDEST POP PUSH2 0x244 PUSH1 0x4 DUP1 CALLDATASIZE SUB DUP2 ADD SWAP1 PUSH2 0x23F SWAP2 SWAP1 PUSH2 0x217F JUMP JUMPDEST PUSH2 0x803 JUMP JUMPDEST STOP JUMPDEST CALLVALUE DUP1 ISZERO PUSH2 0x252 JUMPI PUSH1 0x0 DUP1 REVERT JUMPDEST POP PUSH2 0x26D PUSH1 0x4 DUP1 CALLDATASIZE SUB DUP2 ADD SWAP1 PUSH2 0x268 SWAP2 SWAP1 PUSH2 0x217F JUMP JUMPDEST PUSH2 0x863 JUMP JUMPDEST STOP JUMPDEST PUSH2 0x289 PUSH1 0x4 DUP1 CALLDATASIZE SUB DUP2 ADD SWAP1 PUSH2 0x284 SWAP2 SWAP1 PUSH2 0x2285 JUMP JUMPDEST PUSH2 0x883 JUMP JUMPDEST PUSH1 0x40 MLOAD PUSH2 0x296 SWAP2 SWAP1 PUSH2 0x2ABC JUMP JUMPDEST PUSH1 0x40 MLOAD DUP1 SWAP2 SUB SWAP1 RETURN JUMPDEST CALLVALUE DUP1 ISZERO PUSH2 0x2AB JUMPI PUSH1 0x0 DUP1 REVERT JUMPDEST POP PUSH2 0x2C6 PUSH1 0x4 DUP1 CALLDATASIZE SUB DUP2 ADD SWAP1 PUSH2 0x2C1 SWAP2 SWAP1 PUSH2 0x23A8 JUMP JUMPDEST PUSH2 0x9AF JUMP JUMPDEST PUSH1 0x40 MLOAD PUSH2 0x2D3 SWAP2 SWAP1 PUSH2 0x2798 JUMP JUMPDEST PUSH1 0x40 MLOAD DUP1 SWAP2 SUB SWAP1 RETURN JUMPDEST CALLVALUE DUP1 ISZERO PUSH2 0x2E8 JUMPI PUSH1 0x0 DUP1 REVERT JUMPDEST POP PUSH2 0x303 PUSH1 0x4 DUP1 CALLDATASIZE SUB DUP2 ADD SWAP1 PUSH2 0x2FE SWAP2 SWAP1 PUSH2 0x211A JUMP JUMPDEST PUSH2 0xA61 JUMP JUMPDEST PUSH1 0x40 MLOAD PUSH2 0x310 SWAP2 SWAP1 PUSH2 0x2ABC JUMP JUMPDEST PUSH1 0x40 MLOAD DUP1 SWAP2 SUB SWAP1 RETURN JUMPDEST CALLVALUE DUP1 ISZERO PUSH2 0x325 JUMPI PUSH1 0x0 DUP1 REVERT JUMPDEST POP PUSH2 0x32E PUSH2 0xB19 JUMP JUMPDEST STOP JUMPDEST CALLVALUE DUP1 ISZERO PUSH2 0x33C JUMPI PUSH1 0x0 DUP1 REVERT JUMPDEST POP PUSH2 0x345 PUSH2 0xBA1 JUMP JUMPDEST PUSH1 0x40 MLOAD PUSH2 0x352 SWAP2 SWAP1 PUSH2 0x2798 JUMP JUMPDEST PUSH1 0x40 MLOAD DUP1 SWAP2 SUB SWAP1 RETURN JUMPDEST CALLVALUE DUP1 ISZERO PUSH2 0x367 JUMPI PUSH1 0x0 DUP1 REVERT JUMPDEST POP PUSH2 0x370 PUSH2 0xBCB JUMP JUMPDEST PUSH1 0x40 MLOAD PUSH2 0x37D SWAP2 SWAP1 PUSH2 0x281A JUMP JUMPDEST PUSH1 0x40 MLOAD DUP1 SWAP2 SUB SWAP1 RETURN JUMPDEST CALLVALUE DUP1 ISZERO PUSH2 0x392 JUMPI PUSH1 0x0 DUP1 REVERT JUMPDEST POP PUSH2 0x3AD PUSH1 0x4 DUP1 CALLDATASIZE SUB DUP2 ADD SWAP1 PUSH2 0x3A8 SWAP2 SWAP1 PUSH2 0x2367 JUMP JUMPDEST PUSH2 0xC5D JUMP JUMPDEST PUSH1 0x40 MLOAD PUSH2 0x3BA SWAP2 SWAP1 PUSH2 0x27FF JUMP JUMPDEST PUSH1 0x40 MLOAD DUP1 SWAP2 SUB SWAP1 RETURN JUMPDEST CALLVALUE DUP1 ISZERO PUSH2 0x3CF JUMPI PUSH1 0x0 DUP1 REVERT JUMPDEST POP PUSH2 0x3EA PUSH1 0x4 DUP1 CALLDATASIZE SUB DUP2 ADD SWAP1 PUSH2 0x3E5 SWAP2 SWAP1 PUSH2 0x2249 JUMP JUMPDEST PUSH2 0xC98 JUMP JUMPDEST STOP JUMPDEST CALLVALUE DUP1 ISZERO PUSH2 0x3F8 JUMPI PUSH1 0x0 DUP1 REVERT JUMPDEST POP PUSH2 0x413 PUSH1 0x4 DUP1 CALLDATASIZE SUB DUP2 ADD SWAP1 PUSH2 0x40E SWAP2 SWAP1 PUSH2 0x21CE JUMP JUMPDEST PUSH2 0xCAE JUMP JUMPDEST STOP JUMPDEST CALLVALUE DUP1 ISZERO PUSH2 0x421 JUMPI PUSH1 0x0 DUP1 REVERT JUMPDEST POP PUSH2 0x43C PUSH1 0x4 DUP1 CALLDATASIZE SUB DUP2 ADD SWAP1 PUSH2 0x437 SWAP2 SWAP1 PUSH2 0x23A8 JUMP JUMPDEST PUSH2 0xD10 JUMP JUMPDEST PUSH1 0x40 MLOAD PUSH2 0x449 SWAP2 SWAP1 PUSH2 0x281A JUMP JUMPDEST PUSH1 0x40 MLOAD DUP1 SWAP2 SUB SWAP1 RETURN JUMPDEST CALLVALUE DUP1 ISZERO PUSH2 0x45E JUMPI PUSH1 0x0 DUP1 REVERT JUMPDEST POP PUSH2 0x479 PUSH1 0x4 DUP1 CALLDATASIZE SUB DUP2 ADD SWAP1 PUSH2 0x474 SWAP2 SWAP1 PUSH2 0x2285 JUMP JUMPDEST PUSH2 0xD22 JUMP JUMPDEST STOP JUMPDEST CALLVALUE DUP1 ISZERO PUSH2 0x487 JUMPI PUSH1 0x0 DUP1 REVERT JUMPDEST POP PUSH2 0x4A2 PUSH1 0x4 DUP1 CALLDATASIZE SUB DUP2 ADD SWAP1 PUSH2 0x49D SWAP2 SWAP1 PUSH2 0x2143 JUMP JUMPDEST PUSH2 0xE07 JUMP JUMPDEST PUSH1 0x40 MLOAD PUSH2 0x4AF SWAP2 SWAP1 PUSH2 0x27FF JUMP JUMPDEST PUSH1 0x40 MLOAD DUP1 SWAP2 SUB SWAP1 RETURN JUMPDEST CALLVALUE DUP1 ISZERO PUSH2 0x4C4 JUMPI PUSH1 0x0 DUP1 REVERT JUMPDEST POP PUSH2 0x4DF PUSH1 0x4 DUP1 CALLDATASIZE SUB DUP2 ADD SWAP1 PUSH2 0x4DA SWAP2 SWAP1 PUSH2 0x211A JUMP JUMPDEST PUSH2 0xE9B JUMP JUMPDEST STOP JUMPDEST PUSH1 0x0 PUSH32 0x80AC58CD00000000000000000000000000000000000000000000000000000000 PUSH28 0xFFFFFFFFFFFFFFFFFFFFFFFFFFFFFFFFFFFFFFFFFFFFFFFFFFFFFFFF NOT AND DUP3 PUSH28 0xFFFFFFFFFFFFFFFFFFFFFFFFFFFFFFFFFFFFFFFFFFFFFFFFFFFFFFFF NOT AND EQ DUP1 PUSH2 0x5AC JUMPI POP PUSH32 0x5B5E139F00000000000000000000000000000000000000000000000000000000 PUSH28 0xFFFFFFFFFFFFFFFFFFFFFFFFFFFFFFFFFFFFFFFFFFFFFFFFFFFFFFFF NOT AND DUP3 PUSH28 0xFFFFFFFFFFFFFFFFFFFFFFFFFFFFFFFFFFFFFFFFFFFFFFFFFFFFFFFF NOT AND EQ JUMPDEST DUP1 PUSH2 0x5BC JUMPI POP PUSH2 0x5BB DUP3 PUSH2 0xF93 JUMP JUMPDEST JUMPDEST SWAP1 POP SWAP2 SWAP1 POP JUMP JUMPDEST PUSH1 0x0 PUSH2 0x5CF PUSH1 0x8 PUSH2 0xFFD JUMP JUMPDEST SWAP1 POP SWAP1 JUMP JUMPDEST PUSH1 0x60 PUSH1 0x0 DUP1 SLOAD PUSH2 0x5E3 SWAP1 PUSH2 0x2D12 JUMP JUMPDEST DUP1 PUSH1 0x1F ADD PUSH1 0x20 DUP1 SWAP2 DIV MUL PUSH1 0x20 ADD PUSH1 0x40 MLOAD SWAP1 DUP2 ADD PUSH1 0x40 MSTORE DUP1 SWAP3 SWAP2 SWAP1 DUP2 DUP2 MSTORE PUSH1 0x20 ADD DUP3 DUP1 SLOAD PUSH2 0x60F SWAP1 PUSH2 0x2D12 JUMP JUMPDEST DUP1 ISZERO PUSH2 0x65C JUMPI DUP1 PUSH1 0x1F LT PUSH2 0x631 JUMPI PUSH2 0x100 DUP1 DUP4 SLOAD DIV MUL DUP4 MSTORE SWAP2 PUSH1 0x20 ADD SWAP2 PUSH2 0x65C JUMP JUMPDEST DUP3 ADD SWAP2 SWAP1 PUSH1 0x0 MSTORE PUSH1 0x20 PUSH1 0x0 KECCAK256 SWAP1 JUMPDEST DUP2 SLOAD DUP2 MSTORE SWAP1 PUSH1 0x1 ADD SWAP1 PUSH1 0x20 ADD DUP1 DUP4 GT PUSH2 0x63F JUMPI DUP3 SWAP1 SUB PUSH1 0x1F AND DUP3 ADD SWAP2 JUMPDEST POP POP POP POP POP SWAP1 POP SWAP1 JUMP JUMPDEST PUSH1 0x0 PUSH2 0x671 DUP3 PUSH2 0x100B JUMP JUMPDEST PUSH2 0x6B0 JUMPI PUSH1 0x40 MLOAD PUSH32 0x8C379A000000000000000000000000000000000000000000000000000000000 DUP2 MSTORE PUSH1 0x4 ADD PUSH2 0x6A7 SWAP1 PUSH2 0x29BC JUMP JUMPDEST PUSH1 0x40 MLOAD DUP1 SWAP2 SUB SWAP1 REVERT JUMPDEST PUSH1 0x4 PUSH1 0x0 DUP4 DUP2 MSTORE PUSH1 0x20 ADD SWAP1 DUP2 MSTORE PUSH1 0x20 ADD PUSH1 0x0 KECCAK256 PUSH1 0x0 SWAP1 SLOAD SWAP1 PUSH2 0x100 EXP SWAP1 DIV PUSH20 0xFFFFFFFFFFFFFFFFFFFFFFFFFFFFFFFFFFFFFFFF AND SWAP1 POP SWAP2 SWAP1 POP JUMP JUMPDEST PUSH1 0x0 PUSH2 0x6F6 DUP3 PUSH2 0x9AF JUMP JUMPDEST SWAP1 POP DUP1 PUSH20 0xFFFFFFFFFFFFFFFFFFFFFFFFFFFFFFFFFFFFFFFF AND DUP4 PUSH20 0xFFFFFFFFFFFFFFFFFFFFFFFFFFFFFFFFFFFFFFFF AND EQ ISZERO PUSH2 0x767 JUMPI PUSH1 0x40 MLOAD PUSH32 0x8C379A000000000000000000000000000000000000000000000000000000000 DUP2 MSTORE PUSH1 0x4 ADD PUSH2 0x75E SWAP1 PUSH2 0x2A3C JUMP JUMPDEST PUSH1 0x40 MLOAD DUP1 SWAP2 SUB SWAP1 REVERT JUMPDEST DUP1 PUSH20 0xFFFFFFFFFFFFFFFFFFFFFFFFFFFFFFFFFFFFFFFF AND PUSH2 0x786 PUSH2 0x1077 JUMP JUMPDEST PUSH20 0xFFFFFFFFFFFFFFFFFFFFFFFFFFFFFFFFFFFFFFFF AND EQ DUP1 PUSH2 0x7B5 JUMPI POP PUSH2 0x7B4 DUP2 PUSH2 0x7AF PUSH2 0x1077 JUMP JUMPDEST PUSH2 0xE07 JUMP JUMPDEST JUMPDEST PUSH2 0x7F4 JUMPI PUSH1 0x40 MLOAD PUSH32 0x8C379A000000000000000000000000000000000000000000000000000000000 DUP2 MSTORE PUSH1 0x4 ADD PUSH2 0x7EB SWAP1 PUSH2 0x28FC JUMP JUMPDEST PUSH1 0x40 MLOAD DUP1 SWAP2 SUB SWAP1 REVERT JUMPDEST PUSH2 0x7FE DUP4 DUP4 PUSH2 0x107F JUMP JUMPDEST POP POP POP JUMP JUMPDEST PUSH2 0x814 PUSH2 0x80E PUSH2 0x1077 JUMP JUMPDEST DUP3 PUSH2 0x1138 JUMP JUMPDEST PUSH2 0x853 JUMPI PUSH1 0x40 MLOAD PUSH32 0x8C379A000000000000000000000000000000000000000000000000000000000 DUP2 MSTORE PUSH1 0x4 ADD PUSH2 0x84A SWAP1 PUSH2 0x2A5C JUMP JUMPDEST PUSH1 0x40 MLOAD DUP1 SWAP2 SUB SWAP1 REVERT JUMPDEST PUSH2 0x85E DUP4 DUP4 DUP4 PUSH2 0x1216 JUMP JUMPDEST POP POP POP JUMP JUMPDEST PUSH2 0x87E DUP4 DUP4 DUP4 PUSH1 0x40 MLOAD DUP1 PUSH1 0x20 ADD PUSH1 0x40 MSTORE DUP1 PUSH1 0x0 DUP2 MSTORE POP PUSH2 0xCAE JUMP JUMPDEST POP POP POP JUMP JUMPDEST PUSH1 0x0 PUSH1 0x1 PUSH1 0x9 DUP4 PUSH1 0x40 MLOAD PUSH2 0x897 SWAP2 SWAP1 PUSH2 0x275D JUMP JUMPDEST SWAP1 DUP2 MSTORE PUSH1 0x20 ADD PUSH1 0x40 MLOAD DUP1 SWAP2 SUB SWAP1 KECCAK256 PUSH1 0x0 SWAP1 SLOAD SWAP1 PUSH2 0x100 EXP SWAP1 DIV PUSH1 0xFF AND PUSH1 0xFF AND EQ ISZERO PUSH2 0x8F7 JUMPI PUSH1 0x40 MLOAD PUSH32 0x8C379A000000000000000000000000000000000000000000000000000000000 DUP2 MSTORE PUSH1 0x4 ADD PUSH2 0x8EE SWAP1 PUSH2 0x2A7C JUMP JUMPDEST PUSH1 0x40 MLOAD DUP1 SWAP2 SUB SWAP1 REVERT JUMPDEST PUSH7 0xB1A2BC2EC50000 CALLVALUE LT ISZERO PUSH2 0x941 JUMPI PUSH1 0x40 MLOAD PUSH32 0x8C379A000000000000000000000000000000000000000000000000000000000 DUP2 MSTORE PUSH1 0x4 ADD PUSH2 0x938 SWAP1 PUSH2 0x2A9C JUMP JUMPDEST PUSH1 0x40 MLOAD DUP1 SWAP2 SUB SWAP1 REVERT JUMPDEST PUSH1 0x0 PUSH2 0x94D PUSH1 0x8 PUSH2 0xFFD JUMP JUMPDEST SWAP1 POP PUSH2 0x959 PUSH1 0x8 PUSH2 0x1472 JUMP JUMPDEST PUSH1 0x1 PUSH1 0x9 DUP5 PUSH1 0x40 MLOAD PUSH2 0x96B SWAP2 SWAP1 PUSH2 0x275D JUMP JUMPDEST SWAP1 DUP2 MSTORE PUSH1 0x20 ADD PUSH1 0x40 MLOAD DUP1 SWAP2 SUB SWAP1 KECCAK256 PUSH1 0x0 PUSH2 0x100 EXP DUP2 SLOAD DUP2 PUSH1 0xFF MUL NOT AND SWAP1 DUP4 PUSH1 0xFF AND MUL OR SWAP1 SSTORE POP PUSH2 0x99B DUP5 DUP3 PUSH2 0x1488 JUMP JUMPDEST PUSH2 0x9A5 DUP2 DUP5 PUSH2 0x1656 JUMP JUMPDEST DUP1 SWAP2 POP POP SWAP3 SWAP2 POP POP JUMP JUMPDEST PUSH1 0x0 DUP1 PUSH1 0x2 PUSH1 0x0 DUP5 DUP2 MSTORE PUSH1 0x20 ADD SWAP1 DUP2 MSTORE PUSH1 0x20 ADD PUSH1 0x0 KECCAK256 PUSH1 0x0 SWAP1 SLOAD SWAP1 PUSH2 0x100 EXP SWAP1 DIV PUSH20 0xFFFFFFFFFFFFFFFFFFFFFFFFFFFFFFFFFFFFFFFF AND SWAP1 POP PUSH1 0x0 PUSH20 0xFFFFFFFFFFFFFFFFFFFFFFFFFFFFFFFFFFFFFFFF AND DUP2 PUSH20 0xFFFFFFFFFFFFFFFFFFFFFFFFFFFFFFFFFFFFFFFF AND EQ ISZERO PUSH2 0xA58 JUMPI PUSH1 0x40 MLOAD PUSH32 0x8C379A000000000000000000000000000000000000000000000000000000000 DUP2 MSTORE PUSH1 0x4 ADD PUSH2 0xA4F SWAP1 PUSH2 0x293C JUMP JUMPDEST PUSH1 0x40 MLOAD DUP1 SWAP2 SUB SWAP1 REVERT JUMPDEST DUP1 SWAP2 POP POP SWAP2 SWAP1 POP JUMP JUMPDEST PUSH1 0x0 DUP1 PUSH20 0xFFFFFFFFFFFFFFFFFFFFFFFFFFFFFFFFFFFFFFFF AND DUP3 PUSH20 0xFFFFFFFFFFFFFFFFFFFFFFFFFFFFFFFFFFFFFFFF AND EQ ISZERO PUSH2 0xAD2 JUMPI PUSH1 0x40 MLOAD PUSH32 0x8C379A000000000000000000000000000000000000000000000000000000000 DUP2 MSTORE PUSH1 0x4 ADD PUSH2 0xAC9 SWAP1 PUSH2 0x291C JUMP JUMPDEST PUSH1 0x40 MLOAD DUP1 SWAP2 SUB SWAP1 REVERT JUMPDEST PUSH1 0x3 PUSH1 0x0 DUP4 PUSH20 0xFFFFFFFFFFFFFFFFFFFFFFFFFFFFFFFFFFFFFFFF AND PUSH20 0xFFFFFFFFFFFFFFFFFFFFFFFFFFFFFFFFFFFFFFFF AND DUP2 MSTORE PUSH1 0x20 ADD SWAP1 DUP2 MSTORE PUSH1 0x20 ADD PUSH1 0x0 KECCAK256 SLOAD SWAP1 POP SWAP2 SWAP1 POP JUMP JUMPDEST PUSH2 0xB21 PUSH2 0x1077 JUMP JUMPDEST PUSH20 0xFFFFFFFFFFFFFFFFFFFFFFFFFFFFFFFFFFFFFFFF AND PUSH2 0xB3F PUSH2 0xBA1 JUMP JUMPDEST PUSH20 0xFFFFFFFFFFFFFFFFFFFFFFFFFFFFFFFFFFFFFFFF AND EQ PUSH2 0xB95 JUMPI PUSH1 0x40 MLOAD PUSH32 0x8C379A000000000000000000000000000000000000000000000000000000000 DUP2 MSTORE PUSH1 0x4 ADD PUSH2 0xB8C SWAP1 PUSH2 0x29DC JUMP JUMPDEST PUSH1 0x40 MLOAD DUP1 SWAP2 SUB SWAP1 REVERT JUMPDEST PUSH2 0xB9F PUSH1 0x0 PUSH2 0x16CA JUMP JUMPDEST JUMP JUMPDEST PUSH1 0x0 PUSH1 0x7 PUSH1 0x0 SWAP1 SLOAD SWAP1 PUSH2 0x100 EXP SWAP1 DIV PUSH20 0xFFFFFFFFFFFFFFFFFFFFFFFFFFFFFFFFFFFFFFFF AND SWAP1 POP SWAP1 JUMP JUMPDEST PUSH1 0x60 PUSH1 0x1 DUP1 SLOAD PUSH2 0xBDA SWAP1 PUSH2 0x2D12 JUMP JUMPDEST DUP1 PUSH1 0x1F ADD PUSH1 0x20 DUP1 SWAP2 DIV MUL PUSH1 0x20 ADD PUSH1 0x40 MLOAD SWAP1 DUP2 ADD PUSH1 0x40 MSTORE DUP1 SWAP3 SWAP2 SWAP1 DUP2 DUP2 MSTORE PUSH1 0x20 ADD DUP3 DUP1 SLOAD PUSH2 0xC06 SWAP1 PUSH2 0x2D12 JUMP JUMPDEST DUP1 ISZERO PUSH2 0xC53 JUMPI DUP1 PUSH1 0x1F LT PUSH2 0xC28 JUMPI PUSH2 0x100 DUP1 DUP4 SLOAD DIV MUL DUP4 MSTORE SWAP2 PUSH1 0x20 ADD SWAP2 PUSH2 0xC53 JUMP JUMPDEST DUP3 ADD SWAP2 SWAP1 PUSH1 0x0 MSTORE PUSH1 0x20 PUSH1 0x0 KECCAK256 SWAP1 JUMPDEST DUP2 SLOAD DUP2 MSTORE SWAP1 PUSH1 0x1 ADD SWAP1 PUSH1 0x20 ADD DUP1 DUP4 GT PUSH2 0xC36 JUMPI DUP3 SWAP1 SUB PUSH1 0x1F AND DUP3 ADD SWAP2 JUMPDEST POP POP POP POP POP SWAP1 POP SWAP1 JUMP JUMPDEST PUSH1 0x0 PUSH1 0x1 PUSH1 0x9 DUP4 PUSH1 0x40 MLOAD PUSH2 0xC71 SWAP2 SWAP1 PUSH2 0x275D JUMP JUMPDEST SWAP1 DUP2 MSTORE PUSH1 0x20 ADD PUSH1 0x40 MLOAD DUP1 SWAP2 SUB SWAP1 KECCAK256 PUSH1 0x0 SWAP1 SLOAD SWAP1 PUSH2 0x100 EXP SWAP1 DIV PUSH1 0xFF AND PUSH1 0xFF AND EQ SWAP1 POP SWAP2 SWAP1 POP JUMP JUMPDEST PUSH2 0xCAA PUSH2 0xCA3 PUSH2 0x1077 JUMP JUMPDEST DUP4 DUP4 PUSH2 0x1790 JUMP JUMPDEST POP POP JUMP JUMPDEST PUSH2 0xCBF PUSH2 0xCB9 PUSH2 0x1077 JUMP JUMPDEST DUP4 PUSH2 0x1138 JUMP JUMPDEST PUSH2 0xCFE JUMPI PUSH1 0x40 MLOAD PUSH32 0x8C379A000000000000000000000000000000000000000000000000000000000 DUP2 MSTORE PUSH1 0x4 ADD PUSH2 0xCF5 SWAP1 PUSH2 0x2A5C JUMP JUMPDEST PUSH1 0x40 MLOAD DUP1 SWAP2 SUB SWAP1 REVERT JUMPDEST PUSH2 0xD0A DUP5 DUP5 DUP5 DUP5 PUSH2 0x18FD JUMP JUMPDEST POP POP POP POP JUMP JUMPDEST PUSH1 0x60 PUSH2 0xD1B DUP3 PUSH2 0x1959 JUMP JUMPDEST SWAP1 POP SWAP2 SWAP1 POP JUMP JUMPDEST PUSH2 0xD2A PUSH2 0x1077 JUMP JUMPDEST PUSH20 0xFFFFFFFFFFFFFFFFFFFFFFFFFFFFFFFFFFFFFFFF AND PUSH2 0xD48 PUSH2 0xBA1 JUMP JUMPDEST PUSH20 0xFFFFFFFFFFFFFFFFFFFFFFFFFFFFFFFFFFFFFFFF AND EQ PUSH2 0xD9E JUMPI PUSH1 0x40 MLOAD PUSH32 0x8C379A000000000000000000000000000000000000000000000000000000000 DUP2 MSTORE PUSH1 0x4 ADD PUSH2 0xD95 SWAP1 PUSH2 0x29DC JUMP JUMPDEST PUSH1 0x40 MLOAD DUP1 SWAP2 SUB SWAP1 REVERT JUMPDEST PUSH1 0x0 PUSH2 0xDAA PUSH1 0x8 PUSH2 0xFFD JUMP JUMPDEST SWAP1 POP PUSH2 0xDB6 PUSH1 0x8 PUSH2 0x1472 JUMP JUMPDEST PUSH2 0xDC0 DUP4 DUP3 PUSH2 0x1AAB JUMP JUMPDEST PUSH2 0xDCA DUP2 DUP4 PUSH2 0x1656 JUMP JUMPDEST PUSH1 0x1 PUSH1 0x9 DUP4 PUSH1 0x40 MLOAD PUSH2 0xDDC SWAP2 SWAP1 PUSH2 0x275D JUMP JUMPDEST SWAP1 DUP2 MSTORE PUSH1 0x20 ADD PUSH1 0x40 MLOAD DUP1 SWAP2 SUB SWAP1 KECCAK256 PUSH1 0x0 PUSH2 0x100 EXP DUP2 SLOAD DUP2 PUSH1 0xFF MUL NOT AND SWAP1 DUP4 PUSH1 0xFF AND MUL OR SWAP1 SSTORE POP POP POP POP JUMP JUMPDEST PUSH1 0x0 PUSH1 0x5 PUSH1 0x0 DUP5 PUSH20 0xFFFFFFFFFFFFFFFFFFFFFFFFFFFFFFFFFFFFFFFF AND PUSH20 0xFFFFFFFFFFFFFFFFFFFFFFFFFFFFFFFFFFFFFFFF AND DUP2 MSTORE PUSH1 0x20 ADD SWAP1 DUP2 MSTORE PUSH1 0x20 ADD PUSH1 0x0 KECCAK256 PUSH1 0x0 DUP4 PUSH20 0xFFFFFFFFFFFFFFFFFFFFFFFFFFFFFFFFFFFFFFFF AND PUSH20 0xFFFFFFFFFFFFFFFFFFFFFFFFFFFFFFFFFFFFFFFF AND DUP2 MSTORE PUSH1 0x20 ADD SWAP1 DUP2 MSTORE PUSH1 0x20 ADD PUSH1 0x0 KECCAK256 PUSH1 0x0 SWAP1 SLOAD SWAP1 PUSH2 0x100 EXP SWAP1 DIV PUSH1 0xFF AND SWAP1 POP SWAP3 SWAP2 POP POP JUMP JUMPDEST PUSH2 0xEA3 PUSH2 0x1077 JUMP JUMPDEST PUSH20 0xFFFFFFFFFFFFFFFFFFFFFFFFFFFFFFFFFFFFFFFF AND PUSH2 0xEC1 PUSH2 0xBA1 JUMP JUMPDEST PUSH20 0xFFFFFFFFFFFFFFFFFFFFFFFFFFFFFFFFFFFFFFFF AND EQ PUSH2 0xF17 JUMPI PUSH1 0x40 MLOAD PUSH32 0x8C379A000000000000000000000000000000000000000000000000000000000 DUP2 MSTORE PUSH1 0x4 ADD PUSH2 0xF0E SWAP1 PUSH2 0x29DC JUMP JUMPDEST PUSH1 0x40 MLOAD DUP1 SWAP2 SUB SWAP1 REVERT JUMPDEST PUSH1 0x0 PUSH20 0xFFFFFFFFFFFFFFFFFFFFFFFFFFFFFFFFFFFFFFFF AND DUP2 PUSH20 0xFFFFFFFFFFFFFFFFFFFFFFFFFFFFFFFFFFFFFFFF AND EQ ISZERO PUSH2 0xF87 JUMPI PUSH1 0x40 MLOAD PUSH32 0x8C379A000000000000000000000000000000000000000000000000000000000 DUP2 MSTORE PUSH1 0x4 ADD PUSH2 0xF7E SWAP1 PUSH2 0x285C JUMP JUMPDEST PUSH1 0x40 MLOAD DUP1 SWAP2 SUB SWAP1 REVERT JUMPDEST PUSH2 0xF90 DUP2 PUSH2 0x16CA JUMP JUMPDEST POP JUMP JUMPDEST PUSH1 0x0 PUSH32 0x1FFC9A700000000000000000000000000000000000000000000000000000000 PUSH28 0xFFFFFFFFFFFFFFFFFFFFFFFFFFFFFFFFFFFFFFFFFFFFFFFFFFFFFFFF NOT AND DUP3 PUSH28 0xFFFFFFFFFFFFFFFFFFFFFFFFFFFFFFFFFFFFFFFFFFFFFFFFFFFFFFFF NOT AND EQ SWAP1 POP SWAP2 SWAP1 POP JUMP JUMPDEST PUSH1 0x0 DUP2 PUSH1 0x0 ADD SLOAD SWAP1 POP SWAP2 SWAP1 POP JUMP JUMPDEST PUSH1 0x0 DUP1 PUSH20 0xFFFFFFFFFFFFFFFFFFFFFFFFFFFFFFFFFFFFFFFF AND PUSH1 0x2 PUSH1 0x0 DUP5 DUP2 MSTORE PUSH1 0x20 ADD SWAP1 DUP2 MSTORE PUSH1 0x20 ADD PUSH1 0x0 KECCAK256 PUSH1 0x0 SWAP1 SLOAD SWAP1 PUSH2 0x100 EXP SWAP1 DIV PUSH20 0xFFFFFFFFFFFFFFFFFFFFFFFFFFFFFFFFFFFFFFFF AND PUSH20 0xFFFFFFFFFFFFFFFFFFFFFFFFFFFFFFFFFFFFFFFF AND EQ ISZERO SWAP1 POP SWAP2 SWAP1 POP JUMP JUMPDEST PUSH1 0x0 CALLER SWAP1 POP SWAP1 JUMP JUMPDEST DUP2 PUSH1 0x4 PUSH1 0x0 DUP4 DUP2 MSTORE PUSH1 0x20 ADD SWAP1 DUP2 MSTORE PUSH1 0x20 ADD PUSH1 0x0 KECCAK256 PUSH1 0x0 PUSH2 0x100 EXP DUP2 SLOAD DUP2 PUSH20 0xFFFFFFFFFFFFFFFFFFFFFFFFFFFFFFFFFFFFFFFF MUL NOT AND SWAP1 DUP4 PUSH20 0xFFFFFFFFFFFFFFFFFFFFFFFFFFFFFFFFFFFFFFFF AND MUL OR SWAP1 SSTORE POP DUP1 DUP3 PUSH20 0xFFFFFFFFFFFFFFFFFFFFFFFFFFFFFFFFFFFFFFFF AND PUSH2 0x10F2 DUP4 PUSH2 0x9AF JUMP JUMPDEST PUSH20 0xFFFFFFFFFFFFFFFFFFFFFFFFFFFFFFFFFFFFFFFF AND PUSH32 0x8C5BE1E5EBEC7D5BD14F71427D1E84F3DD0314C0F7B2291E5B200AC8C7C3B925 PUSH1 0x40 MLOAD PUSH1 0x40 MLOAD DUP1 SWAP2 SUB SWAP1 LOG4 POP POP JUMP JUMPDEST PUSH1 0x0 PUSH2 0x1143 DUP3 PUSH2 0x100B JUMP JUMPDEST PUSH2 0x1182 JUMPI PUSH1 0x40 MLOAD PUSH32 0x8C379A000000000000000000000000000000000000000000000000000000000 DUP2 MSTORE PUSH1 0x4 ADD PUSH2 0x1179 SWAP1 PUSH2 0x28DC JUMP JUMPDEST PUSH1 0x40 MLOAD DUP1 SWAP2 SUB SWAP1 REVERT JUMPDEST PUSH1 0x0 PUSH2 0x118D DUP4 PUSH2 0x9AF JUMP JUMPDEST SWAP1 POP DUP1 PUSH20 0xFFFFFFFFFFFFFFFFFFFFFFFFFFFFFFFFFFFFFFFF AND DUP5 PUSH20 0xFFFFFFFFFFFFFFFFFFFFFFFFFFFFFFFFFFFFFFFF AND EQ DUP1 PUSH2 0x11FC JUMPI POP DUP4 PUSH20 0xFFFFFFFFFFFFFFFFFFFFFFFFFFFFFFFFFFFFFFFF AND PUSH2 0x11E4 DUP5 PUSH2 0x666 JUMP JUMPDEST PUSH20 0xFFFFFFFFFFFFFFFFFFFFFFFFFFFFFFFFFFFFFFFF AND EQ JUMPDEST DUP1 PUSH2 0x120D JUMPI POP PUSH2 0x120C DUP2 DUP6 PUSH2 0xE07 JUMP JUMPDEST JUMPDEST SWAP2 POP POP SWAP3 SWAP2 POP POP JUMP JUMPDEST DUP3 PUSH20 0xFFFFFFFFFFFFFFFFFFFFFFFFFFFFFFFFFFFFFFFF AND PUSH2 0x1236 DUP3 PUSH2 0x9AF JUMP JUMPDEST PUSH20 0xFFFFFFFFFFFFFFFFFFFFFFFFFFFFFFFFFFFFFFFF AND EQ PUSH2 0x128C JUMPI PUSH1 0x40 MLOAD PUSH32 0x8C379A000000000000000000000000000000000000000000000000000000000 DUP2 MSTORE PUSH1 0x4 ADD PUSH2 0x1283 SWAP1 PUSH2 0x29FC JUMP JUMPDEST PUSH1 0x40 MLOAD DUP1 SWAP2 SUB SWAP1 REVERT JUMPDEST PUSH1 0x0 PUSH20 0xFFFFFFFFFFFFFFFFFFFFFFFFFFFFFFFFFFFFFFFF AND DUP3 PUSH20 0xFFFFFFFFFFFFFFFFFFFFFFFFFFFFFFFFFFFFFFFF AND EQ ISZERO PUSH2 0x12FC JUMPI PUSH1 0x40 MLOAD PUSH32 0x8C379A000000000000000000000000000000000000000000000000000000000 DUP2 MSTORE PUSH1 0x4 ADD PUSH2 0x12F3 SWAP1 PUSH2 0x289C JUMP JUMPDEST PUSH1 0x40 MLOAD DUP1 SWAP2 SUB SWAP1 REVERT JUMPDEST PUSH2 0x1307 DUP4 DUP4 DUP4 PUSH2 0x1AC9 JUMP JUMPDEST PUSH2 0x1312 PUSH1 0x0 DUP3 PUSH2 0x107F JUMP JUMPDEST PUSH1 0x1 PUSH1 0x3 PUSH1 0x0 DUP6 PUSH20 0xFFFFFFFFFFFFFFFFFFFFFFFFFFFFFFFFFFFFFFFF AND PUSH20 0xFFFFFFFFFFFFFFFFFFFFFFFFFFFFFFFFFFFFFFFF AND DUP2 MSTORE PUSH1 0x20 ADD SWAP1 DUP2 MSTORE PUSH1 0x20 ADD PUSH1 0x0 KECCAK256 PUSH1 0x0 DUP3 DUP3 SLOAD PUSH2 0x1362 SWAP2 SWAP1 PUSH2 0x2C28 JUMP JUMPDEST SWAP3 POP POP DUP2 SWAP1 SSTORE POP PUSH1 0x1 PUSH1 0x3 PUSH1 0x0 DUP5 PUSH20 0xFFFFFFFFFFFFFFFFFFFFFFFFFFFFFFFFFFFFFFFF AND PUSH20 0xFFFFFFFFFFFFFFFFFFFFFFFFFFFFFFFFFFFFFFFF AND DUP2 MSTORE PUSH1 0x20 ADD SWAP1 DUP2 MSTORE PUSH1 0x20 ADD PUSH1 0x0 KECCAK256 PUSH1 0x0 DUP3 DUP3 SLOAD PUSH2 0x13B9 SWAP2 SWAP1 PUSH2 0x2BA1 JUMP JUMPDEST SWAP3 POP POP DUP2 SWAP1 SSTORE POP DUP2 PUSH1 0x2 PUSH1 0x0 DUP4 DUP2 MSTORE PUSH1 0x20 ADD SWAP1 DUP2 MSTORE PUSH1 0x20 ADD PUSH1 0x0 KECCAK256 PUSH1 0x0 PUSH2 0x100 EXP DUP2 SLOAD DUP2 PUSH20 0xFFFFFFFFFFFFFFFFFFFFFFFFFFFFFFFFFFFFFFFF MUL NOT AND SWAP1 DUP4 PUSH20 0xFFFFFFFFFFFFFFFFFFFFFFFFFFFFFFFFFFFFFFFF AND MUL OR SWAP1 SSTORE POP DUP1 DUP3 PUSH20 0xFFFFFFFFFFFFFFFFFFFFFFFFFFFFFFFFFFFFFFFF AND DUP5 PUSH20 0xFFFFFFFFFFFFFFFFFFFFFFFFFFFFFFFFFFFFFFFF AND PUSH32 0xDDF252AD1BE2C89B69C2B068FC378DAA952BA7F163C4A11628F55A4DF523B3EF PUSH1 0x40 MLOAD PUSH1 0x40 MLOAD DUP1 SWAP2 SUB SWAP1 LOG4 POP POP POP JUMP JUMPDEST PUSH1 0x1 DUP2 PUSH1 0x0 ADD PUSH1 0x0 DUP3 DUP3 SLOAD ADD SWAP3 POP POP DUP2 SWAP1 SSTORE POP POP JUMP JUMPDEST PUSH1 0x0 PUSH20 0xFFFFFFFFFFFFFFFFFFFFFFFFFFFFFFFFFFFFFFFF AND DUP3 PUSH20 0xFFFFFFFFFFFFFFFFFFFFFFFFFFFFFFFFFFFFFFFF AND EQ ISZERO PUSH2 0x14F8 JUMPI PUSH1 0x40 MLOAD PUSH32 0x8C379A000000000000000000000000000000000000000000000000000000000 DUP2 MSTORE PUSH1 0x4 ADD PUSH2 0x14EF SWAP1 PUSH2 0x297C JUMP JUMPDEST PUSH1 0x40 MLOAD DUP1 SWAP2 SUB SWAP1 REVERT JUMPDEST PUSH2 0x1501 DUP2 PUSH2 0x100B JUMP JUMPDEST ISZERO PUSH2 0x1541 JUMPI PUSH1 0x40 MLOAD PUSH32 0x8C379A000000000000000000000000000000000000000000000000000000000 DUP2 MSTORE PUSH1 0x4 ADD PUSH2 0x1538 SWAP1 PUSH2 0x287C JUMP JUMPDEST PUSH1 0x40 MLOAD DUP1 SWAP2 SUB SWAP1 REVERT JUMPDEST PUSH2 0x154D PUSH1 0x0 DUP4 DUP4 PUSH2 0x1AC9 JUMP JUMPDEST PUSH1 0x1 PUSH1 0x3 PUSH1 0x0 DUP5 PUSH20 0xFFFFFFFFFFFFFFFFFFFFFFFFFFFFFFFFFFFFFFFF AND PUSH20 0xFFFFFFFFFFFFFFFFFFFFFFFFFFFFFFFFFFFFFFFF AND DUP2 MSTORE PUSH1 0x20 ADD SWAP1 DUP2 MSTORE PUSH1 0x20 ADD PUSH1 0x0 KECCAK256 PUSH1 0x0 DUP3 DUP3 SLOAD PUSH2 0x159D SWAP2 SWAP1 PUSH2 0x2BA1 JUMP JUMPDEST SWAP3 POP POP DUP2 SWAP1 SSTORE POP DUP2 PUSH1 0x2 PUSH1 0x0 DUP4 DUP2 MSTORE PUSH1 0x20 ADD SWAP1 DUP2 MSTORE PUSH1 0x20 ADD PUSH1 0x0 KECCAK256 PUSH1 0x0 PUSH2 0x100 EXP DUP2 SLOAD DUP2 PUSH20 0xFFFFFFFFFFFFFFFFFFFFFFFFFFFFFFFFFFFFFFFF MUL NOT AND SWAP1 DUP4 PUSH20 0xFFFFFFFFFFFFFFFFFFFFFFFFFFFFFFFFFFFFFFFF AND MUL OR SWAP1 SSTORE POP DUP1 DUP3 PUSH20 0xFFFFFFFFFFFFFFFFFFFFFFFFFFFFFFFFFFFFFFFF AND PUSH1 0x0 PUSH20 0xFFFFFFFFFFFFFFFFFFFFFFFFFFFFFFFFFFFFFFFF AND PUSH32 0xDDF252AD1BE2C89B69C2B068FC378DAA952BA7F163C4A11628F55A4DF523B3EF PUSH1 0x40 MLOAD PUSH1 0x40 MLOAD DUP1 SWAP2 SUB SWAP1 LOG4 POP POP JUMP JUMPDEST PUSH2 0x165F DUP3 PUSH2 0x100B JUMP JUMPDEST PUSH2 0x169E JUMPI PUSH1 0x40 MLOAD PUSH32 0x8C379A000000000000000000000000000000000000000000000000000000000 DUP2 MSTORE PUSH1 0x4 ADD PUSH2 0x1695 SWAP1 PUSH2 0x295C JUMP JUMPDEST PUSH1 0x40 MLOAD DUP1 SWAP2 SUB SWAP1 REVERT JUMPDEST DUP1 PUSH1 0x6 PUSH1 0x0 DUP5 DUP2 MSTORE PUSH1 0x20 ADD SWAP1 DUP2 MSTORE PUSH1 0x20 ADD PUSH1 0x0 KECCAK256 SWAP1 DUP1 MLOAD SWAP1 PUSH1 0x20 ADD SWAP1 PUSH2 0x16C5 SWAP3 SWAP2 SWAP1 PUSH2 0x1F3E JUMP JUMPDEST POP POP POP JUMP JUMPDEST PUSH1 0x0 PUSH1 0x7 PUSH1 0x0 SWAP1 SLOAD SWAP1 PUSH2 0x100 EXP SWAP1 DIV PUSH20 0xFFFFFFFFFFFFFFFFFFFFFFFFFFFFFFFFFFFFFFFF AND SWAP1 POP DUP2 PUSH1 0x7 PUSH1 0x0 PUSH2 0x100 EXP DUP2 SLOAD DUP2 PUSH20 0xFFFFFFFFFFFFFFFFFFFFFFFFFFFFFFFFFFFFFFFF MUL NOT AND SWAP1 DUP4 PUSH20 0xFFFFFFFFFFFFFFFFFFFFFFFFFFFFFFFFFFFFFFFF AND MUL OR SWAP1 SSTORE POP DUP2 PUSH20 0xFFFFFFFFFFFFFFFFFFFFFFFFFFFFFFFFFFFFFFFF AND DUP2 PUSH20 0xFFFFFFFFFFFFFFFFFFFFFFFFFFFFFFFFFFFFFFFF AND PUSH32 0x8BE0079C531659141344CD1FD0A4F28419497F9722A3DAAFE3B4186F6B6457E0 PUSH1 0x40 MLOAD PUSH1 0x40 MLOAD DUP1 SWAP2 SUB SWAP1 LOG3 POP POP JUMP JUMPDEST DUP2 PUSH20 0xFFFFFFFFFFFFFFFFFFFFFFFFFFFFFFFFFFFFFFFF AND DUP4 PUSH20 0xFFFFFFFFFFFFFFFFFFFFFFFFFFFFFFFFFFFFFFFF AND EQ ISZERO PUSH2 0x17FF JUMPI PUSH1 0x40 MLOAD PUSH32 0x8C379A000000000000000000000000000000000000000000000000000000000 DUP2 MSTORE PUSH1 0x4 ADD PUSH2 0x17F6 SWAP1 PUSH2 0x28BC JUMP JUMPDEST PUSH1 0x40 MLOAD DUP1 SWAP2 SUB SWAP1 REVERT JUMPDEST DUP1 PUSH1 0x5 PUSH1 0x0 DUP6 PUSH20 0xFFFFFFFFFFFFFFFFFFFFFFFFFFFFFFFFFFFFFFFF AND PUSH20 0xFFFFFFFFFFFFFFFFFFFFFFFFFFFFFFFFFFFFFFFF AND DUP2 MSTORE PUSH1 0x20 ADD SWAP1 DUP2 MSTORE PUSH1 0x20 ADD PUSH1 0x0 KECCAK256 PUSH1 0x0 DUP5 PUSH20 0xFFFFFFFFFFFFFFFFFFFFFFFFFFFFFFFFFFFFFFFF AND PUSH20 0xFFFFFFFFFFFFFFFFFFFFFFFFFFFFFFFFFFFFFFFF AND DUP2 MSTORE PUSH1 0x20 ADD SWAP1 DUP2 MSTORE PUSH1 0x20 ADD PUSH1 0x0 KECCAK256 PUSH1 0x0 PUSH2 0x100 EXP DUP2 SLOAD DUP2 PUSH1 0xFF MUL NOT AND SWAP1 DUP4 ISZERO ISZERO MUL OR SWAP1 SSTORE POP DUP2 PUSH20 0xFFFFFFFFFFFFFFFFFFFFFFFFFFFFFFFFFFFFFFFF AND DUP4 PUSH20 0xFFFFFFFFFFFFFFFFFFFFFFFFFFFFFFFFFFFFFFFF AND PUSH32 0x17307EAB39AB6107E8899845AD3D59BD9653F200F220920489CA2B5937696C31 DUP4 PUSH1 0x40 MLOAD PUSH2 0x18F0 SWAP2 SWAP1 PUSH2 0x27FF JUMP JUMPDEST PUSH1 0x40 MLOAD DUP1 SWAP2 SUB SWAP1 LOG3 POP POP POP JUMP JUMPDEST PUSH2 0x1908 DUP5 DUP5 DUP5 PUSH2 0x1216 JUMP JUMPDEST PUSH2 0x1914 DUP5 DUP5 DUP5 DUP5 PUSH2 0x1ACE JUMP JUMPDEST PUSH2 0x1953 JUMPI PUSH1 0x40 MLOAD PUSH32 0x8C379A000000000000000000000000000000000000000000000000000000000 DUP2 MSTORE PUSH1 0x4 ADD PUSH2 0x194A SWAP1 PUSH2 0x283C JUMP JUMPDEST PUSH1 0x40 MLOAD DUP1 SWAP2 SUB SWAP1 REVERT JUMPDEST POP POP POP POP JUMP JUMPDEST PUSH1 0x60 PUSH2 0x1964 DUP3 PUSH2 0x100B JUMP JUMPDEST PUSH2 0x19A3 JUMPI PUSH1 0x40 MLOAD PUSH32 0x8C379A000000000000000000000000000000000000000000000000000000000 DUP2 MSTORE PUSH1 0x4 ADD PUSH2 0x199A SWAP1 PUSH2 0x299C JUMP JUMPDEST PUSH1 0x40 MLOAD DUP1 SWAP2 SUB SWAP1 REVERT JUMPDEST PUSH1 0x0 PUSH1 0x6 PUSH1 0x0 DUP5 DUP2 MSTORE PUSH1 0x20 ADD SWAP1 DUP2 MSTORE PUSH1 0x20 ADD PUSH1 0x0 KECCAK256 DUP1 SLOAD PUSH2 0x19C3 SWAP1 PUSH2 0x2D12 JUMP JUMPDEST DUP1 PUSH1 0x1F ADD PUSH1 0x20 DUP1 SWAP2 DIV MUL PUSH1 0x20 ADD PUSH1 0x40 MLOAD SWAP1 DUP2 ADD PUSH1 0x40 MSTORE DUP1 SWAP3 SWAP2 SWAP1 DUP2 DUP2 MSTORE PUSH1 0x20 ADD DUP3 DUP1 SLOAD PUSH2 0x19EF SWAP1 PUSH2 0x2D12 JUMP JUMPDEST DUP1 ISZERO PUSH2 0x1A3C JUMPI DUP1 PUSH1 0x1F LT PUSH2 0x1A11 JUMPI PUSH2 0x100 DUP1 DUP4 SLOAD DIV MUL DUP4 MSTORE SWAP2 PUSH1 0x20 ADD SWAP2 PUSH2 0x1A3C JUMP JUMPDEST DUP3 ADD SWAP2 SWAP1 PUSH1 0x0 MSTORE PUSH1 0x20 PUSH1 0x0 KECCAK256 SWAP1 JUMPDEST DUP2 SLOAD DUP2 MSTORE SWAP1 PUSH1 0x1 ADD SWAP1 PUSH1 0x20 ADD DUP1 DUP4 GT PUSH2 0x1A1F JUMPI DUP3 SWAP1 SUB PUSH1 0x1F AND DUP3 ADD SWAP2 JUMPDEST POP POP POP POP POP SWAP1 POP PUSH1 0x0 PUSH2 0x1A4D PUSH2 0x1C65 JUMP JUMPDEST SWAP1 POP PUSH1 0x0 DUP2 MLOAD EQ ISZERO PUSH2 0x1A63 JUMPI DUP2 SWAP3 POP POP POP PUSH2 0x1AA6 JUMP JUMPDEST PUSH1 0x0 DUP3 MLOAD GT ISZERO PUSH2 0x1A98 JUMPI DUP1 DUP3 PUSH1 0x40 MLOAD PUSH1 0x20 ADD PUSH2 0x1A80 SWAP3 SWAP2 SWAP1 PUSH2 0x2774 JUMP JUMPDEST PUSH1 0x40 MLOAD PUSH1 0x20 DUP2 DUP4 SUB SUB DUP2 MSTORE SWAP1 PUSH1 0x40 MSTORE SWAP3 POP POP POP PUSH2 0x1AA6 JUMP JUMPDEST PUSH2 0x1AA1 DUP5 PUSH2 0x1C7C JUMP JUMPDEST SWAP3 POP POP POP JUMPDEST SWAP2 SWAP1 POP JUMP JUMPDEST PUSH2 0x1AC5 DUP3 DUP3 PUSH1 0x40 MLOAD DUP1 PUSH1 0x20 ADD PUSH1 0x40 MSTORE DUP1 PUSH1 0x0 DUP2 MSTORE POP PUSH2 0x1D23 JUMP JUMPDEST POP POP JUMP JUMPDEST POP POP POP JUMP JUMPDEST PUSH1 0x0 PUSH2 0x1AEF DUP5 PUSH20 0xFFFFFFFFFFFFFFFFFFFFFFFFFFFFFFFFFFFFFFFF AND PUSH2 0x1D7E JUMP JUMPDEST ISZERO PUSH2 0x1C58 JUMPI DUP4 PUSH20 0xFFFFFFFFFFFFFFFFFFFFFFFFFFFFFFFFFFFFFFFF AND PUSH4 0x150B7A02 PUSH2 0x1B18 PUSH2 0x1077 JUMP JUMPDEST DUP8 DUP7 DUP7 PUSH1 0x40 MLOAD DUP6 PUSH4 0xFFFFFFFF AND PUSH1 0xE0 SHL DUP2 MSTORE PUSH1 0x4 ADD PUSH2 0x1B3A SWAP5 SWAP4 SWAP3 SWAP2 SWAP1 PUSH2 0x27B3 JUMP JUMPDEST PUSH1 0x20 PUSH1 0x40 MLOAD DUP1 DUP4 SUB DUP2 PUSH1 0x0 DUP8 DUP1 EXTCODESIZE ISZERO DUP1 ISZERO PUSH2 0x1B54 JUMPI PUSH1 0x0 DUP1 REVERT JUMPDEST POP GAS CALL SWAP3 POP POP POP DUP1 ISZERO PUSH2 0x1B85 JUMPI POP PUSH1 0x40 MLOAD RETURNDATASIZE PUSH1 0x1F NOT PUSH1 0x1F DUP3 ADD AND DUP3 ADD DUP1 PUSH1 0x40 MSTORE POP DUP2 ADD SWAP1 PUSH2 0x1B82 SWAP2 SWAP1 PUSH2 0x233E JUMP JUMPDEST PUSH1 0x1 JUMPDEST PUSH2 0x1C08 JUMPI RETURNDATASIZE DUP1 PUSH1 0x0 DUP2 EQ PUSH2 0x1BB5 JUMPI PUSH1 0x40 MLOAD SWAP2 POP PUSH1 0x1F NOT PUSH1 0x3F RETURNDATASIZE ADD AND DUP3 ADD PUSH1 0x40 MSTORE RETURNDATASIZE DUP3 MSTORE RETURNDATASIZE PUSH1 0x0 PUSH1 0x20 DUP5 ADD RETURNDATACOPY PUSH2 0x1BBA JUMP JUMPDEST PUSH1 0x60 SWAP2 POP JUMPDEST POP PUSH1 0x0 DUP2 MLOAD EQ ISZERO PUSH2 0x1C00 JUMPI PUSH1 0x40 MLOAD PUSH32 0x8C379A000000000000000000000000000000000000000000000000000000000 DUP2 MSTORE PUSH1 0x4 ADD PUSH2 0x1BF7 SWAP1 PUSH2 0x283C JUMP JUMPDEST PUSH1 0x40 MLOAD DUP1 SWAP2 SUB SWAP1 REVERT JUMPDEST DUP1 MLOAD DUP2 PUSH1 0x20 ADD REVERT JUMPDEST PUSH4 0x150B7A02 PUSH1 0xE0 SHL PUSH28 0xFFFFFFFFFFFFFFFFFFFFFFFFFFFFFFFFFFFFFFFFFFFFFFFFFFFFFFFF NOT AND DUP2 PUSH28 0xFFFFFFFFFFFFFFFFFFFFFFFFFFFFFFFFFFFFFFFFFFFFFFFFFFFFFFFF NOT AND EQ SWAP2 POP POP PUSH2 0x1C5D JUMP JUMPDEST PUSH1 0x1 SWAP1 POP JUMPDEST SWAP5 SWAP4 POP POP POP POP JUMP JUMPDEST PUSH1 0x60 PUSH1 0x40 MLOAD DUP1 PUSH1 0x20 ADD PUSH1 0x40 MSTORE DUP1 PUSH1 0x0 DUP2 MSTORE POP SWAP1 POP SWAP1 JUMP JUMPDEST PUSH1 0x60 PUSH2 0x1C87 DUP3 PUSH2 0x100B JUMP JUMPDEST PUSH2 0x1CC6 JUMPI PUSH1 0x40 MLOAD PUSH32 0x8C379A000000000000000000000000000000000000000000000000000000000 DUP2 MSTORE PUSH1 0x4 ADD PUSH2 0x1CBD SWAP1 PUSH2 0x2A1C JUMP JUMPDEST PUSH1 0x40 MLOAD DUP1 SWAP2 SUB SWAP1 REVERT JUMPDEST PUSH1 0x0 PUSH2 0x1CD0 PUSH2 0x1C65 JUMP JUMPDEST SWAP1 POP PUSH1 0x0 DUP2 MLOAD GT PUSH2 0x1CF0 JUMPI PUSH1 0x40 MLOAD DUP1 PUSH1 0x20 ADD PUSH1 0x40 MSTORE DUP1 PUSH1 0x0 DUP2 MSTORE POP PUSH2 0x1D1B JUMP JUMPDEST DUP1 PUSH2 0x1CFA DUP5 PUSH2 0x1D91 JUMP JUMPDEST PUSH1 0x40 MLOAD PUSH1 0x20 ADD PUSH2 0x1D0B SWAP3 SWAP2 SWAP1 PUSH2 0x2774 JUMP JUMPDEST PUSH1 0x40 MLOAD PUSH1 0x20 DUP2 DUP4 SUB SUB DUP2 MSTORE SWAP1 PUSH1 0x40 MSTORE JUMPDEST SWAP2 POP POP SWAP2 SWAP1 POP JUMP JUMPDEST PUSH2 0x1D2D DUP4 DUP4 PUSH2 0x1488 JUMP JUMPDEST PUSH2 0x1D3A PUSH1 0x0 DUP5 DUP5 DUP5 PUSH2 0x1ACE JUMP JUMPDEST PUSH2 0x1D79 JUMPI PUSH1 0x40 MLOAD PUSH32 0x8C379A000000000000000000000000000000000000000000000000000000000 DUP2 MSTORE PUSH1 0x4 ADD PUSH2 0x1D70 SWAP1 PUSH2 0x283C JUMP JUMPDEST PUSH1 0x40 MLOAD DUP1 SWAP2 SUB SWAP1 REVERT JUMPDEST POP POP POP JUMP JUMPDEST PUSH1 0x0 DUP1 DUP3 EXTCODESIZE SWAP1 POP PUSH1 0x0 DUP2 GT SWAP2 POP POP SWAP2 SWAP1 POP JUMP JUMPDEST PUSH1 0x60 PUSH1 0x0 DUP3 EQ ISZERO PUSH2 0x1DD9 JUMPI PUSH1 0x40 MLOAD DUP1 PUSH1 0x40 ADD PUSH1 0x40 MSTORE DUP1 PUSH1 0x1 DUP2 MSTORE PUSH1 0x20 ADD PUSH32 0x3000000000000000000000000000000000000000000000000000000000000000 DUP2 MSTORE POP SWAP1 POP PUSH2 0x1F39 JUMP JUMPDEST PUSH1 0x0 DUP3 SWAP1 POP PUSH1 0x0 JUMPDEST PUSH1 0x0 DUP3 EQ PUSH2 0x1E0B JUMPI DUP1 DUP1 PUSH2 0x1DF4 SWAP1 PUSH2 0x2D75 JUMP JUMPDEST SWAP2 POP POP PUSH1 0xA DUP3 PUSH2 0x1E04 SWAP2 SWAP1 PUSH2 0x2BF7 JUMP JUMPDEST SWAP2 POP PUSH2 0x1DE1 JUMP JUMPDEST PUSH1 0x0 DUP2 PUSH8 0xFFFFFFFFFFFFFFFF DUP2 GT ISZERO PUSH2 0x1E4D JUMPI PUSH32 0x4E487B7100000000000000000000000000000000000000000000000000000000 PUSH1 0x0 MSTORE PUSH1 0x41 PUSH1 0x4 MSTORE PUSH1 0x24 PUSH1 0x0 REVERT JUMPDEST PUSH1 0x40 MLOAD SWAP1 DUP1 DUP3 MSTORE DUP1 PUSH1 0x1F ADD PUSH1 0x1F NOT AND PUSH1 0x20 ADD DUP3 ADD PUSH1 0x40 MSTORE DUP1 ISZERO PUSH2 0x1E7F JUMPI DUP2 PUSH1 0x20 ADD PUSH1 0x1 DUP3 MUL DUP1 CALLDATASIZE DUP4 CALLDATACOPY DUP1 DUP3 ADD SWAP2 POP POP SWAP1 POP JUMPDEST POP SWAP1 POP JUMPDEST PUSH1 0x0 DUP6 EQ PUSH2 0x1F32 JUMPI PUSH1 0x1 DUP3 PUSH2 0x1E98 SWAP2 SWAP1 PUSH2 0x2C28 JUMP JUMPDEST SWAP2 POP PUSH1 0xA DUP6 PUSH2 0x1EA7 SWAP2 SWAP1 PUSH2 0x2DBE JUMP JUMPDEST PUSH1 0x30 PUSH2 0x1EB3 SWAP2 SWAP1 PUSH2 0x2BA1 JUMP JUMPDEST PUSH1 0xF8 SHL DUP2 DUP4 DUP2 MLOAD DUP2 LT PUSH2 0x1EEF JUMPI PUSH32 0x4E487B7100000000000000000000000000000000000000000000000000000000 PUSH1 0x0 MSTORE PUSH1 0x32 PUSH1 0x4 MSTORE PUSH1 0x24 PUSH1 0x0 REVERT JUMPDEST PUSH1 0x20 ADD ADD SWAP1 PUSH31 0xFFFFFFFFFFFFFFFFFFFFFFFFFFFFFFFFFFFFFFFFFFFFFFFFFFFFFFFFFFFFFF NOT AND SWAP1 DUP2 PUSH1 0x0 BYTE SWAP1 MSTORE8 POP PUSH1 0xA DUP6 PUSH2 0x1F2B SWAP2 SWAP1 PUSH2 0x2BF7 JUMP JUMPDEST SWAP5 POP PUSH2 0x1E83 JUMP JUMPDEST DUP1 SWAP4 POP POP POP POP JUMPDEST SWAP2 SWAP1 POP JUMP JUMPDEST DUP3 DUP1 SLOAD PUSH2 0x1F4A SWAP1 PUSH2 0x2D12 JUMP JUMPDEST SWAP1 PUSH1 0x0 MSTORE PUSH1 0x20 PUSH1 0x0 KECCAK256 SWAP1 PUSH1 0x1F ADD PUSH1 0x20 SWAP1 DIV DUP2 ADD SWAP3 DUP3 PUSH2 0x1F6C JUMPI PUSH1 0x0 DUP6 SSTORE PUSH2 0x1FB3 JUMP JUMPDEST DUP3 PUSH1 0x1F LT PUSH2 0x1F85 JUMPI DUP1 MLOAD PUSH1 0xFF NOT AND DUP4 DUP1 ADD OR DUP6 SSTORE PUSH2 0x1FB3 JUMP JUMPDEST DUP3 DUP1 ADD PUSH1 0x1 ADD DUP6 SSTORE DUP3 ISZERO PUSH2 0x1FB3 JUMPI SWAP2 DUP3 ADD JUMPDEST DUP3 DUP2 GT ISZERO PUSH2 0x1FB2 JUMPI DUP3 MLOAD DUP3 SSTORE SWAP2 PUSH1 0x20 ADD SWAP2 SWAP1 PUSH1 0x1 ADD SWAP1 PUSH2 0x1F97 JUMP JUMPDEST JUMPDEST POP SWAP1 POP PUSH2 0x1FC0 SWAP2 SWAP1 PUSH2 0x1FC4 JUMP JUMPDEST POP SWAP1 JUMP JUMPDEST JUMPDEST DUP1 DUP3 GT ISZERO PUSH2 0x1FDD JUMPI PUSH1 0x0 DUP2 PUSH1 0x0 SWAP1 SSTORE POP PUSH1 0x1 ADD PUSH2 0x1FC5 JUMP JUMPDEST POP SWAP1 JUMP JUMPDEST PUSH1 0x0 PUSH2 0x1FF4 PUSH2 0x1FEF DUP5 PUSH2 0x2AFC JUMP JUMPDEST PUSH2 0x2AD7 JUMP JUMPDEST SWAP1 POP DUP3 DUP2 MSTORE PUSH1 0x20 DUP2 ADD DUP5 DUP5 DUP5 ADD GT ISZERO PUSH2 0x200C JUMPI PUSH1 0x0 DUP1 REVERT JUMPDEST PUSH2 0x2017 DUP5 DUP3 DUP6 PUSH2 0x2CD0 JUMP JUMPDEST POP SWAP4 SWAP3 POP POP POP JUMP JUMPDEST PUSH1 0x0 PUSH2 0x2032 PUSH2 0x202D DUP5 PUSH2 0x2B2D JUMP JUMPDEST PUSH2 0x2AD7 JUMP JUMPDEST SWAP1 POP DUP3 DUP2 MSTORE PUSH1 0x20 DUP2 ADD DUP5 DUP5 DUP5 ADD GT ISZERO PUSH2 0x204A JUMPI PUSH1 0x0 DUP1 REVERT JUMPDEST PUSH2 0x2055 DUP5 DUP3 DUP6 PUSH2 0x2CD0 JUMP JUMPDEST POP SWAP4 SWAP3 POP POP POP JUMP JUMPDEST PUSH1 0x0 DUP2 CALLDATALOAD SWAP1 POP PUSH2 0x206C DUP2 PUSH2 0x3404 JUMP JUMPDEST SWAP3 SWAP2 POP POP JUMP JUMPDEST PUSH1 0x0 DUP2 CALLDATALOAD SWAP1 POP PUSH2 0x2081 DUP2 PUSH2 0x341B JUMP JUMPDEST SWAP3 SWAP2 POP POP JUMP JUMPDEST PUSH1 0x0 DUP2 CALLDATALOAD SWAP1 POP PUSH2 0x2096 DUP2 PUSH2 0x3432 JUMP JUMPDEST SWAP3 SWAP2 POP POP JUMP JUMPDEST PUSH1 0x0 DUP2 MLOAD SWAP1 POP PUSH2 0x20AB DUP2 PUSH2 0x3432 JUMP JUMPDEST SWAP3 SWAP2 POP POP JUMP JUMPDEST PUSH1 0x0 DUP3 PUSH1 0x1F DUP4 ADD SLT PUSH2 0x20C2 JUMPI PUSH1 0x0 DUP1 REVERT JUMPDEST DUP2 CALLDATALOAD PUSH2 0x20D2 DUP5 DUP3 PUSH1 0x20 DUP7 ADD PUSH2 0x1FE1 JUMP JUMPDEST SWAP2 POP POP SWAP3 SWAP2 POP POP JUMP JUMPDEST PUSH1 0x0 DUP3 PUSH1 0x1F DUP4 ADD SLT PUSH2 0x20EC JUMPI PUSH1 0x0 DUP1 REVERT JUMPDEST DUP2 CALLDATALOAD PUSH2 0x20FC DUP5 DUP3 PUSH1 0x20 DUP7 ADD PUSH2 0x201F JUMP JUMPDEST SWAP2 POP POP SWAP3 SWAP2 POP POP JUMP JUMPDEST PUSH1 0x0 DUP2 CALLDATALOAD SWAP1 POP PUSH2 0x2114 DUP2 PUSH2 0x3449 JUMP JUMPDEST SWAP3 SWAP2 POP POP JUMP JUMPDEST PUSH1 0x0 PUSH1 0x20 DUP3 DUP5 SUB SLT ISZERO PUSH2 0x212C JUMPI PUSH1 0x0 DUP1 REVERT JUMPDEST PUSH1 0x0 PUSH2 0x213A DUP5 DUP3 DUP6 ADD PUSH2 0x205D JUMP JUMPDEST SWAP2 POP POP SWAP3 SWAP2 POP POP JUMP JUMPDEST PUSH1 0x0 DUP1 PUSH1 0x40 DUP4 DUP6 SUB SLT ISZERO PUSH2 0x2156 JUMPI PUSH1 0x0 DUP1 REVERT JUMPDEST PUSH1 0x0 PUSH2 0x2164 DUP6 DUP3 DUP7 ADD PUSH2 0x205D JUMP JUMPDEST SWAP3 POP POP PUSH1 0x20 PUSH2 0x2175 DUP6 DUP3 DUP7 ADD PUSH2 0x205D JUMP JUMPDEST SWAP2 POP POP SWAP3 POP SWAP3 SWAP1 POP JUMP JUMPDEST PUSH1 0x0 DUP1 PUSH1 0x0 PUSH1 0x60 DUP5 DUP7 SUB SLT ISZERO PUSH2 0x2194 JUMPI PUSH1 0x0 DUP1 REVERT JUMPDEST PUSH1 0x0 PUSH2 0x21A2 DUP7 DUP3 DUP8 ADD PUSH2 0x205D JUMP JUMPDEST SWAP4 POP POP PUSH1 0x20 PUSH2 0x21B3 DUP7 DUP3 DUP8 ADD PUSH2 0x205D JUMP JUMPDEST SWAP3 POP POP PUSH1 0x40 PUSH2 0x21C4 DUP7 DUP3 DUP8 ADD PUSH2 0x2105 JUMP JUMPDEST SWAP2 POP POP SWAP3 POP SWAP3 POP SWAP3 JUMP JUMPDEST PUSH1 0x0 DUP1 PUSH1 0x0 DUP1 PUSH1 0x80 DUP6 DUP8 SUB SLT ISZERO PUSH2 0x21E4 JUMPI PUSH1 0x0 DUP1 REVERT JUMPDEST PUSH1 0x0 PUSH2 0x21F2 DUP8 DUP3 DUP9 ADD PUSH2 0x205D JUMP JUMPDEST SWAP5 POP POP PUSH1 0x20 PUSH2 0x2203 DUP8 DUP3 DUP9 ADD PUSH2 0x205D JUMP JUMPDEST SWAP4 POP POP PUSH1 0x40 PUSH2 0x2214 DUP8 DUP3 DUP9 ADD PUSH2 0x2105 JUMP JUMPDEST SWAP3 POP POP PUSH1 0x60 DUP6 ADD CALLDATALOAD PUSH8 0xFFFFFFFFFFFFFFFF DUP2 GT ISZERO PUSH2 0x2231 JUMPI PUSH1 0x0 DUP1 REVERT JUMPDEST PUSH2 0x223D DUP8 DUP3 DUP9 ADD PUSH2 0x20B1 JUMP JUMPDEST SWAP2 POP POP SWAP3 SWAP6 SWAP2 SWAP5 POP SWAP3 POP JUMP JUMPDEST PUSH1 0x0 DUP1 PUSH1 0x40 DUP4 DUP6 SUB SLT ISZERO PUSH2 0x225C JUMPI PUSH1 0x0 DUP1 REVERT JUMPDEST PUSH1 0x0 PUSH2 0x226A DUP6 DUP3 DUP7 ADD PUSH2 0x205D JUMP JUMPDEST SWAP3 POP POP PUSH1 0x20 PUSH2 0x227B DUP6 DUP3 DUP7 ADD PUSH2 0x2072 JUMP JUMPDEST SWAP2 POP POP SWAP3 POP SWAP3 SWAP1 POP JUMP JUMPDEST PUSH1 0x0 DUP1 PUSH1 0x40 DUP4 DUP6 SUB SLT ISZERO PUSH2 0x2298 JUMPI PUSH1 0x0 DUP1 REVERT JUMPDEST PUSH1 0x0 PUSH2 0x22A6 DUP6 DUP3 DUP7 ADD PUSH2 0x205D JUMP JUMPDEST SWAP3 POP POP PUSH1 0x20 DUP4 ADD CALLDATALOAD PUSH8 0xFFFFFFFFFFFFFFFF DUP2 GT ISZERO PUSH2 0x22C3 JUMPI PUSH1 0x0 DUP1 REVERT JUMPDEST PUSH2 0x22CF DUP6 DUP3 DUP7 ADD PUSH2 0x20DB JUMP JUMPDEST SWAP2 POP POP SWAP3 POP SWAP3 SWAP1 POP JUMP JUMPDEST PUSH1 0x0 DUP1 PUSH1 0x40 DUP4 DUP6 SUB SLT ISZERO PUSH2 0x22EC JUMPI PUSH1 0x0 DUP1 REVERT JUMPDEST PUSH1 0x0 PUSH2 0x22FA DUP6 DUP3 DUP7 ADD PUSH2 0x205D JUMP JUMPDEST SWAP3 POP POP PUSH1 0x20 PUSH2 0x230B DUP6 DUP3 DUP7 ADD PUSH2 0x2105 JUMP JUMPDEST SWAP2 POP POP SWAP3 POP SWAP3 SWAP1 POP JUMP JUMPDEST PUSH1 0x0 PUSH1 0x20 DUP3 DUP5 SUB SLT ISZERO PUSH2 0x2327 JUMPI PUSH1 0x0 DUP1 REVERT JUMPDEST PUSH1 0x0 PUSH2 0x2335 DUP5 DUP3 DUP6 ADD PUSH2 0x2087 JUMP JUMPDEST SWAP2 POP POP SWAP3 SWAP2 POP POP JUMP JUMPDEST PUSH1 0x0 PUSH1 0x20 DUP3 DUP5 SUB SLT ISZERO PUSH2 0x2350 JUMPI PUSH1 0x0 DUP1 REVERT JUMPDEST PUSH1 0x0 PUSH2 0x235E DUP5 DUP3 DUP6 ADD PUSH2 0x209C JUMP JUMPDEST SWAP2 POP POP SWAP3 SWAP2 POP POP JUMP JUMPDEST PUSH1 0x0 PUSH1 0x20 DUP3 DUP5 SUB SLT ISZERO PUSH2 0x2379 JUMPI PUSH1 0x0 DUP1 REVERT JUMPDEST PUSH1 0x0 DUP3 ADD CALLDATALOAD PUSH8 0xFFFFFFFFFFFFFFFF DUP2 GT ISZERO PUSH2 0x2393 JUMPI PUSH1 0x0 DUP1 REVERT JUMPDEST PUSH2 0x239F DUP5 DUP3 DUP6 ADD PUSH2 0x20DB JUMP JUMPDEST SWAP2 POP POP SWAP3 SWAP2 POP POP JUMP JUMPDEST PUSH1 0x0 PUSH1 0x20 DUP3 DUP5 SUB SLT ISZERO PUSH2 0x23BA JUMPI PUSH1 0x0 DUP1 REVERT JUMPDEST PUSH1 0x0 PUSH2 0x23C8 DUP5 DUP3 DUP6 ADD PUSH2 0x2105 JUMP JUMPDEST SWAP2 POP POP SWAP3 SWAP2 POP POP JUMP JUMPDEST PUSH2 0x23DA DUP2 PUSH2 0x2C5C JUMP JUMPDEST DUP3 MSTORE POP POP JUMP JUMPDEST PUSH2 0x23E9 DUP2 PUSH2 0x2C6E JUMP JUMPDEST DUP3 MSTORE POP POP JUMP JUMPDEST PUSH1 0x0 PUSH2 0x23FA DUP3 PUSH2 0x2B5E JUMP JUMPDEST PUSH2 0x2404 DUP2 DUP6 PUSH2 0x2B74 JUMP JUMPDEST SWAP4 POP PUSH2 0x2414 DUP2 DUP6 PUSH1 0x20 DUP7 ADD PUSH2 0x2CDF JUMP JUMPDEST PUSH2 0x241D DUP2 PUSH2 0x2EAB JUMP JUMPDEST DUP5 ADD SWAP2 POP POP SWAP3 SWAP2 POP POP JUMP JUMPDEST PUSH1 0x0 PUSH2 0x2433 DUP3 PUSH2 0x2B69 JUMP JUMPDEST PUSH2 0x243D DUP2 DUP6 PUSH2 0x2B85 JUMP JUMPDEST SWAP4 POP PUSH2 0x244D DUP2 DUP6 PUSH1 0x20 DUP7 ADD PUSH2 0x2CDF JUMP JUMPDEST PUSH2 0x2456 DUP2 PUSH2 0x2EAB JUMP JUMPDEST DUP5 ADD SWAP2 POP POP SWAP3 SWAP2 POP POP JUMP JUMPDEST PUSH1 0x0 PUSH2 0x246C DUP3 PUSH2 0x2B69 JUMP JUMPDEST PUSH2 0x2476 DUP2 DUP6 PUSH2 0x2B96 JUMP JUMPDEST SWAP4 POP PUSH2 0x2486 DUP2 DUP6 PUSH1 0x20 DUP7 ADD PUSH2 0x2CDF JUMP JUMPDEST DUP1 DUP5 ADD SWAP2 POP POP SWAP3 SWAP2 POP POP JUMP JUMPDEST PUSH1 0x0 PUSH2 0x249F PUSH1 0x32 DUP4 PUSH2 0x2B85 JUMP JUMPDEST SWAP2 POP PUSH2 0x24AA DUP3 PUSH2 0x2EBC JUMP JUMPDEST PUSH1 0x40 DUP3 ADD SWAP1 POP SWAP2 SWAP1 POP JUMP JUMPDEST PUSH1 0x0 PUSH2 0x24C2 PUSH1 0x26 DUP4 PUSH2 0x2B85 JUMP JUMPDEST SWAP2 POP PUSH2 0x24CD DUP3 PUSH2 0x2F0B JUMP JUMPDEST PUSH1 0x40 DUP3 ADD SWAP1 POP SWAP2 SWAP1 POP JUMP JUMPDEST PUSH1 0x0 PUSH2 0x24E5 PUSH1 0x1C DUP4 PUSH2 0x2B85 JUMP JUMPDEST SWAP2 POP PUSH2 0x24F0 DUP3 PUSH2 0x2F5A JUMP JUMPDEST PUSH1 0x20 DUP3 ADD SWAP1 POP SWAP2 SWAP1 POP JUMP JUMPDEST PUSH1 0x0 PUSH2 0x2508 PUSH1 0x24 DUP4 PUSH2 0x2B85 JUMP JUMPDEST SWAP2 POP PUSH2 0x2513 DUP3 PUSH2 0x2F83 JUMP JUMPDEST PUSH1 0x40 DUP3 ADD SWAP1 POP SWAP2 SWAP1 POP JUMP JUMPDEST PUSH1 0x0 PUSH2 0x252B PUSH1 0x19 DUP4 PUSH2 0x2B85 JUMP JUMPDEST SWAP2 POP PUSH2 0x2536 DUP3 PUSH2 0x2FD2 JUMP JUMPDEST PUSH1 0x20 DUP3 ADD SWAP1 POP SWAP2 SWAP1 POP JUMP JUMPDEST PUSH1 0x0 PUSH2 0x254E PUSH1 0x2C DUP4 PUSH2 0x2B85 JUMP JUMPDEST SWAP2 POP PUSH2 0x2559 DUP3 PUSH2 0x2FFB JUMP JUMPDEST PUSH1 0x40 DUP3 ADD SWAP1 POP SWAP2 SWAP1 POP JUMP JUMPDEST PUSH1 0x0 PUSH2 0x2571 PUSH1 0x38 DUP4 PUSH2 0x2B85 JUMP JUMPDEST SWAP2 POP PUSH2 0x257C DUP3 PUSH2 0x304A JUMP JUMPDEST PUSH1 0x40 DUP3 ADD SWAP1 POP SWAP2 SWAP1 POP JUMP JUMPDEST PUSH1 0x0 PUSH2 0x2594 PUSH1 0x2A DUP4 PUSH2 0x2B85 JUMP JUMPDEST SWAP2 POP PUSH2 0x259F DUP3 PUSH2 0x3099 JUMP JUMPDEST PUSH1 0x40 DUP3 ADD SWAP1 POP SWAP2 SWAP1 POP JUMP JUMPDEST PUSH1 0x0 PUSH2 0x25B7 PUSH1 0x29 DUP4 PUSH2 0x2B85 JUMP JUMPDEST SWAP2 POP PUSH2 0x25C2 DUP3 PUSH2 0x30E8 JUMP JUMPDEST PUSH1 0x40 DUP3 ADD SWAP1 POP SWAP2 SWAP1 POP JUMP JUMPDEST PUSH1 0x0 PUSH2 0x25DA PUSH1 0x2E DUP4 PUSH2 0x2B85 JUMP JUMPDEST SWAP2 POP PUSH2 0x25E5 DUP3 PUSH2 0x3137 JUMP JUMPDEST PUSH1 0x40 DUP3 ADD SWAP1 POP SWAP2 SWAP1 POP JUMP JUMPDEST PUSH1 0x0 PUSH2 0x25FD PUSH1 0x20 DUP4 PUSH2 0x2B85 JUMP JUMPDEST SWAP2 POP PUSH2 0x2608 DUP3 PUSH2 0x3186 JUMP JUMPDEST PUSH1 0x20 DUP3 ADD SWAP1 POP SWAP2 SWAP1 POP JUMP JUMPDEST PUSH1 0x0 PUSH2 0x2620 PUSH1 0x31 DUP4 PUSH2 0x2B85 JUMP JUMPDEST SWAP2 POP PUSH2 0x262B DUP3 PUSH2 0x31AF JUMP JUMPDEST PUSH1 0x40 DUP3 ADD SWAP1 POP SWAP2 SWAP1 POP JUMP JUMPDEST PUSH1 0x0 PUSH2 0x2643 PUSH1 0x2C DUP4 PUSH2 0x2B85 JUMP JUMPDEST SWAP2 POP PUSH2 0x264E DUP3 PUSH2 0x31FE JUMP JUMPDEST PUSH1 0x40 DUP3 ADD SWAP1 POP SWAP2 SWAP1 POP JUMP JUMPDEST PUSH1 0x0 PUSH2 0x2666 PUSH1 0x20 DUP4 PUSH2 0x2B85 JUMP JUMPDEST SWAP2 POP PUSH2 0x2671 DUP3 PUSH2 0x324D JUMP JUMPDEST PUSH1 0x20 DUP3 ADD SWAP1 POP SWAP2 SWAP1 POP JUMP JUMPDEST PUSH1 0x0 PUSH2 0x2689 PUSH1 0x29 DUP4 PUSH2 0x2B85 JUMP JUMPDEST SWAP2 POP PUSH2 0x2694 DUP3 PUSH2 0x3276 JUMP JUMPDEST PUSH1 0x40 DUP3 ADD SWAP1 POP SWAP2 SWAP1 POP JUMP JUMPDEST PUSH1 0x0 PUSH2 0x26AC PUSH1 0x2F DUP4 PUSH2 0x2B85 JUMP JUMPDEST SWAP2 POP PUSH2 0x26B7 DUP3 PUSH2 0x32C5 JUMP JUMPDEST PUSH1 0x40 DUP3 ADD SWAP1 POP SWAP2 SWAP1 POP JUMP JUMPDEST PUSH1 0x0 PUSH2 0x26CF PUSH1 0x21 DUP4 PUSH2 0x2B85 JUMP JUMPDEST SWAP2 POP PUSH2 0x26DA DUP3 PUSH2 0x3314 JUMP JUMPDEST PUSH1 0x40 DUP3 ADD SWAP1 POP SWAP2 SWAP1 POP JUMP JUMPDEST PUSH1 0x0 PUSH2 0x26F2 PUSH1 0x31 DUP4 PUSH2 0x2B85 JUMP JUMPDEST SWAP2 POP PUSH2 0x26FD DUP3 PUSH2 0x3363 JUMP JUMPDEST PUSH1 0x40 DUP3 ADD SWAP1 POP SWAP2 SWAP1 POP JUMP JUMPDEST PUSH1 0x0 PUSH2 0x2715 PUSH1 0x13 DUP4 PUSH2 0x2B85 JUMP JUMPDEST SWAP2 POP PUSH2 0x2720 DUP3 PUSH2 0x33B2 JUMP JUMPDEST PUSH1 0x20 DUP3 ADD SWAP1 POP SWAP2 SWAP1 POP JUMP JUMPDEST PUSH1 0x0 PUSH2 0x2738 PUSH1 0xF DUP4 PUSH2 0x2B85 JUMP JUMPDEST SWAP2 POP PUSH2 0x2743 DUP3 PUSH2 0x33DB JUMP JUMPDEST PUSH1 0x20 DUP3 ADD SWAP1 POP SWAP2 SWAP1 POP JUMP JUMPDEST PUSH2 0x2757 DUP2 PUSH2 0x2CC6 JUMP JUMPDEST DUP3 MSTORE POP POP JUMP JUMPDEST PUSH1 0x0 PUSH2 0x2769 DUP3 DUP5 PUSH2 0x2461 JUMP JUMPDEST SWAP2 POP DUP2 SWAP1 POP SWAP3 SWAP2 POP POP JUMP JUMPDEST PUSH1 0x0 PUSH2 0x2780 DUP3 DUP6 PUSH2 0x2461 JUMP JUMPDEST SWAP2 POP PUSH2 0x278C DUP3 DUP5 PUSH2 0x2461 JUMP JUMPDEST SWAP2 POP DUP2 SWAP1 POP SWAP4 SWAP3 POP POP POP JUMP JUMPDEST PUSH1 0x0 PUSH1 0x20 DUP3 ADD SWAP1 POP PUSH2 0x27AD PUSH1 0x0 DUP4 ADD DUP5 PUSH2 0x23D1 JUMP JUMPDEST SWAP3 SWAP2 POP POP JUMP JUMPDEST PUSH1 0x0 PUSH1 0x80 DUP3 ADD SWAP1 POP PUSH2 0x27C8 PUSH1 0x0 DUP4 ADD DUP8 PUSH2 0x23D1 JUMP JUMPDEST PUSH2 0x27D5 PUSH1 0x20 DUP4 ADD DUP7 PUSH2 0x23D1 JUMP JUMPDEST PUSH2 0x27E2 PUSH1 0x40 DUP4 ADD DUP6 PUSH2 0x274E JUMP JUMPDEST DUP2 DUP2 SUB PUSH1 0x60 DUP4 ADD MSTORE PUSH2 0x27F4 DUP2 DUP5 PUSH2 0x23EF JUMP JUMPDEST SWAP1 POP SWAP6 SWAP5 POP POP POP POP POP JUMP JUMPDEST PUSH1 0x0 PUSH1 0x20 DUP3 ADD SWAP1 POP PUSH2 0x2814 PUSH1 0x0 DUP4 ADD DUP5 PUSH2 0x23E0 JUMP JUMPDEST SWAP3 SWAP2 POP POP JUMP JUMPDEST PUSH1 0x0 PUSH1 0x20 DUP3 ADD SWAP1 POP DUP2 DUP2 SUB PUSH1 0x0 DUP4 ADD MSTORE PUSH2 0x2834 DUP2 DUP5 PUSH2 0x2428 JUMP JUMPDEST SWAP1 POP SWAP3 SWAP2 POP POP JUMP JUMPDEST PUSH1 0x0 PUSH1 0x20 DUP3 ADD SWAP1 POP DUP2 DUP2 SUB PUSH1 0x0 DUP4 ADD MSTORE PUSH2 0x2855 DUP2 PUSH2 0x2492 JUMP JUMPDEST SWAP1 POP SWAP2 SWAP1 POP JUMP JUMPDEST PUSH1 0x0 PUSH1 0x20 DUP3 ADD SWAP1 POP DUP2 DUP2 SUB PUSH1 0x0 DUP4 ADD MSTORE PUSH2 0x2875 DUP2 PUSH2 0x24B5 JUMP JUMPDEST SWAP1 POP SWAP2 SWAP1 POP JUMP JUMPDEST PUSH1 0x0 PUSH1 0x20 DUP3 ADD SWAP1 POP DUP2 DUP2 SUB PUSH1 0x0 DUP4 ADD MSTORE PUSH2 0x2895 DUP2 PUSH2 0x24D8 JUMP JUMPDEST SWAP1 POP SWAP2 SWAP1 POP JUMP JUMPDEST PUSH1 0x0 PUSH1 0x20 DUP3 ADD SWAP1 POP DUP2 DUP2 SUB PUSH1 0x0 DUP4 ADD MSTORE PUSH2 0x28B5 DUP2 PUSH2 0x24FB JUMP JUMPDEST SWAP1 POP SWAP2 SWAP1 POP JUMP JUMPDEST PUSH1 0x0 PUSH1 0x20 DUP3 ADD SWAP1 POP DUP2 DUP2 SUB PUSH1 0x0 DUP4 ADD MSTORE PUSH2 0x28D5 DUP2 PUSH2 0x251E JUMP JUMPDEST SWAP1 POP SWAP2 SWAP1 POP JUMP JUMPDEST PUSH1 0x0 PUSH1 0x20 DUP3 ADD SWAP1 POP DUP2 DUP2 SUB PUSH1 0x0 DUP4 ADD MSTORE PUSH2 0x28F5 DUP2 PUSH2 0x2541 JUMP JUMPDEST SWAP1 POP SWAP2 SWAP1 POP JUMP JUMPDEST PUSH1 0x0 PUSH1 0x20 DUP3 ADD SWAP1 POP DUP2 DUP2 SUB PUSH1 0x0 DUP4 ADD MSTORE PUSH2 0x2915 DUP2 PUSH2 0x2564 JUMP JUMPDEST SWAP1 POP SWAP2 SWAP1 POP JUMP JUMPDEST PUSH1 0x0 PUSH1 0x20 DUP3 ADD SWAP1 POP DUP2 DUP2 SUB PUSH1 0x0 DUP4 ADD MSTORE PUSH2 0x2935 DUP2 PUSH2 0x2587 JUMP JUMPDEST SWAP1 POP SWAP2 SWAP1 POP JUMP JUMPDEST PUSH1 0x0 PUSH1 0x20 DUP3 ADD SWAP1 POP DUP2 DUP2 SUB PUSH1 0x0 DUP4 ADD MSTORE PUSH2 0x2955 DUP2 PUSH2 0x25AA JUMP JUMPDEST SWAP1 POP SWAP2 SWAP1 POP JUMP JUMPDEST PUSH1 0x0 PUSH1 0x20 DUP3 ADD SWAP1 POP DUP2 DUP2 SUB PUSH1 0x0 DUP4 ADD MSTORE PUSH2 0x2975 DUP2 PUSH2 0x25CD JUMP JUMPDEST SWAP1 POP SWAP2 SWAP1 POP JUMP JUMPDEST PUSH1 0x0 PUSH1 0x20 DUP3 ADD SWAP1 POP DUP2 DUP2 SUB PUSH1 0x0 DUP4 ADD MSTORE PUSH2 0x2995 DUP2 PUSH2 0x25F0 JUMP JUMPDEST SWAP1 POP SWAP2 SWAP1 POP JUMP JUMPDEST PUSH1 0x0 PUSH1 0x20 DUP3 ADD SWAP1 POP DUP2 DUP2 SUB PUSH1 0x0 DUP4 ADD MSTORE PUSH2 0x29B5 DUP2 PUSH2 0x2613 JUMP JUMPDEST SWAP1 POP SWAP2 SWAP1 POP JUMP JUMPDEST PUSH1 0x0 PUSH1 0x20 DUP3 ADD SWAP1 POP DUP2 DUP2 SUB PUSH1 0x0 DUP4 ADD MSTORE PUSH2 0x29D5 DUP2 PUSH2 0x2636 JUMP JUMPDEST SWAP1 POP SWAP2 SWAP1 POP JUMP JUMPDEST PUSH1 0x0 PUSH1 0x20 DUP3 ADD SWAP1 POP DUP2 DUP2 SUB PUSH1 0x0 DUP4 ADD MSTORE PUSH2 0x29F5 DUP2 PUSH2 0x2659 JUMP JUMPDEST SWAP1 POP SWAP2 SWAP1 POP JUMP JUMPDEST PUSH1 0x0 PUSH1 0x20 DUP3 ADD SWAP1 POP DUP2 DUP2 SUB PUSH1 0x0 DUP4 ADD MSTORE PUSH2 0x2A15 DUP2 PUSH2 0x267C JUMP JUMPDEST SWAP1 POP SWAP2 SWAP1 POP JUMP JUMPDEST PUSH1 0x0 PUSH1 0x20 DUP3 ADD SWAP1 POP DUP2 DUP2 SUB PUSH1 0x0 DUP4 ADD MSTORE PUSH2 0x2A35 DUP2 PUSH2 0x269F JUMP JUMPDEST SWAP1 POP SWAP2 SWAP1 POP JUMP JUMPDEST PUSH1 0x0 PUSH1 0x20 DUP3 ADD SWAP1 POP DUP2 DUP2 SUB PUSH1 0x0 DUP4 ADD MSTORE PUSH2 0x2A55 DUP2 PUSH2 0x26C2 JUMP JUMPDEST SWAP1 POP SWAP2 SWAP1 POP JUMP JUMPDEST PUSH1 0x0 PUSH1 0x20 DUP3 ADD SWAP1 POP DUP2 DUP2 SUB PUSH1 0x0 DUP4 ADD MSTORE PUSH2 0x2A75 DUP2 PUSH2 0x26E5 JUMP JUMPDEST SWAP1 POP SWAP2 SWAP1 POP JUMP JUMPDEST PUSH1 0x0 PUSH1 0x20 DUP3 ADD SWAP1 POP DUP2 DUP2 SUB PUSH1 0x0 DUP4 ADD MSTORE PUSH2 0x2A95 DUP2 PUSH2 0x2708 JUMP JUMPDEST SWAP1 POP SWAP2 SWAP1 POP JUMP JUMPDEST PUSH1 0x0 PUSH1 0x20 DUP3 ADD SWAP1 POP DUP2 DUP2 SUB PUSH1 0x0 DUP4 ADD MSTORE PUSH2 0x2AB5 DUP2 PUSH2 0x272B JUMP JUMPDEST SWAP1 POP SWAP2 SWAP1 POP JUMP JUMPDEST PUSH1 0x0 PUSH1 0x20 DUP3 ADD SWAP1 POP PUSH2 0x2AD1 PUSH1 0x0 DUP4 ADD DUP5 PUSH2 0x274E JUMP JUMPDEST SWAP3 SWAP2 POP POP JUMP JUMPDEST PUSH1 0x0 PUSH2 0x2AE1 PUSH2 0x2AF2 JUMP JUMPDEST SWAP1 POP PUSH2 0x2AED DUP3 DUP3 PUSH2 0x2D44 JUMP JUMPDEST SWAP2 SWAP1 POP JUMP JUMPDEST PUSH1 0x0 PUSH1 0x40 MLOAD SWAP1 POP SWAP1 JUMP JUMPDEST PUSH1 0x0 PUSH8 0xFFFFFFFFFFFFFFFF DUP3 GT ISZERO PUSH2 0x2B17 JUMPI PUSH2 0x2B16 PUSH2 0x2E7C JUMP JUMPDEST JUMPDEST PUSH2 0x2B20 DUP3 PUSH2 0x2EAB JUMP JUMPDEST SWAP1 POP PUSH1 0x20 DUP2 ADD SWAP1 POP SWAP2 SWAP1 POP JUMP JUMPDEST PUSH1 0x0 PUSH8 0xFFFFFFFFFFFFFFFF DUP3 GT ISZERO PUSH2 0x2B48 JUMPI PUSH2 0x2B47 PUSH2 0x2E7C JUMP JUMPDEST JUMPDEST PUSH2 0x2B51 DUP3 PUSH2 0x2EAB JUMP JUMPDEST SWAP1 POP PUSH1 0x20 DUP2 ADD SWAP1 POP SWAP2 SWAP1 POP JUMP JUMPDEST PUSH1 0x0 DUP2 MLOAD SWAP1 POP SWAP2 SWAP1 POP JUMP JUMPDEST PUSH1 0x0 DUP2 MLOAD SWAP1 POP SWAP2 SWAP1 POP JUMP JUMPDEST PUSH1 0x0 DUP3 DUP3 MSTORE PUSH1 0x20 DUP3 ADD SWAP1 POP SWAP3 SWAP2 POP POP JUMP JUMPDEST PUSH1 0x0 DUP3 DUP3 MSTORE PUSH1 0x20 DUP3 ADD SWAP1 POP SWAP3 SWAP2 POP POP JUMP JUMPDEST PUSH1 0x0 DUP2 SWAP1 POP SWAP3 SWAP2 POP POP JUMP JUMPDEST PUSH1 0x0 PUSH2 0x2BAC DUP3 PUSH2 0x2CC6 JUMP JUMPDEST SWAP2 POP PUSH2 0x2BB7 DUP4 PUSH2 0x2CC6 JUMP JUMPDEST SWAP3 POP DUP3 PUSH32 0xFFFFFFFFFFFFFFFFFFFFFFFFFFFFFFFFFFFFFFFFFFFFFFFFFFFFFFFFFFFFFFFF SUB DUP3 GT ISZERO PUSH2 0x2BEC JUMPI PUSH2 0x2BEB PUSH2 0x2DEF JUMP JUMPDEST JUMPDEST DUP3 DUP3 ADD SWAP1 POP SWAP3 SWAP2 POP POP JUMP JUMPDEST PUSH1 0x0 PUSH2 0x2C02 DUP3 PUSH2 0x2CC6 JUMP JUMPDEST SWAP2 POP PUSH2 0x2C0D DUP4 PUSH2 0x2CC6 JUMP JUMPDEST SWAP3 POP DUP3 PUSH2 0x2C1D JUMPI PUSH2 0x2C1C PUSH2 0x2E1E JUMP JUMPDEST JUMPDEST DUP3 DUP3 DIV SWAP1 POP SWAP3 SWAP2 POP POP JUMP JUMPDEST PUSH1 0x0 PUSH2 0x2C33 DUP3 PUSH2 0x2CC6 JUMP JUMPDEST SWAP2 POP PUSH2 0x2C3E DUP4 PUSH2 0x2CC6 JUMP JUMPDEST SWAP3 POP DUP3 DUP3 LT ISZERO PUSH2 0x2C51 JUMPI PUSH2 0x2C50 PUSH2 0x2DEF JUMP JUMPDEST JUMPDEST DUP3 DUP3 SUB SWAP1 POP SWAP3 SWAP2 POP POP JUMP JUMPDEST PUSH1 0x0 PUSH2 0x2C67 DUP3 PUSH2 0x2CA6 JUMP JUMPDEST SWAP1 POP SWAP2 SWAP1 POP JUMP JUMPDEST PUSH1 0x0 DUP2 ISZERO ISZERO SWAP1 POP SWAP2 SWAP1 POP JUMP JUMPDEST PUSH1 0x0 PUSH32 0xFFFFFFFF00000000000000000000000000000000000000000000000000000000 DUP3 AND SWAP1 POP SWAP2 SWAP1 POP JUMP JUMPDEST PUSH1 0x0 PUSH20 0xFFFFFFFFFFFFFFFFFFFFFFFFFFFFFFFFFFFFFFFF DUP3 AND SWAP1 POP SWAP2 SWAP1 POP JUMP JUMPDEST PUSH1 0x0 DUP2 SWAP1 POP SWAP2 SWAP1 POP JUMP JUMPDEST DUP3 DUP2 DUP4 CALLDATACOPY PUSH1 0x0 DUP4 DUP4 ADD MSTORE POP POP POP JUMP JUMPDEST PUSH1 0x0 JUMPDEST DUP4 DUP2 LT ISZERO PUSH2 0x2CFD JUMPI DUP1 DUP3 ADD MLOAD DUP2 DUP5 ADD MSTORE PUSH1 0x20 DUP2 ADD SWAP1 POP PUSH2 0x2CE2 JUMP JUMPDEST DUP4 DUP2 GT ISZERO PUSH2 0x2D0C JUMPI PUSH1 0x0 DUP5 DUP5 ADD MSTORE JUMPDEST POP POP POP POP JUMP JUMPDEST PUSH1 0x0 PUSH1 0x2 DUP3 DIV SWAP1 POP PUSH1 0x1 DUP3 AND DUP1 PUSH2 0x2D2A JUMPI PUSH1 0x7F DUP3 AND SWAP2 POP JUMPDEST PUSH1 0x20 DUP3 LT DUP2 EQ ISZERO PUSH2 0x2D3E JUMPI PUSH2 0x2D3D PUSH2 0x2E4D JUMP JUMPDEST JUMPDEST POP SWAP2 SWAP1 POP JUMP JUMPDEST PUSH2 0x2D4D DUP3 PUSH2 0x2EAB JUMP JUMPDEST DUP2 ADD DUP2 DUP2 LT PUSH8 0xFFFFFFFFFFFFFFFF DUP3 GT OR ISZERO PUSH2 0x2D6C JUMPI PUSH2 0x2D6B PUSH2 0x2E7C JUMP JUMPDEST JUMPDEST DUP1 PUSH1 0x40 MSTORE POP POP POP JUMP JUMPDEST PUSH1 0x0 PUSH2 0x2D80 DUP3 PUSH2 0x2CC6 JUMP JUMPDEST SWAP2 POP PUSH32 0xFFFFFFFFFFFFFFFFFFFFFFFFFFFFFFFFFFFFFFFFFFFFFFFFFFFFFFFFFFFFFFFF DUP3 EQ ISZERO PUSH2 0x2DB3 JUMPI PUSH2 0x2DB2 PUSH2 0x2DEF JUMP JUMPDEST JUMPDEST PUSH1 0x1 DUP3 ADD SWAP1 POP SWAP2 SWAP1 POP JUMP JUMPDEST PUSH1 0x0 PUSH2 0x2DC9 DUP3 PUSH2 0x2CC6 JUMP JUMPDEST SWAP2 POP PUSH2 0x2DD4 DUP4 PUSH2 0x2CC6 JUMP JUMPDEST SWAP3 POP DUP3 PUSH2 0x2DE4 JUMPI PUSH2 0x2DE3 PUSH2 0x2E1E JUMP JUMPDEST JUMPDEST DUP3 DUP3 MOD SWAP1 POP SWAP3 SWAP2 POP POP JUMP JUMPDEST PUSH32 0x4E487B7100000000000000000000000000000000000000000000000000000000 PUSH1 0x0 MSTORE PUSH1 0x11 PUSH1 0x4 MSTORE PUSH1 0x24 PUSH1 0x0 REVERT JUMPDEST PUSH32 0x4E487B7100000000000000000000000000000000000000000000000000000000 PUSH1 0x0 MSTORE PUSH1 0x12 PUSH1 0x4 MSTORE PUSH1 0x24 PUSH1 0x0 REVERT JUMPDEST PUSH32 0x4E487B7100000000000000000000000000000000000000000000000000000000 PUSH1 0x0 MSTORE PUSH1 0x22 PUSH1 0x4 MSTORE PUSH1 0x24 PUSH1 0x0 REVERT JUMPDEST PUSH32 0x4E487B7100000000000000000000000000000000000000000000000000000000 PUSH1 0x0 MSTORE PUSH1 0x41 PUSH1 0x4 MSTORE PUSH1 0x24 PUSH1 0x0 REVERT JUMPDEST PUSH1 0x0 PUSH1 0x1F NOT PUSH1 0x1F DUP4 ADD AND SWAP1 POP SWAP2 SWAP1 POP JUMP JUMPDEST PUSH32 0x4552433732313A207472616E7366657220746F206E6F6E204552433732315265 PUSH1 0x0 DUP3 ADD MSTORE PUSH32 0x63656976657220696D706C656D656E7465720000000000000000000000000000 PUSH1 0x20 DUP3 ADD MSTORE POP JUMP JUMPDEST PUSH32 0x4F776E61626C653A206E6577206F776E657220697320746865207A65726F2061 PUSH1 0x0 DUP3 ADD MSTORE PUSH32 0x6464726573730000000000000000000000000000000000000000000000000000 PUSH1 0x20 DUP3 ADD MSTORE POP JUMP JUMPDEST PUSH32 0x4552433732313A20746F6B656E20616C7265616479206D696E74656400000000 PUSH1 0x0 DUP3 ADD MSTORE POP JUMP JUMPDEST PUSH32 0x4552433732313A207472616E7366657220746F20746865207A65726F20616464 PUSH1 0x0 DUP3 ADD MSTORE PUSH32 0x7265737300000000000000000000000000000000000000000000000000000000 PUSH1 0x20 DUP3 ADD MSTORE POP JUMP JUMPDEST PUSH32 0x4552433732313A20617070726F766520746F2063616C6C657200000000000000 PUSH1 0x0 DUP3 ADD MSTORE POP JUMP JUMPDEST PUSH32 0x4552433732313A206F70657261746F7220717565727920666F72206E6F6E6578 PUSH1 0x0 DUP3 ADD MSTORE PUSH32 0x697374656E7420746F6B656E0000000000000000000000000000000000000000 PUSH1 0x20 DUP3 ADD MSTORE POP JUMP JUMPDEST PUSH32 0x4552433732313A20617070726F76652063616C6C6572206973206E6F74206F77 PUSH1 0x0 DUP3 ADD MSTORE PUSH32 0x6E6572206E6F7220617070726F76656420666F7220616C6C0000000000000000 PUSH1 0x20 DUP3 ADD MSTORE POP JUMP JUMPDEST PUSH32 0x4552433732313A2062616C616E636520717565727920666F7220746865207A65 PUSH1 0x0 DUP3 ADD MSTORE PUSH32 0x726F206164647265737300000000000000000000000000000000000000000000 PUSH1 0x20 DUP3 ADD MSTORE POP JUMP JUMPDEST PUSH32 0x4552433732313A206F776E657220717565727920666F72206E6F6E6578697374 PUSH1 0x0 DUP3 ADD MSTORE PUSH32 0x656E7420746F6B656E0000000000000000000000000000000000000000000000 PUSH1 0x20 DUP3 ADD MSTORE POP JUMP JUMPDEST PUSH32 0x45524337323155524953746F726167653A2055524920736574206F66206E6F6E PUSH1 0x0 DUP3 ADD MSTORE PUSH32 0x6578697374656E7420746F6B656E000000000000000000000000000000000000 PUSH1 0x20 DUP3 ADD MSTORE POP JUMP JUMPDEST PUSH32 0x4552433732313A206D696E7420746F20746865207A65726F2061646472657373 PUSH1 0x0 DUP3 ADD MSTORE POP JUMP JUMPDEST PUSH32 0x45524337323155524953746F726167653A2055524920717565727920666F7220 PUSH1 0x0 DUP3 ADD MSTORE PUSH32 0x6E6F6E6578697374656E7420746F6B656E000000000000000000000000000000 PUSH1 0x20 DUP3 ADD MSTORE POP JUMP JUMPDEST PUSH32 0x4552433732313A20617070726F76656420717565727920666F72206E6F6E6578 PUSH1 0x0 DUP3 ADD MSTORE PUSH32 0x697374656E7420746F6B656E0000000000000000000000000000000000000000 PUSH1 0x20 DUP3 ADD MSTORE POP JUMP JUMPDEST PUSH32 0x4F776E61626C653A2063616C6C6572206973206E6F7420746865206F776E6572 PUSH1 0x0 DUP3 ADD MSTORE POP JUMP JUMPDEST PUSH32 0x4552433732313A207472616E73666572206F6620746F6B656E20746861742069 PUSH1 0x0 DUP3 ADD MSTORE PUSH32 0x73206E6F74206F776E0000000000000000000000000000000000000000000000 PUSH1 0x20 DUP3 ADD MSTORE POP JUMP JUMPDEST PUSH32 0x4552433732314D657461646174613A2055524920717565727920666F72206E6F PUSH1 0x0 DUP3 ADD MSTORE PUSH32 0x6E6578697374656E7420746F6B656E0000000000000000000000000000000000 PUSH1 0x20 DUP3 ADD MSTORE POP JUMP JUMPDEST PUSH32 0x4552433732313A20617070726F76616C20746F2063757272656E74206F776E65 PUSH1 0x0 DUP3 ADD MSTORE PUSH32 0x7200000000000000000000000000000000000000000000000000000000000000 PUSH1 0x20 DUP3 ADD MSTORE POP JUMP JUMPDEST PUSH32 0x4552433732313A207472616E736665722063616C6C6572206973206E6F74206F PUSH1 0x0 DUP3 ADD MSTORE PUSH32 0x776E6572206E6F7220617070726F766564000000000000000000000000000000 PUSH1 0x20 DUP3 ADD MSTORE POP JUMP JUMPDEST PUSH32 0x4E465420616C7265616479206D696E7465642100000000000000000000000000 PUSH1 0x0 DUP3 ADD MSTORE POP JUMP JUMPDEST PUSH32 0x4E65656420746F20706179207570210000000000000000000000000000000000 PUSH1 0x0 DUP3 ADD MSTORE POP JUMP JUMPDEST PUSH2 0x340D DUP2 PUSH2 0x2C5C JUMP JUMPDEST DUP2 EQ PUSH2 0x3418 JUMPI PUSH1 0x0 DUP1 REVERT JUMPDEST POP JUMP JUMPDEST PUSH2 0x3424 DUP2 PUSH2 0x2C6E JUMP JUMPDEST DUP2 EQ PUSH2 0x342F JUMPI PUSH1 0x0 DUP1 REVERT JUMPDEST POP JUMP JUMPDEST PUSH2 0x343B DUP2 PUSH2 0x2C7A JUMP JUMPDEST DUP2 EQ PUSH2 0x3446 JUMPI PUSH1 0x0 DUP1 REVERT JUMPDEST POP JUMP JUMPDEST PUSH2 0x3452 DUP2 PUSH2 0x2CC6 JUMP JUMPDEST DUP2 EQ PUSH2 0x345D JUMPI PUSH1 0x0 DUP1 REVERT JUMPDEST POP JUMP INVALID LOG2 PUSH5 0x6970667358 0x22 SLT KECCAK256 MSIZE ADDRESS LOG2 0xC3 0xED JUMP 0xCD STATICCALL SLOAD 0xD6 PUSH15 0xE82F93E74C17E2BD3345DDDF160227 0xC PUSH23 0xE09D9F7664736F6C634300080400330000000000000000 "
        },
        "methodIdentifiers": {
          "approve(address,uint256)": "095ea7b3",
          "balanceOf(address)": "70a08231",
          "count()": "06661abd",
          "getApproved(uint256)": "081812fc",
          "isApprovedForAll(address,address)": "e985e9c5",
          "isContentOwned(string)": "9f1cabc6",
          "name()": "06fdde03",
          "owner()": "8da5cb5b",
          "ownerOf(uint256)": "6352211e",
          "payToMint(address,string)": "615fd9e2",
          "renounceOwnership()": "715018a6",
          "safeMint(address,string)": "d204c45e",
          "safeTransferFrom(address,address,uint256)": "42842e0e",
          "safeTransferFrom(address,address,uint256,bytes)": "b88d4fde",
          "setApprovalForAll(address,bool)": "a22cb465",
          "supportsInterface(bytes4)": "01ffc9a7",
          "symbol()": "95d89b41",
          "tokenURI(uint256)": "c87b56dd",
          "transferFrom(address,address,uint256)": "23b872dd",
          "transferOwnership(address)": "f2fde38b"
        }
      }
    }
  }
}